{"contracts/ORTBet.sol":{"ORTBet":{"abi":[{"inputs":[],"stateMutability":"nonpayable","type":"constructor"},{"inputs":[{"internalType":"address","name":"owner","type":"address"}],"name":"OwnableInvalidOwner","type":"error"},{"inputs":[{"internalType":"address","name":"account","type":"address"}],"name":"OwnableUnauthorizedAccount","type":"error"},{"anonymous":false,"inputs":[{"indexed":true,"internalType":"bytes32","name":"gameId","type":"bytes32"},{"indexed":true,"internalType":"address","name":"playerAddress","type":"address"},{"indexed":false,"internalType":"uint256","name":"changeAmount","type":"uint256"}],"name":"ChangeReturned","type":"event"},{"anonymous":false,"inputs":[{"indexed":true,"internalType":"bytes32","name":"gameId","type":"bytes32"}],"name":"GameCanceled","type":"event"},{"anonymous":false,"inputs":[{"indexed":true,"internalType":"bytes32","name":"gameId","type":"bytes32"},{"indexed":true,"internalType":"address","name":"player1","type":"address"},{"indexed":false,"internalType":"uint256","name":"betAmount","type":"uint256"}],"name":"GameCreated","type":"event"},{"anonymous":false,"inputs":[{"indexed":true,"internalType":"bytes32","name":"gameId","type":"bytes32"},{"indexed":false,"internalType":"enum ORTBet.GameResult","name":"result","type":"uint8"}],"name":"GameEnded","type":"event"},{"anonymous":false,"inputs":[{"indexed":true,"internalType":"bytes32","name":"gameId","type":"bytes32"},{"indexed":true,"internalType":"address","name":"player2","type":"address"}],"name":"GameJoined","type":"event"},{"anonymous":false,"inputs":[{"indexed":true,"internalType":"bytes32","name":"gameId","type":"bytes32"},{"indexed":true,"internalType":"address","name":"playerAddress","type":"address"},{"indexed":false,"internalType":"bool","name":"isDepositerPlayer1","type":"bool"}],"name":"GameStakesDeposited","type":"event"},{"anonymous":false,"inputs":[{"indexed":true,"internalType":"address","name":"previousOwner","type":"address"},{"indexed":true,"internalType":"address","name":"newOwner","type":"address"}],"name":"OwnershipTransferred","type":"event"},{"anonymous":false,"inputs":[{"indexed":true,"internalType":"address","name":"playerAddress","type":"address"},{"indexed":false,"internalType":"uint256","name":"amount","type":"uint256"}],"name":"StakesWithdrawn","type":"event"},{"inputs":[{"internalType":"bytes32","name":"_gameId","type":"bytes32"}],"name":"cancelPendingGame","outputs":[],"stateMutability":"nonpayable","type":"function"},{"inputs":[{"internalType":"string","name":"_gameId","type":"string"},{"internalType":"address","name":"_player1Address","type":"address"},{"internalType":"uint256","name":"_betAmount","type":"uint256"}],"name":"createPendingGame","outputs":[],"stateMutability":"nonpayable","type":"function"},{"inputs":[{"internalType":"bytes32","name":"_gameId","type":"bytes32"}],"name":"depositBetAmount","outputs":[],"stateMutability":"payable","type":"function"},{"inputs":[{"internalType":"bytes32","name":"_gameId","type":"bytes32"},{"internalType":"enum ORTBet.GameResult","name":"_gameResult","type":"uint8"}],"name":"endGame","outputs":[],"stateMutability":"nonpayable","type":"function"},{"inputs":[{"internalType":"bytes32","name":"_gameId","type":"bytes32"},{"internalType":"address","name":"_player2Address","type":"address"}],"name":"joinGame","outputs":[],"stateMutability":"nonpayable","type":"function"},{"inputs":[],"name":"owner","outputs":[{"internalType":"address","name":"","type":"address"}],"stateMutability":"view","type":"function"},{"inputs":[],"name":"renounceOwnership","outputs":[],"stateMutability":"nonpayable","type":"function"},{"inputs":[{"internalType":"address","name":"newOwner","type":"address"}],"name":"transferOwnership","outputs":[],"stateMutability":"nonpayable","type":"function"},{"inputs":[{"internalType":"uint256","name":"_amount","type":"uint256"}],"name":"withdrawStakes","outputs":[],"stateMutability":"nonpayable","type":"function"},{"stateMutability":"payable","type":"receive"}],"devdoc":{"errors":{"OwnableInvalidOwner(address)":[{"details":"The owner is not a valid owner account. (eg. `address(0)`)"}],"OwnableUnauthorizedAccount(address)":[{"details":"The caller account is not authorized to perform an operation."}]},"kind":"dev","methods":{"owner()":{"details":"Returns the address of the current owner."},"renounceOwnership()":{"details":"Leaves the contract without owner. It will not be possible to call `onlyOwner` functions. Can only be called by the current owner. NOTE: Renouncing ownership will leave the contract without an owner, thereby disabling any functionality that is only available to the owner."},"transferOwnership(address)":{"details":"Transfers ownership of the contract to a new account (`newOwner`). Can only be called by the current owner."}},"version":1},"evm":{"bytecode":{"linkReferences":{},"object":"6080604052348015600f57600080fd5b503380603557604051631e4fbdf760e01b81526000600482015260240160405180910390fd5b603c816041565b506091565b600080546001600160a01b038381166001600160a01b0319831681178455604051919092169283917f8be0079c531659141344cd1fd0a4f28419497f9722a3daafe3b4186f6b6457e09190a35050565b6112e9806100a06000396000f3fe60806040526004361061008a5760003560e01c8063b49df3b911610059578063b49df3b914610157578063c0263b2614610177578063d059f79914610197578063d7520687146101b7578063f2fde38b146101d757600080fd5b8063410390ec146100e1578063715018a6146101035780638da5cb5b14610118578063a5dd9f371461014457600080fd5b366100dc5760405162461bcd60e51b815260206004820152601c60248201527f446972656374206465706f73697473206e6f7420616c6c6f7765642e0000000060448201526064015b60405180910390fd5b600080fd5b3480156100ed57600080fd5b506101016100fc366004611093565b6101f7565b005b34801561010f57600080fd5b506101016102eb565b34801561012457600080fd5b50600054604080516001600160a01b039092168252519081900360200190f35b610101610152366004611093565b6102ff565b34801561016357600080fd5b50610101610172366004611093565b610727565b34801561018357600080fd5b506101016101923660046110ac565b6108ac565b3480156101a357600080fd5b506101016101b23660046110fc565b610c14565b3480156101c357600080fd5b506101016101d2366004611128565b610e06565b3480156101e357600080fd5b506101016101f23660046111b3565b610f97565b336000908152600360205260409020548111156102615760405162461bcd60e51b815260206004820152602260248201527f496e73756666696369656e742066756e647320666f7220776974686472617761604482015261361760f11b60648201526084016100d3565b33600090815260036020526040812080548392906102809084906111eb565b9091555050604051339082156108fc029083906000818181858888f193505050501580156102b2573d6000803e3d6000fd5b5060405181815233907f75ded28a7f8d2c34347ec4a9961ec6edff2da2e8a30f2988131f68b61d806b7b9060200160405180910390a250565b6102f3610fd5565b6102fd6000611002565b565b8061030981611052565b801561031b575061031981611073565b155b6103375760405162461bcd60e51b81526004016100d390611204565b6000828152600160205260409020543410156103c95760405162461bcd60e51b815260206004820152604560248201527f54686520616d6f756e742073656e74206973206e6f742073756666696369656e60448201527f7420666f72207468652062657420737065636966696564206f6e20746869732060648201526433b0b6b29760d91b608482015260a4016100d3565b600082815260016020819052604090912001546001600160a01b031633148061040b57506000828152600160205260409020600201546001600160a01b031633145b6104715760405162461bcd60e51b815260206004820152603160248201527f5468652073656e6465722061646472657373206973206e6f74207265636f676e60448201527034bd32b21030b9903090383630bcb2b91760791b60648201526084016100d3565b60008281526001602081905260409091200154336001600160a01b039091160361053357600082815260016020526040902060020154600160a81b900460ff161561050c5760405162461bcd60e51b815260206004820152602560248201527f506c61796572312068617320616c7265616479207061696420746865697220736044820152643a30b5b29760d91b60648201526084016100d3565b6000828152600160205260409020600201805460ff60a81b1916600160a81b1790556105cd565b600082815260016020526040902060020154600160b01b900460ff16156105aa5760405162461bcd60e51b815260206004820152602560248201527f506c61796572322068617320616c7265616479207061696420746865697220736044820152643a30b5b29760d91b60648201526084016100d3565b6000828152600160205260409020600201805460ff60b01b1916600160b01b1790555b600082815260016020526040902054341115610666576000828152600160205260408120546105fc90346111eb565b604051909150339082156108fc029083906000818181858888f1935050505015801561062c573d6000803e3d6000fd5b50604051818152339084907f8e1b13c188c81fb22936e07fc56d33094d4915794f826824de261498f6dfb9d89060200160405180910390a3505b600082815260016020526040902060020154600160a81b900460ff1680156106a65750600082815260016020526040902060020154600160b01b900460ff165b156106ce576000828152600160205260409020600201805460ff60a01b1916600160a01b1790555b600082815260016020818152604092839020909101549151336001600160a01b039093168314815284917f33e18aaba58db4f8ed2f3b1ee25ee23eabab21a1e0d1551df3f48d5211128a11910160405180910390a35050565b61072f610fd5565b8061073981611052565b801561074b575061074981611073565b155b6107675760405162461bcd60e51b81526004016100d390611204565b600082815260016020526040902060020154600160a01b900460ff16156107ea5760405162461bcd60e51b815260206004820152603160248201527f5468652067616d652063616e27742062652063616e656c6c65642e20497427736044820152701030b63932b0b23c9039ba30b93a32b21760791b60648201526084016100d3565b600082815260016020526040902060020154600160a81b900460ff161561084a57600082815260016020818152604080842080549301546001600160a01b0316845260039091528220805491929091610844908490611252565b90915550505b600082815260016020819052604080832083815591820180546001600160a01b0319169055600290910180546001600160b81b03191690555183917f67cee9026d550af16029d9e98811873e693a24b70795c932d41a95b4ec42afe791a25050565b6108b4610fd5565b816108be81611052565b80156108d057506108ce81611073565b155b6108ec5760405162461bcd60e51b81526004016100d390611204565b600083815260016020526040902060020154600160a01b900460ff166109885760405162461bcd60e51b8152602060048201526044602482018190527f546861742067616d65206861736e2774206265656e2073746172746564202854908201527f686520706c6179657273206469646e277420706179207468656972207374616b60648201526332b9949760e11b608482015260a4016100d3565b600182600281111561099c5761099c611265565b036109e557600083815260016020818152604080842080549301546001600160a01b03168452600390915282208054919290916109da908490611252565b90915550610aba9050565b60028260028111156109f9576109f9611265565b03610a3a57600083815260016020908152604080832080546002909101546001600160a01b03168452600390925282208054919290916109da908490611252565b600083815260016020818152604080842080549301546001600160a01b0316845260039091528220805491929091610a73908490611252565b9091555050600083815260016020908152604080832080546002909101546001600160a01b0316845260039092528220805491929091610ab4908490611252565b90915550505b6040805160808101825260008581526001602081815284832080548552808301546001600160a01b039081168387015293899052919052600290810154909116928201929092529060608201908490811115610b1857610b18611265565b905260008481526002602081815260409283902084518155908401516001820180546001600160a01b03199081166001600160a01b039384161790915593850151828401805495861691909216908117825560608601519294929391926001600160a81b0319161790600160a01b908490811115610b9857610b98611265565b02179055505050600083815260016020819052604080832092835590820180546001600160a01b0319169055600290910180546001600160b81b03191690555183907ffd1f3406eff89038aa3e1a745adc3fd2ec1486fff790d45a9ff8afc495fde8bd90610c0790859061127b565b60405180910390a2505050565b610c1c610fd5565b81610c2681611052565b8015610c385750610c3681611073565b155b610c545760405162461bcd60e51b81526004016100d390611204565b600083815260016020526040902060020154600160a01b900460ff1615610cbd5760405162461bcd60e51b815260206004820152601e60248201527f546861742067616d652068617320616c726561647920737461727465642e000060448201526064016100d3565b6000838152600160205260409020600201546001600160a01b031615610d255760405162461bcd60e51b815260206004820152601a60248201527f506c617965723220616c7265616479207370656369666965642e00000000000060448201526064016100d3565b600083815260016020819052604090912001546001600160a01b03808416911603610da95760405162461bcd60e51b815260206004820152602e60248201527f54686174206164647265737320697320616c726561647920726567697374657260448201526d32b21030b990383630bcb2b9189760911b60648201526084016100d3565b60008381526001602052604080822060020180546001600160a01b0319166001600160a01b0386169081179091559051909185917f719256502a190a7b4efbca7f56497055f1dccc51e2dca31d166dd41353fa21c29190a3505050565b610e0e610fd5565b60008484604051602001610e239291906112a3565b604051602081830303815290604052805190602001209050610e4481611052565b158015610e575750610e5581611073565b155b610e9b5760405162461bcd60e51b815260206004820152601560248201527423b0b6b2a4b21030b63932b0b23c903a30b5b2b71760591b60448201526064016100d3565b6040805160c0810182528381526001600160a01b0385811660208084018281526000858701818152606087018281526080880183815260a089018481528b85526001808852948b902099518a55945193890180546001600160a01b03191694891694909417909355905160029097018054915192519351979096166001600160a81b031990911617600160a01b911515919091021761ffff60a81b1916600160a81b9115159190910260ff60b01b191617600160b01b9415159490940293909317909155915184815283917e06379582cf33f082958411b512c6d1b9888095de98bc1f9532e3f165336152910160405180910390a35050505050565b610f9f610fd5565b6001600160a01b038116610fc957604051631e4fbdf760e01b8152600060048201526024016100d3565b610fd281611002565b50565b6000546001600160a01b031633146102fd5760405163118cdaa760e01b81523360048201526024016100d3565b600080546001600160a01b038381166001600160a01b0319831681178455604051919092169283917f8be0079c531659141344cd1fd0a4f28419497f9722a3daafe3b4186f6b6457e09190a35050565b600090815260016020819052604090912001546001600160a01b0316151590565b6000908152600260205260409020600101546001600160a01b0316151590565b6000602082840312156110a557600080fd5b5035919050565b600080604083850312156110bf57600080fd5b823591506020830135600381106110d557600080fd5b809150509250929050565b80356001600160a01b03811681146110f757600080fd5b919050565b6000806040838503121561110f57600080fd5b8235915061111f602084016110e0565b90509250929050565b6000806000806060858703121561113e57600080fd5b843567ffffffffffffffff81111561115557600080fd5b8501601f8101871361116657600080fd5b803567ffffffffffffffff81111561117d57600080fd5b87602082840101111561118f57600080fd5b6020918201955093506111a39086016110e0565b9396929550929360400135925050565b6000602082840312156111c557600080fd5b6111ce826110e0565b9392505050565b634e487b7160e01b600052601160045260246000fd5b818103818111156111fe576111fe6111d5565b92915050565b6020808252602e908201527f47616d6520656974686572206e6f7420696e69746961746564206f7220616c7260408201526d32b0b23c903334b734b9b432b21760911b606082015260800190565b808201808211156111fe576111fe6111d5565b634e487b7160e01b600052602160045260246000fd5b602081016003831061129d57634e487b7160e01b600052602160045260246000fd5b91905290565b818382376000910190815291905056fea2646970667358221220d864658039547f9e0226aa01af4cf52513f9bb12e4eb99b166a4d2a5e8f7fa0c64736f6c634300081c0033","opcodes":"PUSH1 0x80 PUSH1 0x40 MSTORE CALLVALUE DUP1 ISZERO PUSH1 0xF JUMPI PUSH1 0x0 DUP1 REVERT JUMPDEST POP CALLER DUP1 PUSH1 0x35 JUMPI PUSH1 0x40 MLOAD PUSH4 0x1E4FBDF7 PUSH1 0xE0 SHL DUP2 MSTORE PUSH1 0x0 PUSH1 0x4 DUP3 ADD MSTORE PUSH1 0x24 ADD PUSH1 0x40 MLOAD DUP1 SWAP2 SUB SWAP1 REVERT JUMPDEST PUSH1 0x3C DUP2 PUSH1 0x41 JUMP JUMPDEST POP PUSH1 0x91 JUMP JUMPDEST PUSH1 0x0 DUP1 SLOAD PUSH1 0x1 PUSH1 0x1 PUSH1 0xA0 SHL SUB DUP4 DUP2 AND PUSH1 0x1 PUSH1 0x1 PUSH1 0xA0 SHL SUB NOT DUP4 AND DUP2 OR DUP5 SSTORE PUSH1 0x40 MLOAD SWAP2 SWAP1 SWAP3 AND SWAP3 DUP4 SWAP2 PUSH32 0x8BE0079C531659141344CD1FD0A4F28419497F9722A3DAAFE3B4186F6B6457E0 SWAP2 SWAP1 LOG3 POP POP JUMP JUMPDEST PUSH2 0x12E9 DUP1 PUSH2 0xA0 PUSH1 0x0 CODECOPY PUSH1 0x0 RETURN INVALID PUSH1 0x80 PUSH1 0x40 MSTORE PUSH1 0x4 CALLDATASIZE LT PUSH2 0x8A JUMPI PUSH1 0x0 CALLDATALOAD PUSH1 0xE0 SHR DUP1 PUSH4 0xB49DF3B9 GT PUSH2 0x59 JUMPI DUP1 PUSH4 0xB49DF3B9 EQ PUSH2 0x157 JUMPI DUP1 PUSH4 0xC0263B26 EQ PUSH2 0x177 JUMPI DUP1 PUSH4 0xD059F799 EQ PUSH2 0x197 JUMPI DUP1 PUSH4 0xD7520687 EQ PUSH2 0x1B7 JUMPI DUP1 PUSH4 0xF2FDE38B EQ PUSH2 0x1D7 JUMPI PUSH1 0x0 DUP1 REVERT JUMPDEST DUP1 PUSH4 0x410390EC EQ PUSH2 0xE1 JUMPI DUP1 PUSH4 0x715018A6 EQ PUSH2 0x103 JUMPI DUP1 PUSH4 0x8DA5CB5B EQ PUSH2 0x118 JUMPI DUP1 PUSH4 0xA5DD9F37 EQ PUSH2 0x144 JUMPI PUSH1 0x0 DUP1 REVERT JUMPDEST CALLDATASIZE PUSH2 0xDC JUMPI PUSH1 0x40 MLOAD PUSH3 0x461BCD PUSH1 0xE5 SHL DUP2 MSTORE PUSH1 0x20 PUSH1 0x4 DUP3 ADD MSTORE PUSH1 0x1C PUSH1 0x24 DUP3 ADD MSTORE PUSH32 0x446972656374206465706F73697473206E6F7420616C6C6F7765642E00000000 PUSH1 0x44 DUP3 ADD MSTORE PUSH1 0x64 ADD JUMPDEST PUSH1 0x40 MLOAD DUP1 SWAP2 SUB SWAP1 REVERT JUMPDEST PUSH1 0x0 DUP1 REVERT JUMPDEST CALLVALUE DUP1 ISZERO PUSH2 0xED JUMPI PUSH1 0x0 DUP1 REVERT JUMPDEST POP PUSH2 0x101 PUSH2 0xFC CALLDATASIZE PUSH1 0x4 PUSH2 0x1093 JUMP JUMPDEST PUSH2 0x1F7 JUMP JUMPDEST STOP JUMPDEST CALLVALUE DUP1 ISZERO PUSH2 0x10F JUMPI PUSH1 0x0 DUP1 REVERT JUMPDEST POP PUSH2 0x101 PUSH2 0x2EB JUMP JUMPDEST CALLVALUE DUP1 ISZERO PUSH2 0x124 JUMPI PUSH1 0x0 DUP1 REVERT JUMPDEST POP PUSH1 0x0 SLOAD PUSH1 0x40 DUP1 MLOAD PUSH1 0x1 PUSH1 0x1 PUSH1 0xA0 SHL SUB SWAP1 SWAP3 AND DUP3 MSTORE MLOAD SWAP1 DUP2 SWAP1 SUB PUSH1 0x20 ADD SWAP1 RETURN JUMPDEST PUSH2 0x101 PUSH2 0x152 CALLDATASIZE PUSH1 0x4 PUSH2 0x1093 JUMP JUMPDEST PUSH2 0x2FF JUMP JUMPDEST CALLVALUE DUP1 ISZERO PUSH2 0x163 JUMPI PUSH1 0x0 DUP1 REVERT JUMPDEST POP PUSH2 0x101 PUSH2 0x172 CALLDATASIZE PUSH1 0x4 PUSH2 0x1093 JUMP JUMPDEST PUSH2 0x727 JUMP JUMPDEST CALLVALUE DUP1 ISZERO PUSH2 0x183 JUMPI PUSH1 0x0 DUP1 REVERT JUMPDEST POP PUSH2 0x101 PUSH2 0x192 CALLDATASIZE PUSH1 0x4 PUSH2 0x10AC JUMP JUMPDEST PUSH2 0x8AC JUMP JUMPDEST CALLVALUE DUP1 ISZERO PUSH2 0x1A3 JUMPI PUSH1 0x0 DUP1 REVERT JUMPDEST POP PUSH2 0x101 PUSH2 0x1B2 CALLDATASIZE PUSH1 0x4 PUSH2 0x10FC JUMP JUMPDEST PUSH2 0xC14 JUMP JUMPDEST CALLVALUE DUP1 ISZERO PUSH2 0x1C3 JUMPI PUSH1 0x0 DUP1 REVERT JUMPDEST POP PUSH2 0x101 PUSH2 0x1D2 CALLDATASIZE PUSH1 0x4 PUSH2 0x1128 JUMP JUMPDEST PUSH2 0xE06 JUMP JUMPDEST CALLVALUE DUP1 ISZERO PUSH2 0x1E3 JUMPI PUSH1 0x0 DUP1 REVERT JUMPDEST POP PUSH2 0x101 PUSH2 0x1F2 CALLDATASIZE PUSH1 0x4 PUSH2 0x11B3 JUMP JUMPDEST PUSH2 0xF97 JUMP JUMPDEST CALLER PUSH1 0x0 SWAP1 DUP2 MSTORE PUSH1 0x3 PUSH1 0x20 MSTORE PUSH1 0x40 SWAP1 KECCAK256 SLOAD DUP2 GT ISZERO PUSH2 0x261 JUMPI PUSH1 0x40 MLOAD PUSH3 0x461BCD PUSH1 0xE5 SHL DUP2 MSTORE PUSH1 0x20 PUSH1 0x4 DUP3 ADD MSTORE PUSH1 0x22 PUSH1 0x24 DUP3 ADD MSTORE PUSH32 0x496E73756666696369656E742066756E647320666F7220776974686472617761 PUSH1 0x44 DUP3 ADD MSTORE PUSH2 0x3617 PUSH1 0xF1 SHL PUSH1 0x64 DUP3 ADD MSTORE PUSH1 0x84 ADD PUSH2 0xD3 JUMP JUMPDEST CALLER PUSH1 0x0 SWAP1 DUP2 MSTORE PUSH1 0x3 PUSH1 0x20 MSTORE PUSH1 0x40 DUP2 KECCAK256 DUP1 SLOAD DUP4 SWAP3 SWAP1 PUSH2 0x280 SWAP1 DUP5 SWAP1 PUSH2 0x11EB JUMP JUMPDEST SWAP1 SWAP2 SSTORE POP POP PUSH1 0x40 MLOAD CALLER SWAP1 DUP3 ISZERO PUSH2 0x8FC MUL SWAP1 DUP4 SWAP1 PUSH1 0x0 DUP2 DUP2 DUP2 DUP6 DUP9 DUP9 CALL SWAP4 POP POP POP POP ISZERO DUP1 ISZERO PUSH2 0x2B2 JUMPI RETURNDATASIZE PUSH1 0x0 DUP1 RETURNDATACOPY RETURNDATASIZE PUSH1 0x0 REVERT JUMPDEST POP PUSH1 0x40 MLOAD DUP2 DUP2 MSTORE CALLER SWAP1 PUSH32 0x75DED28A7F8D2C34347EC4A9961EC6EDFF2DA2E8A30F2988131F68B61D806B7B SWAP1 PUSH1 0x20 ADD PUSH1 0x40 MLOAD DUP1 SWAP2 SUB SWAP1 LOG2 POP JUMP JUMPDEST PUSH2 0x2F3 PUSH2 0xFD5 JUMP JUMPDEST PUSH2 0x2FD PUSH1 0x0 PUSH2 0x1002 JUMP JUMPDEST JUMP JUMPDEST DUP1 PUSH2 0x309 DUP2 PUSH2 0x1052 JUMP JUMPDEST DUP1 ISZERO PUSH2 0x31B JUMPI POP PUSH2 0x319 DUP2 PUSH2 0x1073 JUMP JUMPDEST ISZERO JUMPDEST PUSH2 0x337 JUMPI PUSH1 0x40 MLOAD PUSH3 0x461BCD PUSH1 0xE5 SHL DUP2 MSTORE PUSH1 0x4 ADD PUSH2 0xD3 SWAP1 PUSH2 0x1204 JUMP JUMPDEST PUSH1 0x0 DUP3 DUP2 MSTORE PUSH1 0x1 PUSH1 0x20 MSTORE PUSH1 0x40 SWAP1 KECCAK256 SLOAD CALLVALUE LT ISZERO PUSH2 0x3C9 JUMPI PUSH1 0x40 MLOAD PUSH3 0x461BCD PUSH1 0xE5 SHL DUP2 MSTORE PUSH1 0x20 PUSH1 0x4 DUP3 ADD MSTORE PUSH1 0x45 PUSH1 0x24 DUP3 ADD MSTORE PUSH32 0x54686520616D6F756E742073656E74206973206E6F742073756666696369656E PUSH1 0x44 DUP3 ADD MSTORE PUSH32 0x7420666F72207468652062657420737065636966696564206F6E207468697320 PUSH1 0x64 DUP3 ADD MSTORE PUSH5 0x33B0B6B297 PUSH1 0xD9 SHL PUSH1 0x84 DUP3 ADD MSTORE PUSH1 0xA4 ADD PUSH2 0xD3 JUMP JUMPDEST PUSH1 0x0 DUP3 DUP2 MSTORE PUSH1 0x1 PUSH1 0x20 DUP2 SWAP1 MSTORE PUSH1 0x40 SWAP1 SWAP2 KECCAK256 ADD SLOAD PUSH1 0x1 PUSH1 0x1 PUSH1 0xA0 SHL SUB AND CALLER EQ DUP1 PUSH2 0x40B JUMPI POP PUSH1 0x0 DUP3 DUP2 MSTORE PUSH1 0x1 PUSH1 0x20 MSTORE PUSH1 0x40 SWAP1 KECCAK256 PUSH1 0x2 ADD SLOAD PUSH1 0x1 PUSH1 0x1 PUSH1 0xA0 SHL SUB AND CALLER EQ JUMPDEST PUSH2 0x471 JUMPI PUSH1 0x40 MLOAD PUSH3 0x461BCD PUSH1 0xE5 SHL DUP2 MSTORE PUSH1 0x20 PUSH1 0x4 DUP3 ADD MSTORE PUSH1 0x31 PUSH1 0x24 DUP3 ADD MSTORE PUSH32 0x5468652073656E6465722061646472657373206973206E6F74207265636F676E PUSH1 0x44 DUP3 ADD MSTORE PUSH17 0x34BD32B21030B9903090383630BCB2B917 PUSH1 0x79 SHL PUSH1 0x64 DUP3 ADD MSTORE PUSH1 0x84 ADD PUSH2 0xD3 JUMP JUMPDEST PUSH1 0x0 DUP3 DUP2 MSTORE PUSH1 0x1 PUSH1 0x20 DUP2 SWAP1 MSTORE PUSH1 0x40 SWAP1 SWAP2 KECCAK256 ADD SLOAD CALLER PUSH1 0x1 PUSH1 0x1 PUSH1 0xA0 SHL SUB SWAP1 SWAP2 AND SUB PUSH2 0x533 JUMPI PUSH1 0x0 DUP3 DUP2 MSTORE PUSH1 0x1 PUSH1 0x20 MSTORE PUSH1 0x40 SWAP1 KECCAK256 PUSH1 0x2 ADD SLOAD PUSH1 0x1 PUSH1 0xA8 SHL SWAP1 DIV PUSH1 0xFF AND ISZERO PUSH2 0x50C JUMPI PUSH1 0x40 MLOAD PUSH3 0x461BCD PUSH1 0xE5 SHL DUP2 MSTORE PUSH1 0x20 PUSH1 0x4 DUP3 ADD MSTORE PUSH1 0x25 PUSH1 0x24 DUP3 ADD MSTORE PUSH32 0x506C61796572312068617320616C726561647920706169642074686569722073 PUSH1 0x44 DUP3 ADD MSTORE PUSH5 0x3A30B5B297 PUSH1 0xD9 SHL PUSH1 0x64 DUP3 ADD MSTORE PUSH1 0x84 ADD PUSH2 0xD3 JUMP JUMPDEST PUSH1 0x0 DUP3 DUP2 MSTORE PUSH1 0x1 PUSH1 0x20 MSTORE PUSH1 0x40 SWAP1 KECCAK256 PUSH1 0x2 ADD DUP1 SLOAD PUSH1 0xFF PUSH1 0xA8 SHL NOT AND PUSH1 0x1 PUSH1 0xA8 SHL OR SWAP1 SSTORE PUSH2 0x5CD JUMP JUMPDEST PUSH1 0x0 DUP3 DUP2 MSTORE PUSH1 0x1 PUSH1 0x20 MSTORE PUSH1 0x40 SWAP1 KECCAK256 PUSH1 0x2 ADD SLOAD PUSH1 0x1 PUSH1 0xB0 SHL SWAP1 DIV PUSH1 0xFF AND ISZERO PUSH2 0x5AA JUMPI PUSH1 0x40 MLOAD PUSH3 0x461BCD PUSH1 0xE5 SHL DUP2 MSTORE PUSH1 0x20 PUSH1 0x4 DUP3 ADD MSTORE PUSH1 0x25 PUSH1 0x24 DUP3 ADD MSTORE PUSH32 0x506C61796572322068617320616C726561647920706169642074686569722073 PUSH1 0x44 DUP3 ADD MSTORE PUSH5 0x3A30B5B297 PUSH1 0xD9 SHL PUSH1 0x64 DUP3 ADD MSTORE PUSH1 0x84 ADD PUSH2 0xD3 JUMP JUMPDEST PUSH1 0x0 DUP3 DUP2 MSTORE PUSH1 0x1 PUSH1 0x20 MSTORE PUSH1 0x40 SWAP1 KECCAK256 PUSH1 0x2 ADD DUP1 SLOAD PUSH1 0xFF PUSH1 0xB0 SHL NOT AND PUSH1 0x1 PUSH1 0xB0 SHL OR SWAP1 SSTORE JUMPDEST PUSH1 0x0 DUP3 DUP2 MSTORE PUSH1 0x1 PUSH1 0x20 MSTORE PUSH1 0x40 SWAP1 KECCAK256 SLOAD CALLVALUE GT ISZERO PUSH2 0x666 JUMPI PUSH1 0x0 DUP3 DUP2 MSTORE PUSH1 0x1 PUSH1 0x20 MSTORE PUSH1 0x40 DUP2 KECCAK256 SLOAD PUSH2 0x5FC SWAP1 CALLVALUE PUSH2 0x11EB JUMP JUMPDEST PUSH1 0x40 MLOAD SWAP1 SWAP2 POP CALLER SWAP1 DUP3 ISZERO PUSH2 0x8FC MUL SWAP1 DUP4 SWAP1 PUSH1 0x0 DUP2 DUP2 DUP2 DUP6 DUP9 DUP9 CALL SWAP4 POP POP POP POP ISZERO DUP1 ISZERO PUSH2 0x62C JUMPI RETURNDATASIZE PUSH1 0x0 DUP1 RETURNDATACOPY RETURNDATASIZE PUSH1 0x0 REVERT JUMPDEST POP PUSH1 0x40 MLOAD DUP2 DUP2 MSTORE CALLER SWAP1 DUP5 SWAP1 PUSH32 0x8E1B13C188C81FB22936E07FC56D33094D4915794F826824DE261498F6DFB9D8 SWAP1 PUSH1 0x20 ADD PUSH1 0x40 MLOAD DUP1 SWAP2 SUB SWAP1 LOG3 POP JUMPDEST PUSH1 0x0 DUP3 DUP2 MSTORE PUSH1 0x1 PUSH1 0x20 MSTORE PUSH1 0x40 SWAP1 KECCAK256 PUSH1 0x2 ADD SLOAD PUSH1 0x1 PUSH1 0xA8 SHL SWAP1 DIV PUSH1 0xFF AND DUP1 ISZERO PUSH2 0x6A6 JUMPI POP PUSH1 0x0 DUP3 DUP2 MSTORE PUSH1 0x1 PUSH1 0x20 MSTORE PUSH1 0x40 SWAP1 KECCAK256 PUSH1 0x2 ADD SLOAD PUSH1 0x1 PUSH1 0xB0 SHL SWAP1 DIV PUSH1 0xFF AND JUMPDEST ISZERO PUSH2 0x6CE JUMPI PUSH1 0x0 DUP3 DUP2 MSTORE PUSH1 0x1 PUSH1 0x20 MSTORE PUSH1 0x40 SWAP1 KECCAK256 PUSH1 0x2 ADD DUP1 SLOAD PUSH1 0xFF PUSH1 0xA0 SHL NOT AND PUSH1 0x1 PUSH1 0xA0 SHL OR SWAP1 SSTORE JUMPDEST PUSH1 0x0 DUP3 DUP2 MSTORE PUSH1 0x1 PUSH1 0x20 DUP2 DUP2 MSTORE PUSH1 0x40 SWAP3 DUP4 SWAP1 KECCAK256 SWAP1 SWAP2 ADD SLOAD SWAP2 MLOAD CALLER PUSH1 0x1 PUSH1 0x1 PUSH1 0xA0 SHL SUB SWAP1 SWAP4 AND DUP4 EQ DUP2 MSTORE DUP5 SWAP2 PUSH32 0x33E18AABA58DB4F8ED2F3B1EE25EE23EABAB21A1E0D1551DF3F48D5211128A11 SWAP2 ADD PUSH1 0x40 MLOAD DUP1 SWAP2 SUB SWAP1 LOG3 POP POP JUMP JUMPDEST PUSH2 0x72F PUSH2 0xFD5 JUMP JUMPDEST DUP1 PUSH2 0x739 DUP2 PUSH2 0x1052 JUMP JUMPDEST DUP1 ISZERO PUSH2 0x74B JUMPI POP PUSH2 0x749 DUP2 PUSH2 0x1073 JUMP JUMPDEST ISZERO JUMPDEST PUSH2 0x767 JUMPI PUSH1 0x40 MLOAD PUSH3 0x461BCD PUSH1 0xE5 SHL DUP2 MSTORE PUSH1 0x4 ADD PUSH2 0xD3 SWAP1 PUSH2 0x1204 JUMP JUMPDEST PUSH1 0x0 DUP3 DUP2 MSTORE PUSH1 0x1 PUSH1 0x20 MSTORE PUSH1 0x40 SWAP1 KECCAK256 PUSH1 0x2 ADD SLOAD PUSH1 0x1 PUSH1 0xA0 SHL SWAP1 DIV PUSH1 0xFF AND ISZERO PUSH2 0x7EA JUMPI PUSH1 0x40 MLOAD PUSH3 0x461BCD PUSH1 0xE5 SHL DUP2 MSTORE PUSH1 0x20 PUSH1 0x4 DUP3 ADD MSTORE PUSH1 0x31 PUSH1 0x24 DUP3 ADD MSTORE PUSH32 0x5468652067616D652063616E27742062652063616E656C6C65642E2049742773 PUSH1 0x44 DUP3 ADD MSTORE PUSH17 0x1030B63932B0B23C9039BA30B93A32B217 PUSH1 0x79 SHL PUSH1 0x64 DUP3 ADD MSTORE PUSH1 0x84 ADD PUSH2 0xD3 JUMP JUMPDEST PUSH1 0x0 DUP3 DUP2 MSTORE PUSH1 0x1 PUSH1 0x20 MSTORE PUSH1 0x40 SWAP1 KECCAK256 PUSH1 0x2 ADD SLOAD PUSH1 0x1 PUSH1 0xA8 SHL SWAP1 DIV PUSH1 0xFF AND ISZERO PUSH2 0x84A JUMPI PUSH1 0x0 DUP3 DUP2 MSTORE PUSH1 0x1 PUSH1 0x20 DUP2 DUP2 MSTORE PUSH1 0x40 DUP1 DUP5 KECCAK256 DUP1 SLOAD SWAP4 ADD SLOAD PUSH1 0x1 PUSH1 0x1 PUSH1 0xA0 SHL SUB AND DUP5 MSTORE PUSH1 0x3 SWAP1 SWAP2 MSTORE DUP3 KECCAK256 DUP1 SLOAD SWAP2 SWAP3 SWAP1 SWAP2 PUSH2 0x844 SWAP1 DUP5 SWAP1 PUSH2 0x1252 JUMP JUMPDEST SWAP1 SWAP2 SSTORE POP POP JUMPDEST PUSH1 0x0 DUP3 DUP2 MSTORE PUSH1 0x1 PUSH1 0x20 DUP2 SWAP1 MSTORE PUSH1 0x40 DUP1 DUP4 KECCAK256 DUP4 DUP2 SSTORE SWAP2 DUP3 ADD DUP1 SLOAD PUSH1 0x1 PUSH1 0x1 PUSH1 0xA0 SHL SUB NOT AND SWAP1 SSTORE PUSH1 0x2 SWAP1 SWAP2 ADD DUP1 SLOAD PUSH1 0x1 PUSH1 0x1 PUSH1 0xB8 SHL SUB NOT AND SWAP1 SSTORE MLOAD DUP4 SWAP2 PUSH32 0x67CEE9026D550AF16029D9E98811873E693A24B70795C932D41A95B4EC42AFE7 SWAP2 LOG2 POP POP JUMP JUMPDEST PUSH2 0x8B4 PUSH2 0xFD5 JUMP JUMPDEST DUP2 PUSH2 0x8BE DUP2 PUSH2 0x1052 JUMP JUMPDEST DUP1 ISZERO PUSH2 0x8D0 JUMPI POP PUSH2 0x8CE DUP2 PUSH2 0x1073 JUMP JUMPDEST ISZERO JUMPDEST PUSH2 0x8EC JUMPI PUSH1 0x40 MLOAD PUSH3 0x461BCD PUSH1 0xE5 SHL DUP2 MSTORE PUSH1 0x4 ADD PUSH2 0xD3 SWAP1 PUSH2 0x1204 JUMP JUMPDEST PUSH1 0x0 DUP4 DUP2 MSTORE PUSH1 0x1 PUSH1 0x20 MSTORE PUSH1 0x40 SWAP1 KECCAK256 PUSH1 0x2 ADD SLOAD PUSH1 0x1 PUSH1 0xA0 SHL SWAP1 DIV PUSH1 0xFF AND PUSH2 0x988 JUMPI PUSH1 0x40 MLOAD PUSH3 0x461BCD PUSH1 0xE5 SHL DUP2 MSTORE PUSH1 0x20 PUSH1 0x4 DUP3 ADD MSTORE PUSH1 0x44 PUSH1 0x24 DUP3 ADD DUP2 SWAP1 MSTORE PUSH32 0x546861742067616D65206861736E2774206265656E2073746172746564202854 SWAP1 DUP3 ADD MSTORE PUSH32 0x686520706C6179657273206469646E277420706179207468656972207374616B PUSH1 0x64 DUP3 ADD MSTORE PUSH4 0x32B99497 PUSH1 0xE1 SHL PUSH1 0x84 DUP3 ADD MSTORE PUSH1 0xA4 ADD PUSH2 0xD3 JUMP JUMPDEST PUSH1 0x1 DUP3 PUSH1 0x2 DUP2 GT ISZERO PUSH2 0x99C JUMPI PUSH2 0x99C PUSH2 0x1265 JUMP JUMPDEST SUB PUSH2 0x9E5 JUMPI PUSH1 0x0 DUP4 DUP2 MSTORE PUSH1 0x1 PUSH1 0x20 DUP2 DUP2 MSTORE PUSH1 0x40 DUP1 DUP5 KECCAK256 DUP1 SLOAD SWAP4 ADD SLOAD PUSH1 0x1 PUSH1 0x1 PUSH1 0xA0 SHL SUB AND DUP5 MSTORE PUSH1 0x3 SWAP1 SWAP2 MSTORE DUP3 KECCAK256 DUP1 SLOAD SWAP2 SWAP3 SWAP1 SWAP2 PUSH2 0x9DA SWAP1 DUP5 SWAP1 PUSH2 0x1252 JUMP JUMPDEST SWAP1 SWAP2 SSTORE POP PUSH2 0xABA SWAP1 POP JUMP JUMPDEST PUSH1 0x2 DUP3 PUSH1 0x2 DUP2 GT ISZERO PUSH2 0x9F9 JUMPI PUSH2 0x9F9 PUSH2 0x1265 JUMP JUMPDEST SUB PUSH2 0xA3A JUMPI PUSH1 0x0 DUP4 DUP2 MSTORE PUSH1 0x1 PUSH1 0x20 SWAP1 DUP2 MSTORE PUSH1 0x40 DUP1 DUP4 KECCAK256 DUP1 SLOAD PUSH1 0x2 SWAP1 SWAP2 ADD SLOAD PUSH1 0x1 PUSH1 0x1 PUSH1 0xA0 SHL SUB AND DUP5 MSTORE PUSH1 0x3 SWAP1 SWAP3 MSTORE DUP3 KECCAK256 DUP1 SLOAD SWAP2 SWAP3 SWAP1 SWAP2 PUSH2 0x9DA SWAP1 DUP5 SWAP1 PUSH2 0x1252 JUMP JUMPDEST PUSH1 0x0 DUP4 DUP2 MSTORE PUSH1 0x1 PUSH1 0x20 DUP2 DUP2 MSTORE PUSH1 0x40 DUP1 DUP5 KECCAK256 DUP1 SLOAD SWAP4 ADD SLOAD PUSH1 0x1 PUSH1 0x1 PUSH1 0xA0 SHL SUB AND DUP5 MSTORE PUSH1 0x3 SWAP1 SWAP2 MSTORE DUP3 KECCAK256 DUP1 SLOAD SWAP2 SWAP3 SWAP1 SWAP2 PUSH2 0xA73 SWAP1 DUP5 SWAP1 PUSH2 0x1252 JUMP JUMPDEST SWAP1 SWAP2 SSTORE POP POP PUSH1 0x0 DUP4 DUP2 MSTORE PUSH1 0x1 PUSH1 0x20 SWAP1 DUP2 MSTORE PUSH1 0x40 DUP1 DUP4 KECCAK256 DUP1 SLOAD PUSH1 0x2 SWAP1 SWAP2 ADD SLOAD PUSH1 0x1 PUSH1 0x1 PUSH1 0xA0 SHL SUB AND DUP5 MSTORE PUSH1 0x3 SWAP1 SWAP3 MSTORE DUP3 KECCAK256 DUP1 SLOAD SWAP2 SWAP3 SWAP1 SWAP2 PUSH2 0xAB4 SWAP1 DUP5 SWAP1 PUSH2 0x1252 JUMP JUMPDEST SWAP1 SWAP2 SSTORE POP POP JUMPDEST PUSH1 0x40 DUP1 MLOAD PUSH1 0x80 DUP2 ADD DUP3 MSTORE PUSH1 0x0 DUP6 DUP2 MSTORE PUSH1 0x1 PUSH1 0x20 DUP2 DUP2 MSTORE DUP5 DUP4 KECCAK256 DUP1 SLOAD DUP6 MSTORE DUP1 DUP4 ADD SLOAD PUSH1 0x1 PUSH1 0x1 PUSH1 0xA0 SHL SUB SWAP1 DUP2 AND DUP4 DUP8 ADD MSTORE SWAP4 DUP10 SWAP1 MSTORE SWAP2 SWAP1 MSTORE PUSH1 0x2 SWAP1 DUP2 ADD SLOAD SWAP1 SWAP2 AND SWAP3 DUP3 ADD SWAP3 SWAP1 SWAP3 MSTORE SWAP1 PUSH1 0x60 DUP3 ADD SWAP1 DUP5 SWAP1 DUP2 GT ISZERO PUSH2 0xB18 JUMPI PUSH2 0xB18 PUSH2 0x1265 JUMP JUMPDEST SWAP1 MSTORE PUSH1 0x0 DUP5 DUP2 MSTORE PUSH1 0x2 PUSH1 0x20 DUP2 DUP2 MSTORE PUSH1 0x40 SWAP3 DUP4 SWAP1 KECCAK256 DUP5 MLOAD DUP2 SSTORE SWAP1 DUP5 ADD MLOAD PUSH1 0x1 DUP3 ADD DUP1 SLOAD PUSH1 0x1 PUSH1 0x1 PUSH1 0xA0 SHL SUB NOT SWAP1 DUP2 AND PUSH1 0x1 PUSH1 0x1 PUSH1 0xA0 SHL SUB SWAP4 DUP5 AND OR SWAP1 SWAP2 SSTORE SWAP4 DUP6 ADD MLOAD DUP3 DUP5 ADD DUP1 SLOAD SWAP6 DUP7 AND SWAP2 SWAP1 SWAP3 AND SWAP1 DUP2 OR DUP3 SSTORE PUSH1 0x60 DUP7 ADD MLOAD SWAP3 SWAP5 SWAP3 SWAP4 SWAP2 SWAP3 PUSH1 0x1 PUSH1 0x1 PUSH1 0xA8 SHL SUB NOT AND OR SWAP1 PUSH1 0x1 PUSH1 0xA0 SHL SWAP1 DUP5 SWAP1 DUP2 GT ISZERO PUSH2 0xB98 JUMPI PUSH2 0xB98 PUSH2 0x1265 JUMP JUMPDEST MUL OR SWAP1 SSTORE POP POP POP PUSH1 0x0 DUP4 DUP2 MSTORE PUSH1 0x1 PUSH1 0x20 DUP2 SWAP1 MSTORE PUSH1 0x40 DUP1 DUP4 KECCAK256 SWAP3 DUP4 SSTORE SWAP1 DUP3 ADD DUP1 SLOAD PUSH1 0x1 PUSH1 0x1 PUSH1 0xA0 SHL SUB NOT AND SWAP1 SSTORE PUSH1 0x2 SWAP1 SWAP2 ADD DUP1 SLOAD PUSH1 0x1 PUSH1 0x1 PUSH1 0xB8 SHL SUB NOT AND SWAP1 SSTORE MLOAD DUP4 SWAP1 PUSH32 0xFD1F3406EFF89038AA3E1A745ADC3FD2EC1486FFF790D45A9FF8AFC495FDE8BD SWAP1 PUSH2 0xC07 SWAP1 DUP6 SWAP1 PUSH2 0x127B JUMP JUMPDEST PUSH1 0x40 MLOAD DUP1 SWAP2 SUB SWAP1 LOG2 POP POP POP JUMP JUMPDEST PUSH2 0xC1C PUSH2 0xFD5 JUMP JUMPDEST DUP2 PUSH2 0xC26 DUP2 PUSH2 0x1052 JUMP JUMPDEST DUP1 ISZERO PUSH2 0xC38 JUMPI POP PUSH2 0xC36 DUP2 PUSH2 0x1073 JUMP JUMPDEST ISZERO JUMPDEST PUSH2 0xC54 JUMPI PUSH1 0x40 MLOAD PUSH3 0x461BCD PUSH1 0xE5 SHL DUP2 MSTORE PUSH1 0x4 ADD PUSH2 0xD3 SWAP1 PUSH2 0x1204 JUMP JUMPDEST PUSH1 0x0 DUP4 DUP2 MSTORE PUSH1 0x1 PUSH1 0x20 MSTORE PUSH1 0x40 SWAP1 KECCAK256 PUSH1 0x2 ADD SLOAD PUSH1 0x1 PUSH1 0xA0 SHL SWAP1 DIV PUSH1 0xFF AND ISZERO PUSH2 0xCBD JUMPI PUSH1 0x40 MLOAD PUSH3 0x461BCD PUSH1 0xE5 SHL DUP2 MSTORE PUSH1 0x20 PUSH1 0x4 DUP3 ADD MSTORE PUSH1 0x1E PUSH1 0x24 DUP3 ADD MSTORE PUSH32 0x546861742067616D652068617320616C726561647920737461727465642E0000 PUSH1 0x44 DUP3 ADD MSTORE PUSH1 0x64 ADD PUSH2 0xD3 JUMP JUMPDEST PUSH1 0x0 DUP4 DUP2 MSTORE PUSH1 0x1 PUSH1 0x20 MSTORE PUSH1 0x40 SWAP1 KECCAK256 PUSH1 0x2 ADD SLOAD PUSH1 0x1 PUSH1 0x1 PUSH1 0xA0 SHL SUB AND ISZERO PUSH2 0xD25 JUMPI PUSH1 0x40 MLOAD PUSH3 0x461BCD PUSH1 0xE5 SHL DUP2 MSTORE PUSH1 0x20 PUSH1 0x4 DUP3 ADD MSTORE PUSH1 0x1A PUSH1 0x24 DUP3 ADD MSTORE PUSH32 0x506C617965723220616C7265616479207370656369666965642E000000000000 PUSH1 0x44 DUP3 ADD MSTORE PUSH1 0x64 ADD PUSH2 0xD3 JUMP JUMPDEST PUSH1 0x0 DUP4 DUP2 MSTORE PUSH1 0x1 PUSH1 0x20 DUP2 SWAP1 MSTORE PUSH1 0x40 SWAP1 SWAP2 KECCAK256 ADD SLOAD PUSH1 0x1 PUSH1 0x1 PUSH1 0xA0 SHL SUB DUP1 DUP5 AND SWAP2 AND SUB PUSH2 0xDA9 JUMPI PUSH1 0x40 MLOAD PUSH3 0x461BCD PUSH1 0xE5 SHL DUP2 MSTORE PUSH1 0x20 PUSH1 0x4 DUP3 ADD MSTORE PUSH1 0x2E PUSH1 0x24 DUP3 ADD MSTORE PUSH32 0x54686174206164647265737320697320616C7265616479207265676973746572 PUSH1 0x44 DUP3 ADD MSTORE PUSH14 0x32B21030B990383630BCB2B91897 PUSH1 0x91 SHL PUSH1 0x64 DUP3 ADD MSTORE PUSH1 0x84 ADD PUSH2 0xD3 JUMP JUMPDEST PUSH1 0x0 DUP4 DUP2 MSTORE PUSH1 0x1 PUSH1 0x20 MSTORE PUSH1 0x40 DUP1 DUP3 KECCAK256 PUSH1 0x2 ADD DUP1 SLOAD PUSH1 0x1 PUSH1 0x1 PUSH1 0xA0 SHL SUB NOT AND PUSH1 0x1 PUSH1 0x1 PUSH1 0xA0 SHL SUB DUP7 AND SWAP1 DUP2 OR SWAP1 SWAP2 SSTORE SWAP1 MLOAD SWAP1 SWAP2 DUP6 SWAP2 PUSH32 0x719256502A190A7B4EFBCA7F56497055F1DCCC51E2DCA31D166DD41353FA21C2 SWAP2 SWAP1 LOG3 POP POP POP JUMP JUMPDEST PUSH2 0xE0E PUSH2 0xFD5 JUMP JUMPDEST PUSH1 0x0 DUP5 DUP5 PUSH1 0x40 MLOAD PUSH1 0x20 ADD PUSH2 0xE23 SWAP3 SWAP2 SWAP1 PUSH2 0x12A3 JUMP JUMPDEST PUSH1 0x40 MLOAD PUSH1 0x20 DUP2 DUP4 SUB SUB DUP2 MSTORE SWAP1 PUSH1 0x40 MSTORE DUP1 MLOAD SWAP1 PUSH1 0x20 ADD KECCAK256 SWAP1 POP PUSH2 0xE44 DUP2 PUSH2 0x1052 JUMP JUMPDEST ISZERO DUP1 ISZERO PUSH2 0xE57 JUMPI POP PUSH2 0xE55 DUP2 PUSH2 0x1073 JUMP JUMPDEST ISZERO JUMPDEST PUSH2 0xE9B JUMPI PUSH1 0x40 MLOAD PUSH3 0x461BCD PUSH1 0xE5 SHL DUP2 MSTORE PUSH1 0x20 PUSH1 0x4 DUP3 ADD MSTORE PUSH1 0x15 PUSH1 0x24 DUP3 ADD MSTORE PUSH21 0x23B0B6B2A4B21030B63932B0B23C903A30B5B2B717 PUSH1 0x59 SHL PUSH1 0x44 DUP3 ADD MSTORE PUSH1 0x64 ADD PUSH2 0xD3 JUMP JUMPDEST PUSH1 0x40 DUP1 MLOAD PUSH1 0xC0 DUP2 ADD DUP3 MSTORE DUP4 DUP2 MSTORE PUSH1 0x1 PUSH1 0x1 PUSH1 0xA0 SHL SUB DUP6 DUP2 AND PUSH1 0x20 DUP1 DUP5 ADD DUP3 DUP2 MSTORE PUSH1 0x0 DUP6 DUP8 ADD DUP2 DUP2 MSTORE PUSH1 0x60 DUP8 ADD DUP3 DUP2 MSTORE PUSH1 0x80 DUP9 ADD DUP4 DUP2 MSTORE PUSH1 0xA0 DUP10 ADD DUP5 DUP2 MSTORE DUP12 DUP6 MSTORE PUSH1 0x1 DUP1 DUP9 MSTORE SWAP5 DUP12 SWAP1 KECCAK256 SWAP10 MLOAD DUP11 SSTORE SWAP5 MLOAD SWAP4 DUP10 ADD DUP1 SLOAD PUSH1 0x1 PUSH1 0x1 PUSH1 0xA0 SHL SUB NOT AND SWAP5 DUP10 AND SWAP5 SWAP1 SWAP5 OR SWAP1 SWAP4 SSTORE SWAP1 MLOAD PUSH1 0x2 SWAP1 SWAP8 ADD DUP1 SLOAD SWAP2 MLOAD SWAP3 MLOAD SWAP4 MLOAD SWAP8 SWAP1 SWAP7 AND PUSH1 0x1 PUSH1 0x1 PUSH1 0xA8 SHL SUB NOT SWAP1 SWAP2 AND OR PUSH1 0x1 PUSH1 0xA0 SHL SWAP2 ISZERO ISZERO SWAP2 SWAP1 SWAP2 MUL OR PUSH2 0xFFFF PUSH1 0xA8 SHL NOT AND PUSH1 0x1 PUSH1 0xA8 SHL SWAP2 ISZERO ISZERO SWAP2 SWAP1 SWAP2 MUL PUSH1 0xFF PUSH1 0xB0 SHL NOT AND OR PUSH1 0x1 PUSH1 0xB0 SHL SWAP5 ISZERO ISZERO SWAP5 SWAP1 SWAP5 MUL SWAP4 SWAP1 SWAP4 OR SWAP1 SWAP2 SSTORE SWAP2 MLOAD DUP5 DUP2 MSTORE DUP4 SWAP2 PUSH31 0x6379582CF33F082958411B512C6D1B9888095DE98BC1F9532E3F165336152 SWAP2 ADD PUSH1 0x40 MLOAD DUP1 SWAP2 SUB SWAP1 LOG3 POP POP POP POP POP JUMP JUMPDEST PUSH2 0xF9F PUSH2 0xFD5 JUMP JUMPDEST PUSH1 0x1 PUSH1 0x1 PUSH1 0xA0 SHL SUB DUP2 AND PUSH2 0xFC9 JUMPI PUSH1 0x40 MLOAD PUSH4 0x1E4FBDF7 PUSH1 0xE0 SHL DUP2 MSTORE PUSH1 0x0 PUSH1 0x4 DUP3 ADD MSTORE PUSH1 0x24 ADD PUSH2 0xD3 JUMP JUMPDEST PUSH2 0xFD2 DUP2 PUSH2 0x1002 JUMP JUMPDEST POP JUMP JUMPDEST PUSH1 0x0 SLOAD PUSH1 0x1 PUSH1 0x1 PUSH1 0xA0 SHL SUB AND CALLER EQ PUSH2 0x2FD JUMPI PUSH1 0x40 MLOAD PUSH4 0x118CDAA7 PUSH1 0xE0 SHL DUP2 MSTORE CALLER PUSH1 0x4 DUP3 ADD MSTORE PUSH1 0x24 ADD PUSH2 0xD3 JUMP JUMPDEST PUSH1 0x0 DUP1 SLOAD PUSH1 0x1 PUSH1 0x1 PUSH1 0xA0 SHL SUB DUP4 DUP2 AND PUSH1 0x1 PUSH1 0x1 PUSH1 0xA0 SHL SUB NOT DUP4 AND DUP2 OR DUP5 SSTORE PUSH1 0x40 MLOAD SWAP2 SWAP1 SWAP3 AND SWAP3 DUP4 SWAP2 PUSH32 0x8BE0079C531659141344CD1FD0A4F28419497F9722A3DAAFE3B4186F6B6457E0 SWAP2 SWAP1 LOG3 POP POP JUMP JUMPDEST PUSH1 0x0 SWAP1 DUP2 MSTORE PUSH1 0x1 PUSH1 0x20 DUP2 SWAP1 MSTORE PUSH1 0x40 SWAP1 SWAP2 KECCAK256 ADD SLOAD PUSH1 0x1 PUSH1 0x1 PUSH1 0xA0 SHL SUB AND ISZERO ISZERO SWAP1 JUMP JUMPDEST PUSH1 0x0 SWAP1 DUP2 MSTORE PUSH1 0x2 PUSH1 0x20 MSTORE PUSH1 0x40 SWAP1 KECCAK256 PUSH1 0x1 ADD SLOAD PUSH1 0x1 PUSH1 0x1 PUSH1 0xA0 SHL SUB AND ISZERO ISZERO SWAP1 JUMP JUMPDEST PUSH1 0x0 PUSH1 0x20 DUP3 DUP5 SUB SLT ISZERO PUSH2 0x10A5 JUMPI PUSH1 0x0 DUP1 REVERT JUMPDEST POP CALLDATALOAD SWAP2 SWAP1 POP JUMP JUMPDEST PUSH1 0x0 DUP1 PUSH1 0x40 DUP4 DUP6 SUB SLT ISZERO PUSH2 0x10BF JUMPI PUSH1 0x0 DUP1 REVERT JUMPDEST DUP3 CALLDATALOAD SWAP2 POP PUSH1 0x20 DUP4 ADD CALLDATALOAD PUSH1 0x3 DUP2 LT PUSH2 0x10D5 JUMPI PUSH1 0x0 DUP1 REVERT JUMPDEST DUP1 SWAP2 POP POP SWAP3 POP SWAP3 SWAP1 POP JUMP JUMPDEST DUP1 CALLDATALOAD PUSH1 0x1 PUSH1 0x1 PUSH1 0xA0 SHL SUB DUP2 AND DUP2 EQ PUSH2 0x10F7 JUMPI PUSH1 0x0 DUP1 REVERT JUMPDEST SWAP2 SWAP1 POP JUMP JUMPDEST PUSH1 0x0 DUP1 PUSH1 0x40 DUP4 DUP6 SUB SLT ISZERO PUSH2 0x110F JUMPI PUSH1 0x0 DUP1 REVERT JUMPDEST DUP3 CALLDATALOAD SWAP2 POP PUSH2 0x111F PUSH1 0x20 DUP5 ADD PUSH2 0x10E0 JUMP JUMPDEST SWAP1 POP SWAP3 POP SWAP3 SWAP1 POP JUMP JUMPDEST PUSH1 0x0 DUP1 PUSH1 0x0 DUP1 PUSH1 0x60 DUP6 DUP8 SUB SLT ISZERO PUSH2 0x113E JUMPI PUSH1 0x0 DUP1 REVERT JUMPDEST DUP5 CALLDATALOAD PUSH8 0xFFFFFFFFFFFFFFFF DUP2 GT ISZERO PUSH2 0x1155 JUMPI PUSH1 0x0 DUP1 REVERT JUMPDEST DUP6 ADD PUSH1 0x1F DUP2 ADD DUP8 SGT PUSH2 0x1166 JUMPI PUSH1 0x0 DUP1 REVERT JUMPDEST DUP1 CALLDATALOAD PUSH8 0xFFFFFFFFFFFFFFFF DUP2 GT ISZERO PUSH2 0x117D JUMPI PUSH1 0x0 DUP1 REVERT JUMPDEST DUP8 PUSH1 0x20 DUP3 DUP5 ADD ADD GT ISZERO PUSH2 0x118F JUMPI PUSH1 0x0 DUP1 REVERT JUMPDEST PUSH1 0x20 SWAP2 DUP3 ADD SWAP6 POP SWAP4 POP PUSH2 0x11A3 SWAP1 DUP7 ADD PUSH2 0x10E0 JUMP JUMPDEST SWAP4 SWAP7 SWAP3 SWAP6 POP SWAP3 SWAP4 PUSH1 0x40 ADD CALLDATALOAD SWAP3 POP POP JUMP JUMPDEST PUSH1 0x0 PUSH1 0x20 DUP3 DUP5 SUB SLT ISZERO PUSH2 0x11C5 JUMPI PUSH1 0x0 DUP1 REVERT JUMPDEST PUSH2 0x11CE DUP3 PUSH2 0x10E0 JUMP JUMPDEST SWAP4 SWAP3 POP POP POP JUMP JUMPDEST PUSH4 0x4E487B71 PUSH1 0xE0 SHL PUSH1 0x0 MSTORE PUSH1 0x11 PUSH1 0x4 MSTORE PUSH1 0x24 PUSH1 0x0 REVERT JUMPDEST DUP2 DUP2 SUB DUP2 DUP2 GT ISZERO PUSH2 0x11FE JUMPI PUSH2 0x11FE PUSH2 0x11D5 JUMP JUMPDEST SWAP3 SWAP2 POP POP JUMP JUMPDEST PUSH1 0x20 DUP1 DUP3 MSTORE PUSH1 0x2E SWAP1 DUP3 ADD MSTORE PUSH32 0x47616D6520656974686572206E6F7420696E69746961746564206F7220616C72 PUSH1 0x40 DUP3 ADD MSTORE PUSH14 0x32B0B23C903334B734B9B432B217 PUSH1 0x91 SHL PUSH1 0x60 DUP3 ADD MSTORE PUSH1 0x80 ADD SWAP1 JUMP JUMPDEST DUP1 DUP3 ADD DUP1 DUP3 GT ISZERO PUSH2 0x11FE JUMPI PUSH2 0x11FE PUSH2 0x11D5 JUMP JUMPDEST PUSH4 0x4E487B71 PUSH1 0xE0 SHL PUSH1 0x0 MSTORE PUSH1 0x21 PUSH1 0x4 MSTORE PUSH1 0x24 PUSH1 0x0 REVERT JUMPDEST PUSH1 0x20 DUP2 ADD PUSH1 0x3 DUP4 LT PUSH2 0x129D JUMPI PUSH4 0x4E487B71 PUSH1 0xE0 SHL PUSH1 0x0 MSTORE PUSH1 0x21 PUSH1 0x4 MSTORE PUSH1 0x24 PUSH1 0x0 REVERT JUMPDEST SWAP2 SWAP1 MSTORE SWAP1 JUMP JUMPDEST DUP2 DUP4 DUP3 CALLDATACOPY PUSH1 0x0 SWAP2 ADD SWAP1 DUP2 MSTORE SWAP2 SWAP1 POP JUMP INVALID LOG2 PUSH5 0x6970667358 0x22 SLT KECCAK256 0xD8 PUSH5 0x658039547F SWAP15 MUL 0x26 0xAA ADD 0xAF 0x4C CREATE2 0x25 SGT 0xF9 0xBB SLT 0xE4 0xEB SWAP10 0xB1 PUSH7 0xA4D2A5E8F7FA0C PUSH5 0x736F6C6343 STOP ADDMOD SHR STOP CALLER "},"gasEstimates":{"creation":{"codeDepositCost":"968200","executionCost":"26871","totalCost":"995071"},"external":{"cancelPendingGame(bytes32)":"94695","createPendingGame(string,address,uint256)":"infinite","depositBetAmount(bytes32)":"infinite","endGame(bytes32,uint8)":"192559","joinGame(bytes32,address)":"39566","owner()":"2337","renounceOwnership()":"infinite","transferOwnership(address)":"28421","withdrawStakes(uint256)":"infinite"},"internal":{"isGameFinished(bytes32)":"2217","isGameInitiated(bytes32)":"2223"}},"methodIdentifiers":{"cancelPendingGame(bytes32)":"b49df3b9","createPendingGame(string,address,uint256)":"d7520687","depositBetAmount(bytes32)":"a5dd9f37","endGame(bytes32,uint8)":"c0263b26","joinGame(bytes32,address)":"d059f799","owner()":"8da5cb5b","renounceOwnership()":"715018a6","transferOwnership(address)":"f2fde38b","withdrawStakes(uint256)":"410390ec"}},"storageLayout":{"storage":[{"astId":8,"contract":"contracts/ORTBet.sol:ORTBet","label":"_owner","offset":0,"slot":"0","type":"t_address"},{"astId":187,"contract":"contracts/ORTBet.sol:ORTBet","label":"games","offset":0,"slot":"1","type":"t_mapping(t_bytes32,t_struct(Game)788_storage)"},{"astId":192,"contract":"contracts/ORTBet.sol:ORTBet","label":"finishedGames","offset":0,"slot":"2","type":"t_mapping(t_bytes32,t_struct(FinishedGame)798_storage)"},{"astId":196,"contract":"contracts/ORTBet.sol:ORTBet","label":"userStakes","offset":0,"slot":"3","type":"t_mapping(t_address,t_uint256)"}],"types":{"t_address":{"encoding":"inplace","label":"address","numberOfBytes":"20"},"t_bool":{"encoding":"inplace","label":"bool","numberOfBytes":"1"},"t_bytes32":{"encoding":"inplace","label":"bytes32","numberOfBytes":"32"},"t_enum(GameResult)775":{"encoding":"inplace","label":"enum ORTBet.GameResult","numberOfBytes":"1"},"t_mapping(t_address,t_uint256)":{"encoding":"mapping","key":"t_address","label":"mapping(address => uint256)","numberOfBytes":"32","value":"t_uint256"},"t_mapping(t_bytes32,t_struct(FinishedGame)798_storage)":{"encoding":"mapping","key":"t_bytes32","label":"mapping(bytes32 => struct ORTBet.FinishedGame)","numberOfBytes":"32","value":"t_struct(FinishedGame)798_storage"},"t_mapping(t_bytes32,t_struct(Game)788_storage)":{"encoding":"mapping","key":"t_bytes32","label":"mapping(bytes32 => struct ORTBet.Game)","numberOfBytes":"32","value":"t_struct(Game)788_storage"},"t_struct(FinishedGame)798_storage":{"encoding":"inplace","label":"struct ORTBet.FinishedGame","members":[{"astId":790,"contract":"contracts/ORTBet.sol:ORTBet","label":"betAmount","offset":0,"slot":"0","type":"t_uint256"},{"astId":792,"contract":"contracts/ORTBet.sol:ORTBet","label":"player1Address","offset":0,"slot":"1","type":"t_address"},{"astId":794,"contract":"contracts/ORTBet.sol:ORTBet","label":"player2Address","offset":0,"slot":"2","type":"t_address"},{"astId":797,"contract":"contracts/ORTBet.sol:ORTBet","label":"result","offset":20,"slot":"2","type":"t_enum(GameResult)775"}],"numberOfBytes":"96"},"t_struct(Game)788_storage":{"encoding":"inplace","label":"struct ORTBet.Game","members":[{"astId":777,"contract":"contracts/ORTBet.sol:ORTBet","label":"betAmount","offset":0,"slot":"0","type":"t_uint256"},{"astId":779,"contract":"contracts/ORTBet.sol:ORTBet","label":"player1Address","offset":0,"slot":"1","type":"t_address"},{"astId":781,"contract":"contracts/ORTBet.sol:ORTBet","label":"player2Address","offset":0,"slot":"2","type":"t_address"},{"astId":783,"contract":"contracts/ORTBet.sol:ORTBet","label":"started","offset":20,"slot":"2","type":"t_bool"},{"astId":785,"contract":"contracts/ORTBet.sol:ORTBet","label":"player1Paid","offset":21,"slot":"2","type":"t_bool"},{"astId":787,"contract":"contracts/ORTBet.sol:ORTBet","label":"player2Paid","offset":22,"slot":"2","type":"t_bool"}],"numberOfBytes":"96"},"t_uint256":{"encoding":"inplace","label":"uint256","numberOfBytes":"32"}}},"userdoc":{"kind":"user","methods":{},"version":1}}}}