{"contracts/ORTBet.sol":{"ORTBet":{"abi":[{"inputs":[],"stateMutability":"nonpayable","type":"constructor"},{"inputs":[{"internalType":"address","name":"owner","type":"address"}],"name":"OwnableInvalidOwner","type":"error"},{"inputs":[{"internalType":"address","name":"account","type":"address"}],"name":"OwnableUnauthorizedAccount","type":"error"},{"anonymous":false,"inputs":[{"indexed":true,"internalType":"address","name":"backupAddress","type":"address"},{"indexed":true,"internalType":"address","name":"owner","type":"address"}],"name":"BackupAddressAdded","type":"event"},{"anonymous":false,"inputs":[{"indexed":true,"internalType":"address","name":"backupAddress","type":"address"},{"indexed":true,"internalType":"address","name":"owner","type":"address"}],"name":"BackupAddressRemoved","type":"event"},{"anonymous":false,"inputs":[{"indexed":true,"internalType":"address","name":"owner","type":"address"},{"indexed":false,"internalType":"uint256","name":"amount","type":"uint256"}],"name":"FeesWithdrawn","type":"event"},{"anonymous":false,"inputs":[{"indexed":true,"internalType":"bytes32","name":"gameId","type":"bytes32"},{"indexed":false,"internalType":"enum ORTBet.GameResult","name":"result","type":"uint8"}],"name":"GameResolved","type":"event"},{"anonymous":false,"inputs":[{"indexed":true,"internalType":"bytes32","name":"gameId","type":"bytes32"},{"indexed":true,"internalType":"address","name":"player1","type":"address"},{"indexed":true,"internalType":"address","name":"player2","type":"address"},{"indexed":false,"internalType":"uint256","name":"stakeAmount","type":"uint256"}],"name":"GameStarted","type":"event"},{"anonymous":false,"inputs":[{"indexed":true,"internalType":"address","name":"previousOwner","type":"address"},{"indexed":true,"internalType":"address","name":"newOwner","type":"address"}],"name":"OwnershipTransferred","type":"event"},{"anonymous":false,"inputs":[{"indexed":true,"internalType":"address","name":"player","type":"address"},{"indexed":true,"internalType":"address","name":"depositAddress","type":"address"},{"indexed":false,"internalType":"uint256","name":"amount","type":"uint256"}],"name":"StakesDeposited","type":"event"},{"anonymous":false,"inputs":[{"indexed":true,"internalType":"address","name":"player","type":"address"},{"indexed":false,"internalType":"uint256","name":"amount","type":"uint256"}],"name":"StakesLocked","type":"event"},{"anonymous":false,"inputs":[{"indexed":true,"internalType":"address","name":"player","type":"address"},{"indexed":false,"internalType":"uint256","name":"amount","type":"uint256"}],"name":"StakesUnlocked","type":"event"},{"anonymous":false,"inputs":[{"indexed":true,"internalType":"address","name":"player","type":"address"},{"indexed":true,"internalType":"address","name":"withdrawalAddress","type":"address"},{"indexed":false,"internalType":"uint256","name":"amount","type":"uint256"}],"name":"StakesWithdrawn","type":"event"},{"stateMutability":"payable","type":"fallback"},{"inputs":[{"internalType":"address","name":"_backupAddress","type":"address"}],"name":"addBackupAddress","outputs":[],"stateMutability":"nonpayable","type":"function"},{"inputs":[{"internalType":"address","name":"","type":"address"},{"internalType":"uint256","name":"","type":"uint256"}],"name":"backupAddresses","outputs":[{"internalType":"address","name":"","type":"address"}],"stateMutability":"view","type":"function"},{"inputs":[{"internalType":"uint256","name":"_amount","type":"uint256"}],"name":"calculateFee","outputs":[{"internalType":"uint256","name":"","type":"uint256"}],"stateMutability":"pure","type":"function"},{"inputs":[],"name":"depositStakes","outputs":[],"stateMutability":"payable","type":"function"},{"inputs":[{"internalType":"address","name":"_mainAddress","type":"address"}],"name":"depositStakes","outputs":[],"stateMutability":"payable","type":"function"},{"inputs":[],"name":"feePercentage","outputs":[{"internalType":"uint256","name":"","type":"uint256"}],"stateMutability":"view","type":"function"},{"inputs":[],"name":"feesCollected","outputs":[{"internalType":"uint256","name":"","type":"uint256"}],"stateMutability":"view","type":"function"},{"inputs":[{"internalType":"bytes32","name":"","type":"bytes32"}],"name":"games","outputs":[{"internalType":"address","name":"player1","type":"address"},{"internalType":"address","name":"player2","type":"address"},{"internalType":"uint256","name":"stakeAmount","type":"uint256"},{"internalType":"bool","name":"ongoing","type":"bool"}],"stateMutability":"view","type":"function"},{"inputs":[{"internalType":"address","name":"_mainAddress","type":"address"}],"name":"getBackupAddresses","outputs":[{"internalType":"address[]","name":"","type":"address[]"}],"stateMutability":"view","type":"function"},{"inputs":[{"internalType":"address","name":"_userAddress","type":"address"}],"name":"getBalance","outputs":[{"internalType":"uint256","name":"","type":"uint256"}],"stateMutability":"view","type":"function"},{"inputs":[{"internalType":"bytes32","name":"_gameId","type":"bytes32"}],"name":"getGame","outputs":[{"components":[{"internalType":"address","name":"player1","type":"address"},{"internalType":"address","name":"player2","type":"address"},{"internalType":"uint256","name":"stakeAmount","type":"uint256"},{"internalType":"bool","name":"ongoing","type":"bool"}],"internalType":"struct ORTBet.Game","name":"","type":"tuple"}],"stateMutability":"view","type":"function"},{"inputs":[{"internalType":"address","name":"_userAddress","type":"address"}],"name":"getLockedStake","outputs":[{"internalType":"uint256","name":"","type":"uint256"}],"stateMutability":"view","type":"function"},{"inputs":[{"internalType":"address","name":"","type":"address"}],"name":"lockedStakes","outputs":[{"internalType":"uint256","name":"","type":"uint256"}],"stateMutability":"view","type":"function"},{"inputs":[],"name":"maxBackupAddresses","outputs":[{"internalType":"uint256","name":"","type":"uint256"}],"stateMutability":"view","type":"function"},{"inputs":[],"name":"owner","outputs":[{"internalType":"address","name":"","type":"address"}],"stateMutability":"view","type":"function"},{"inputs":[{"internalType":"address","name":"_backupAddress","type":"address"}],"name":"removeBackupAddress","outputs":[],"stateMutability":"nonpayable","type":"function"},{"inputs":[],"name":"renounceOwnership","outputs":[],"stateMutability":"nonpayable","type":"function"},{"inputs":[{"internalType":"bytes32","name":"_gameId","type":"bytes32"},{"internalType":"enum ORTBet.GameResult","name":"_result","type":"uint8"}],"name":"resolveGame","outputs":[],"stateMutability":"nonpayable","type":"function"},{"inputs":[{"internalType":"string","name":"_gameId","type":"string"},{"internalType":"address","name":"_player1","type":"address"},{"internalType":"address","name":"_player2","type":"address"},{"internalType":"uint256","name":"_stakeAmount","type":"uint256"}],"name":"startGame","outputs":[],"stateMutability":"nonpayable","type":"function"},{"inputs":[{"internalType":"address","name":"newOwner","type":"address"}],"name":"transferOwnership","outputs":[],"stateMutability":"nonpayable","type":"function"},{"inputs":[{"internalType":"address","name":"","type":"address"}],"name":"userBalances","outputs":[{"internalType":"uint256","name":"","type":"uint256"}],"stateMutability":"view","type":"function"},{"inputs":[{"internalType":"uint256","name":"_amount","type":"uint256"}],"name":"withdrawFees","outputs":[],"stateMutability":"nonpayable","type":"function"},{"inputs":[{"internalType":"uint256","name":"_amount","type":"uint256"}],"name":"withdrawStakes","outputs":[],"stateMutability":"nonpayable","type":"function"},{"inputs":[{"internalType":"uint256","name":"_amount","type":"uint256"},{"internalType":"address","name":"_mainAddress","type":"address"}],"name":"withdrawStakes","outputs":[],"stateMutability":"nonpayable","type":"function"},{"stateMutability":"payable","type":"receive"}],"devdoc":{"errors":{"OwnableInvalidOwner(address)":[{"details":"The owner is not a valid owner account. (eg. `address(0)`)"}],"OwnableUnauthorizedAccount(address)":[{"details":"The caller account is not authorized to perform an operation."}]},"kind":"dev","methods":{"owner()":{"details":"Returns the address of the current owner."},"renounceOwnership()":{"details":"Leaves the contract without owner. It will not be possible to call `onlyOwner` functions. Can only be called by the current owner. NOTE: Renouncing ownership will leave the contract without an owner, thereby disabling any functionality that is only available to the owner."},"transferOwnership(address)":{"details":"Transfers ownership of the contract to a new account (`newOwner`). Can only be called by the current owner."}},"version":1},"evm":{"bytecode":{"linkReferences":{},"object":"6080604052348015600f57600080fd5b503380603557604051631e4fbdf760e01b81526000600482015260240160405180910390fd5b603c816041565b506091565b600080546001600160a01b038381166001600160a01b0319831681178455604051919092169283917f8be0079c531659141344cd1fd0a4f28419497f9722a3daafe3b4186f6b6457e09190a35050565b611e5d806100a06000396000f3fe60806040526004361061014f5760003560e01c806399a5d747116100b6578063d3856e551161006f578063d3856e55146104e7578063e703dd5414610507578063f071db5a14610527578063f2fde38b1461053d578063f579f8821461055d578063f8b2cb4f146105de576101a1565b806399a5d747146104495780639e2c63da14610469578063a001ecdd1461049f578063a105e149146104b4578063ae6ba4cc1461049f578063cfce8913146104c7576101a1565b80635aaccf69116101085780635aaccf69146102c05780635e318e07146102e0578063715018a61461030057806373931bbf146103155780638da5cb5b146103ea57806392417dc71461041c576101a1565b806308db7f85146101e95780632177457d1461020b57806326224c64146102135780632f78808c14610253578063410390ec146102735780634ac5c55914610293576101a1565b366101a15760405162461bcd60e51b815260206004820152601c60248201527f446972656374206465706f73697473206e6f7420616c6c6f7765642e0000000060448201526064015b60405180910390fd5b60405162461bcd60e51b815260206004820152601860248201527f46756e6374696f6e20646f6573206e6f742065786973742e00000000000000006044820152606401610198565b3480156101f557600080fd5b506102096102043660046119cc565b610614565b005b610209610808565b34801561021f57600080fd5b5061024061022e3660046119cc565b60016020526000908152604090205481565b6040519081526020015b60405180910390f35b34801561025f57600080fd5b5061020961026e3660046119ee565b610885565b34801561027f57600080fd5b5061020961028e366004611a8a565b610d0d565b34801561029f57600080fd5b506102b36102ae3660046119cc565b610e18565b60405161024a9190611aa3565b3480156102cc57600080fd5b506102096102db366004611aef565b610e8e565b3480156102ec57600080fd5b506102096102fb366004611a8a565b610ff6565b34801561030c57600080fd5b506102096110cd565b34801561032157600080fd5b506103a7610330366004611a8a565b60408051608081018252600080825260208201819052918101829052606081019190915250600090815260036020818152604092839020835160808101855281546001600160a01b0390811682526001830154169281019290925260028101549382019390935291015460ff161515606082015290565b60405161024a919081516001600160a01b039081168252602080840151909116908201526040808301519082015260609182015115159181019190915260800190565b3480156103f657600080fd5b506000546001600160a01b03165b6040516001600160a01b03909116815260200161024a565b34801561042857600080fd5b506102406104373660046119cc565b60026020526000908152604090205481565b34801561045557600080fd5b50610240610464366004611a8a565b6110e1565b34801561047557600080fd5b506102406104843660046119cc565b6001600160a01b031660009081526002602052604090205490565b3480156104ab57600080fd5b50610240600381565b6102096104c23660046119cc565b611100565b3480156104d357600080fd5b506102096104e23660046119cc565b6111d1565b3480156104f357600080fd5b50610404610502366004611b1b565b611397565b34801561051357600080fd5b50610209610522366004611b45565b6113cf565b34801561053357600080fd5b5061024060055481565b34801561054957600080fd5b506102096105583660046119cc565b61172b565b34801561056957600080fd5b506105b1610578366004611a8a565b600360208190526000918252604090912080546001820154600283015492909301546001600160a01b0391821693909116919060ff1684565b604080516001600160a01b039586168152949093166020850152918301521515606082015260800161024a565b3480156105ea57600080fd5b506102406105f93660046119cc565b6001600160a01b031660009081526001602052604090205490565b3360009081526004602052604090205460039081119061063390611769565b6040516020016106439190611b9d565b604051602081830303815290604052906106705760405162461bcd60e51b81526004016101989190611bf6565b506001600160a01b0381166106d65760405162461bcd60e51b815260206004820152602660248201527f4261636b757020616464726573732063616e6e6f74206265207a65726f206164604482015265323932b9b99760d11b6064820152608401610198565b336001600160a01b038216036107395760405162461bcd60e51b815260206004820152602260248201527f43616e6e6f74207365742073656c66206173206261636b757020616464726573604482015261399760f11b6064820152608401610198565b33600090815260046020526040902061075290826117fc565b1561079f5760405162461bcd60e51b815260206004820152601d60248201527f4261636b7570206164647265737320616c72656164792061646465642e0000006044820152606401610198565b336000818152600460209081526040808320805460018101825590845291832090910180546001600160a01b0319166001600160a01b038616908117909155905190917f183963c107e526b4dc8ae0c8b5b960da3bddd00ae79c713ba806a69ab06ab97191a350565b600034116108285760405162461bcd60e51b815260040161019890611c29565b3360009081526001602052604081208054349290610847908490611c85565b9091555050604051348152339081907f029b53808e5ee258b1acdd8061a270b641aaded1f730ef560687f44a98827bdc9060200160405180910390a3565b61088d61185b565b600085856040516020016108a2929190611c98565b60408051601f198184030181529181528151602092830120600081815260039093529120600201549091501561091a5760405162461bcd60e51b815260206004820152601760248201527f47616d6520494420616c7265616479206578697374732e0000000000000000006044820152606401610198565b6001600160a01b0384161580159061093a57506001600160a01b03831615155b6109865760405162461bcd60e51b815260206004820152601760248201527f496e76616c696420706c6179657220616464726573732e0000000000000000006044820152606401610198565b600082116109e25760405162461bcd60e51b8152602060048201526024808201527f5f7374616b65416d6f756e74206d7573742062652067726561746572207468616044820152633710181760e11b6064820152608401610198565b6001600160a01b038416600090815260016020526040902054821115610a4a5760405162461bcd60e51b815260206004820152601f60248201527f506c61796572312068617320696e73756666696369656e742066756e64732e006044820152606401610198565b6001600160a01b038316600090815260016020526040902054821115610ab25760405162461bcd60e51b815260206004820152601f60248201527f506c61796572322068617320696e73756666696369656e742066756e64732e006044820152606401610198565b60006002610abf846110e1565b610ac99190611ca8565b90506000610ad78285611cca565b6001600160a01b038716600090815260016020526040812080549293508392909190610b04908490611cca565b90915550506001600160a01b03851660009081526001602052604081208054839290610b31908490611cca565b90915550506001600160a01b03861660009081526002602052604081208054839290610b5e908490611c85565b90915550506001600160a01b03851660009081526002602052604081208054839290610b8b908490611c85565b90915550610b9c9050826002611cdd565b60056000828254610bad9190611c85565b9091555050604080516080810182526001600160a01b03808916808352888216602080850191825284860187815260016060870181815260008c8152600394859052899020975188549088166001600160a01b031991821617895594519188018054929097169190941617909455925160028501555192909101805492151560ff199093169290921790915590517f41375446217eacab943f69f43e90965cbed73a9648b36f7c1276c8e76bb67bad90610c6a9084815260200190565b60405180910390a2846001600160a01b03167f41375446217eacab943f69f43e90965cbed73a9648b36f7c1276c8e76bb67bad82604051610cad91815260200190565b60405180910390a2846001600160a01b0316866001600160a01b0316847fca5be7d622fe97529270450062762f9bac7e27828ef7b8658af85234f44146cd87604051610cfb91815260200190565b60405180910390a45050505050505050565b60008111610d2d5760405162461bcd60e51b815260040161019890611cf4565b33600090815260016020526040902054811115610d8c5760405162461bcd60e51b815260206004820152601f60248201527f496e73756666696369656e742066756e647320746f2077697468647261772e006044820152606401610198565b3360009081526001602052604081208054839290610dab908490611cca565b9091555050604051339082156108fc029083906000818181858888f19350505050158015610ddd573d6000803e3d6000fd5b50604051818152339081907f2ecb67032ef4329934be5b0b0c0b7277932396db57a18598adde8fcba3d920349060200160405180910390a350565b6001600160a01b038116600090815260046020908152604091829020805483518184028101840190945280845260609392830182828015610e8257602002820191906000526020600020905b81546001600160a01b03168152600190910190602001808311610e64575b50505050509050919050565b6001600160a01b03811660009081526004602052604090208190610eb290336117fc565b610ece5760405162461bcd60e51b815260040161019890611d3d565b60008311610eee5760405162461bcd60e51b815260040161019890611cf4565b6001600160a01b038216600090815260016020526040902054831115610f565760405162461bcd60e51b815260206004820152601f60248201527f496e73756666696369656e742066756e647320746f2077697468647261772e006044820152606401610198565b6001600160a01b03821660009081526001602052604081208054859290610f7e908490611cca565b9091555050604051339084156108fc029085906000818181858888f19350505050158015610fb0573d6000803e3d6000fd5b5060405183815233906001600160a01b038416907f2ecb67032ef4329934be5b0b0c0b7277932396db57a18598adde8fcba3d920349060200160405180910390a3505050565b610ffe61185b565b8060055410156110505760405162461bcd60e51b815260206004820152601c60248201527f496e73756666696369656e74206665657320636f6c6c65637465642e000000006044820152606401610198565b80600560008282546110629190611cca565b9091555050604051339082156108fc029083906000818181858888f19350505050158015611094573d6000803e3d6000fd5b5060405181815233907fc0819c13be868895eb93e40eaceb96de976442fa1d404e5c55f14bb65a8c489a9060200160405180910390a250565b6110d561185b565b6110df6000611888565b565b600060646110f0600384611cdd565b6110fa9190611ca8565b92915050565b6001600160a01b0381166000908152600460205260409020819061112490336117fc565b6111405760405162461bcd60e51b815260040161019890611d3d565b600034116111605760405162461bcd60e51b815260040161019890611c29565b6001600160a01b03821660009081526001602052604081208054349290611188908490611c85565b909155505060405134815233906001600160a01b038416907f029b53808e5ee258b1acdd8061a270b641aaded1f730ef560687f44a98827bdc9060200160405180910390a35050565b3360009081526004602052604090206111ea90826117fc565b61124e5760405162461bcd60e51b815260206004820152602f60248201527f4e6f7420617574686f72697a656420746f2072656d6f7665207468697320726560448201526e31b7bb32b93c9030b2323932b9b99760891b6064820152608401610198565b336000908152600460205260408120905b815481101561139257826001600160a01b031682828154811061128457611284611d87565b6000918252602090912001546001600160a01b03160361138a57815482906112ae90600190611cca565b815481106112be576112be611d87565b9060005260206000200160009054906101000a90046001600160a01b03168282815481106112ee576112ee611d87565b9060005260206000200160006101000a8154816001600160a01b0302191690836001600160a01b031602179055508180548061132c5761132c611d9d565b600082815260208120820160001990810180546001600160a01b031916905590910190915560405133916001600160a01b038616917ffe51b55ea38e48cc7fb184d0d60446a88610b80da472d30aa215a652276157449190a3505050565b60010161125f565b505050565b600460205281600052604060002081815481106113b357600080fd5b6000918252602090912001546001600160a01b03169150829050565b6113d761185b565b6000828152600360208190526040909120015460ff166114515760405162461bcd60e51b815260206004820152602f60248201527f47616d6520656974686572206e6f742063726561746564206f7220697320616c60448201526e3932b0b23c903334b734b9b432b21760891b6064820152608401610198565b600082815260036020908152604080832060028082015482546001600160a01b03168652935290832080549193909161148b908490611cca565b909155505060028082015460018301546001600160a01b03166000908152602092909252604082208054919290916114c4908490611cca565b90915550600190508260028111156114de576114de611db3565b03611564576002808201546114f291611cdd565b81546001600160a01b03166000908152600160205260408120805490919061151b908490611c85565b909155505080546002808301546001600160a01b0390921691600080516020611e088339815191529161154e9190611cdd565b60405190815260200160405180910390a26116e0565b600282600281111561157857611578611db3565b036115f05760028082015461158c91611cdd565b6001828101546001600160a01b031660009081526020919091526040812080549091906115ba908490611c85565b909155505060018101546002808301546001600160a01b0390921691600080516020611e088339815191529161154e9190611cdd565b600082600281111561160457611604611db3565b036116e057600281015481546001600160a01b031660009081526001602052604081208054909190611637908490611c85565b909155505060028101546001808301546001600160a01b0316600090815260209190915260408120805490919061166f908490611c85565b9091555050805460028201546040519081526001600160a01b0390911690600080516020611e088339815191529060200160405180910390a2600181015460028201546040519081526001600160a01b0390911690600080516020611e088339815191529060200160405180910390a25b60038101805460ff1916905560405183907f84084530ad38987aaa9b1454bf4cbc496558210efbfe8ec98c3a6879f4e9a38a9061171e908590611dc9565b60405180910390a2505050565b61173361185b565b6001600160a01b03811661175d57604051631e4fbdf760e01b815260006004820152602401610198565b61176681611888565b50565b60606000611776836118d8565b600101905060008167ffffffffffffffff81111561179657611796611df1565b6040519080825280601f01601f1916602001820160405280156117c0576020820181803683370190505b5090508181016020015b600019016f181899199a1a9b1b9c1cb0b131b232b360811b600a86061a8153600a85049450846117ca57509392505050565b6000805b835481101561185157826001600160a01b031684828154811061182557611825611d87565b6000918252602090912001546001600160a01b0316036118495760019150506110fa565b600101611800565b5060009392505050565b6000546001600160a01b031633146110df5760405163118cdaa760e01b8152336004820152602401610198565b600080546001600160a01b038381166001600160a01b0319831681178455604051919092169283917f8be0079c531659141344cd1fd0a4f28419497f9722a3daafe3b4186f6b6457e09190a35050565b60008072184f03e93ff9f4daa797ed6e38ed64bf6a1f0160401b83106119175772184f03e93ff9f4daa797ed6e38ed64bf6a1f0160401b830492506040015b6d04ee2d6d415b85acef81000000008310611943576d04ee2d6d415b85acef8100000000830492506020015b662386f26fc10000831061196157662386f26fc10000830492506010015b6305f5e1008310611979576305f5e100830492506008015b612710831061198d57612710830492506004015b6064831061199f576064830492506002015b600a83106110fa5760010192915050565b80356001600160a01b03811681146119c757600080fd5b919050565b6000602082840312156119de57600080fd5b6119e7826119b0565b9392505050565b600080600080600060808688031215611a0657600080fd5b853567ffffffffffffffff811115611a1d57600080fd5b8601601f81018813611a2e57600080fd5b803567ffffffffffffffff811115611a4557600080fd5b886020828401011115611a5757600080fd5b602091820196509450611a6b9087016119b0565b9250611a79604087016119b0565b949793965091946060013592915050565b600060208284031215611a9c57600080fd5b5035919050565b602080825282518282018190526000918401906040840190835b81811015611ae45783516001600160a01b0316835260209384019390920191600101611abd565b509095945050505050565b60008060408385031215611b0257600080fd5b82359150611b12602084016119b0565b90509250929050565b60008060408385031215611b2e57600080fd5b611b37836119b0565b946020939093013593505050565b60008060408385031215611b5857600080fd5b82359150602083013560038110611b6e57600080fd5b809150509250929050565b60005b83811015611b94578181015183820152602001611b7c565b50506000910152565b74021b0b73737ba1030b2321036b7b932903a3430b71605d1b815260008251611bcd816015850160208701611b79565b71103130b1b5bab81030b2323932b9b9b2b99760711b6015939091019283015250602701919050565b6020815260008251806020840152611c15816040850160208701611b79565b601f01601f19169190910160400192915050565b60208082526026908201527f4465706f73697420616d6f756e74206d757374206265206772656174657220746040820152653430b710181760d11b606082015260800190565b634e487b7160e01b600052601160045260246000fd5b808201808211156110fa576110fa611c6f565b8183823760009101908152919050565b600082611cc557634e487b7160e01b600052601260045260246000fd5b500490565b818103818111156110fa576110fa611c6f565b80820281158282048414176110fa576110fa611c6f565b60208082526029908201527f5769746864726177616c20616d6f756e74206d7573742062652067726561746560408201526839103a3430b710181760b91b606082015260800190565b6020808252602a908201527f43616c6c6572206973206e6f7420612072656769737465726564206261636b75604082015269381030b2323932b9b99760b11b606082015260800190565b634e487b7160e01b600052603260045260246000fd5b634e487b7160e01b600052603160045260246000fd5b634e487b7160e01b600052602160045260246000fd5b6020810160038310611deb57634e487b7160e01b600052602160045260246000fd5b91905290565b634e487b7160e01b600052604160045260246000fdfe68510e4a026e1e6eb57d0691a8904192605ae5f5c8c1e0c878bcfd8299f56132a2646970667358221220dc873dec30bf1f1638b9e647931d346f9d8abdafc5645608c162f15ab074fdfc64736f6c634300081c0033","opcodes":"PUSH1 0x80 PUSH1 0x40 MSTORE CALLVALUE DUP1 ISZERO PUSH1 0xF JUMPI PUSH1 0x0 DUP1 REVERT JUMPDEST POP CALLER DUP1 PUSH1 0x35 JUMPI PUSH1 0x40 MLOAD PUSH4 0x1E4FBDF7 PUSH1 0xE0 SHL DUP2 MSTORE PUSH1 0x0 PUSH1 0x4 DUP3 ADD MSTORE PUSH1 0x24 ADD PUSH1 0x40 MLOAD DUP1 SWAP2 SUB SWAP1 REVERT JUMPDEST PUSH1 0x3C DUP2 PUSH1 0x41 JUMP JUMPDEST POP PUSH1 0x91 JUMP JUMPDEST PUSH1 0x0 DUP1 SLOAD PUSH1 0x1 PUSH1 0x1 PUSH1 0xA0 SHL SUB DUP4 DUP2 AND PUSH1 0x1 PUSH1 0x1 PUSH1 0xA0 SHL SUB NOT DUP4 AND DUP2 OR DUP5 SSTORE PUSH1 0x40 MLOAD SWAP2 SWAP1 SWAP3 AND SWAP3 DUP4 SWAP2 PUSH32 0x8BE0079C531659141344CD1FD0A4F28419497F9722A3DAAFE3B4186F6B6457E0 SWAP2 SWAP1 LOG3 POP POP JUMP JUMPDEST PUSH2 0x1E5D DUP1 PUSH2 0xA0 PUSH1 0x0 CODECOPY PUSH1 0x0 RETURN INVALID PUSH1 0x80 PUSH1 0x40 MSTORE PUSH1 0x4 CALLDATASIZE LT PUSH2 0x14F JUMPI PUSH1 0x0 CALLDATALOAD PUSH1 0xE0 SHR DUP1 PUSH4 0x99A5D747 GT PUSH2 0xB6 JUMPI DUP1 PUSH4 0xD3856E55 GT PUSH2 0x6F JUMPI DUP1 PUSH4 0xD3856E55 EQ PUSH2 0x4E7 JUMPI DUP1 PUSH4 0xE703DD54 EQ PUSH2 0x507 JUMPI DUP1 PUSH4 0xF071DB5A EQ PUSH2 0x527 JUMPI DUP1 PUSH4 0xF2FDE38B EQ PUSH2 0x53D JUMPI DUP1 PUSH4 0xF579F882 EQ PUSH2 0x55D JUMPI DUP1 PUSH4 0xF8B2CB4F EQ PUSH2 0x5DE JUMPI PUSH2 0x1A1 JUMP JUMPDEST DUP1 PUSH4 0x99A5D747 EQ PUSH2 0x449 JUMPI DUP1 PUSH4 0x9E2C63DA EQ PUSH2 0x469 JUMPI DUP1 PUSH4 0xA001ECDD EQ PUSH2 0x49F JUMPI DUP1 PUSH4 0xA105E149 EQ PUSH2 0x4B4 JUMPI DUP1 PUSH4 0xAE6BA4CC EQ PUSH2 0x49F JUMPI DUP1 PUSH4 0xCFCE8913 EQ PUSH2 0x4C7 JUMPI PUSH2 0x1A1 JUMP JUMPDEST DUP1 PUSH4 0x5AACCF69 GT PUSH2 0x108 JUMPI DUP1 PUSH4 0x5AACCF69 EQ PUSH2 0x2C0 JUMPI DUP1 PUSH4 0x5E318E07 EQ PUSH2 0x2E0 JUMPI DUP1 PUSH4 0x715018A6 EQ PUSH2 0x300 JUMPI DUP1 PUSH4 0x73931BBF EQ PUSH2 0x315 JUMPI DUP1 PUSH4 0x8DA5CB5B EQ PUSH2 0x3EA JUMPI DUP1 PUSH4 0x92417DC7 EQ PUSH2 0x41C JUMPI PUSH2 0x1A1 JUMP JUMPDEST DUP1 PUSH4 0x8DB7F85 EQ PUSH2 0x1E9 JUMPI DUP1 PUSH4 0x2177457D EQ PUSH2 0x20B JUMPI DUP1 PUSH4 0x26224C64 EQ PUSH2 0x213 JUMPI DUP1 PUSH4 0x2F78808C EQ PUSH2 0x253 JUMPI DUP1 PUSH4 0x410390EC EQ PUSH2 0x273 JUMPI DUP1 PUSH4 0x4AC5C559 EQ PUSH2 0x293 JUMPI PUSH2 0x1A1 JUMP JUMPDEST CALLDATASIZE PUSH2 0x1A1 JUMPI PUSH1 0x40 MLOAD PUSH3 0x461BCD PUSH1 0xE5 SHL DUP2 MSTORE PUSH1 0x20 PUSH1 0x4 DUP3 ADD MSTORE PUSH1 0x1C PUSH1 0x24 DUP3 ADD MSTORE PUSH32 0x446972656374206465706F73697473206E6F7420616C6C6F7765642E00000000 PUSH1 0x44 DUP3 ADD MSTORE PUSH1 0x64 ADD JUMPDEST PUSH1 0x40 MLOAD DUP1 SWAP2 SUB SWAP1 REVERT JUMPDEST PUSH1 0x40 MLOAD PUSH3 0x461BCD PUSH1 0xE5 SHL DUP2 MSTORE PUSH1 0x20 PUSH1 0x4 DUP3 ADD MSTORE PUSH1 0x18 PUSH1 0x24 DUP3 ADD MSTORE PUSH32 0x46756E6374696F6E20646F6573206E6F742065786973742E0000000000000000 PUSH1 0x44 DUP3 ADD MSTORE PUSH1 0x64 ADD PUSH2 0x198 JUMP JUMPDEST CALLVALUE DUP1 ISZERO PUSH2 0x1F5 JUMPI PUSH1 0x0 DUP1 REVERT JUMPDEST POP PUSH2 0x209 PUSH2 0x204 CALLDATASIZE PUSH1 0x4 PUSH2 0x19CC JUMP JUMPDEST PUSH2 0x614 JUMP JUMPDEST STOP JUMPDEST PUSH2 0x209 PUSH2 0x808 JUMP JUMPDEST CALLVALUE DUP1 ISZERO PUSH2 0x21F JUMPI PUSH1 0x0 DUP1 REVERT JUMPDEST POP PUSH2 0x240 PUSH2 0x22E CALLDATASIZE PUSH1 0x4 PUSH2 0x19CC JUMP JUMPDEST PUSH1 0x1 PUSH1 0x20 MSTORE PUSH1 0x0 SWAP1 DUP2 MSTORE PUSH1 0x40 SWAP1 KECCAK256 SLOAD DUP2 JUMP JUMPDEST PUSH1 0x40 MLOAD SWAP1 DUP2 MSTORE PUSH1 0x20 ADD JUMPDEST PUSH1 0x40 MLOAD DUP1 SWAP2 SUB SWAP1 RETURN JUMPDEST CALLVALUE DUP1 ISZERO PUSH2 0x25F JUMPI PUSH1 0x0 DUP1 REVERT JUMPDEST POP PUSH2 0x209 PUSH2 0x26E CALLDATASIZE PUSH1 0x4 PUSH2 0x19EE JUMP JUMPDEST PUSH2 0x885 JUMP JUMPDEST CALLVALUE DUP1 ISZERO PUSH2 0x27F JUMPI PUSH1 0x0 DUP1 REVERT JUMPDEST POP PUSH2 0x209 PUSH2 0x28E CALLDATASIZE PUSH1 0x4 PUSH2 0x1A8A JUMP JUMPDEST PUSH2 0xD0D JUMP JUMPDEST CALLVALUE DUP1 ISZERO PUSH2 0x29F JUMPI PUSH1 0x0 DUP1 REVERT JUMPDEST POP PUSH2 0x2B3 PUSH2 0x2AE CALLDATASIZE PUSH1 0x4 PUSH2 0x19CC JUMP JUMPDEST PUSH2 0xE18 JUMP JUMPDEST PUSH1 0x40 MLOAD PUSH2 0x24A SWAP2 SWAP1 PUSH2 0x1AA3 JUMP JUMPDEST CALLVALUE DUP1 ISZERO PUSH2 0x2CC JUMPI PUSH1 0x0 DUP1 REVERT JUMPDEST POP PUSH2 0x209 PUSH2 0x2DB CALLDATASIZE PUSH1 0x4 PUSH2 0x1AEF JUMP JUMPDEST PUSH2 0xE8E JUMP JUMPDEST CALLVALUE DUP1 ISZERO PUSH2 0x2EC JUMPI PUSH1 0x0 DUP1 REVERT JUMPDEST POP PUSH2 0x209 PUSH2 0x2FB CALLDATASIZE PUSH1 0x4 PUSH2 0x1A8A JUMP JUMPDEST PUSH2 0xFF6 JUMP JUMPDEST CALLVALUE DUP1 ISZERO PUSH2 0x30C JUMPI PUSH1 0x0 DUP1 REVERT JUMPDEST POP PUSH2 0x209 PUSH2 0x10CD JUMP JUMPDEST CALLVALUE DUP1 ISZERO PUSH2 0x321 JUMPI PUSH1 0x0 DUP1 REVERT JUMPDEST POP PUSH2 0x3A7 PUSH2 0x330 CALLDATASIZE PUSH1 0x4 PUSH2 0x1A8A JUMP JUMPDEST PUSH1 0x40 DUP1 MLOAD PUSH1 0x80 DUP2 ADD DUP3 MSTORE PUSH1 0x0 DUP1 DUP3 MSTORE PUSH1 0x20 DUP3 ADD DUP2 SWAP1 MSTORE SWAP2 DUP2 ADD DUP3 SWAP1 MSTORE PUSH1 0x60 DUP2 ADD SWAP2 SWAP1 SWAP2 MSTORE POP PUSH1 0x0 SWAP1 DUP2 MSTORE PUSH1 0x3 PUSH1 0x20 DUP2 DUP2 MSTORE PUSH1 0x40 SWAP3 DUP4 SWAP1 KECCAK256 DUP4 MLOAD PUSH1 0x80 DUP2 ADD DUP6 MSTORE DUP2 SLOAD PUSH1 0x1 PUSH1 0x1 PUSH1 0xA0 SHL SUB SWAP1 DUP2 AND DUP3 MSTORE PUSH1 0x1 DUP4 ADD SLOAD AND SWAP3 DUP2 ADD SWAP3 SWAP1 SWAP3 MSTORE PUSH1 0x2 DUP2 ADD SLOAD SWAP4 DUP3 ADD SWAP4 SWAP1 SWAP4 MSTORE SWAP2 ADD SLOAD PUSH1 0xFF AND ISZERO ISZERO PUSH1 0x60 DUP3 ADD MSTORE SWAP1 JUMP JUMPDEST PUSH1 0x40 MLOAD PUSH2 0x24A SWAP2 SWAP1 DUP2 MLOAD PUSH1 0x1 PUSH1 0x1 PUSH1 0xA0 SHL SUB SWAP1 DUP2 AND DUP3 MSTORE PUSH1 0x20 DUP1 DUP5 ADD MLOAD SWAP1 SWAP2 AND SWAP1 DUP3 ADD MSTORE PUSH1 0x40 DUP1 DUP4 ADD MLOAD SWAP1 DUP3 ADD MSTORE PUSH1 0x60 SWAP2 DUP3 ADD MLOAD ISZERO ISZERO SWAP2 DUP2 ADD SWAP2 SWAP1 SWAP2 MSTORE PUSH1 0x80 ADD SWAP1 JUMP JUMPDEST CALLVALUE DUP1 ISZERO PUSH2 0x3F6 JUMPI PUSH1 0x0 DUP1 REVERT JUMPDEST POP PUSH1 0x0 SLOAD PUSH1 0x1 PUSH1 0x1 PUSH1 0xA0 SHL SUB AND JUMPDEST PUSH1 0x40 MLOAD PUSH1 0x1 PUSH1 0x1 PUSH1 0xA0 SHL SUB SWAP1 SWAP2 AND DUP2 MSTORE PUSH1 0x20 ADD PUSH2 0x24A JUMP JUMPDEST CALLVALUE DUP1 ISZERO PUSH2 0x428 JUMPI PUSH1 0x0 DUP1 REVERT JUMPDEST POP PUSH2 0x240 PUSH2 0x437 CALLDATASIZE PUSH1 0x4 PUSH2 0x19CC JUMP JUMPDEST PUSH1 0x2 PUSH1 0x20 MSTORE PUSH1 0x0 SWAP1 DUP2 MSTORE PUSH1 0x40 SWAP1 KECCAK256 SLOAD DUP2 JUMP JUMPDEST CALLVALUE DUP1 ISZERO PUSH2 0x455 JUMPI PUSH1 0x0 DUP1 REVERT JUMPDEST POP PUSH2 0x240 PUSH2 0x464 CALLDATASIZE PUSH1 0x4 PUSH2 0x1A8A JUMP JUMPDEST PUSH2 0x10E1 JUMP JUMPDEST CALLVALUE DUP1 ISZERO PUSH2 0x475 JUMPI PUSH1 0x0 DUP1 REVERT JUMPDEST POP PUSH2 0x240 PUSH2 0x484 CALLDATASIZE PUSH1 0x4 PUSH2 0x19CC JUMP JUMPDEST PUSH1 0x1 PUSH1 0x1 PUSH1 0xA0 SHL SUB AND PUSH1 0x0 SWAP1 DUP2 MSTORE PUSH1 0x2 PUSH1 0x20 MSTORE PUSH1 0x40 SWAP1 KECCAK256 SLOAD SWAP1 JUMP JUMPDEST CALLVALUE DUP1 ISZERO PUSH2 0x4AB JUMPI PUSH1 0x0 DUP1 REVERT JUMPDEST POP PUSH2 0x240 PUSH1 0x3 DUP2 JUMP JUMPDEST PUSH2 0x209 PUSH2 0x4C2 CALLDATASIZE PUSH1 0x4 PUSH2 0x19CC JUMP JUMPDEST PUSH2 0x1100 JUMP JUMPDEST CALLVALUE DUP1 ISZERO PUSH2 0x4D3 JUMPI PUSH1 0x0 DUP1 REVERT JUMPDEST POP PUSH2 0x209 PUSH2 0x4E2 CALLDATASIZE PUSH1 0x4 PUSH2 0x19CC JUMP JUMPDEST PUSH2 0x11D1 JUMP JUMPDEST CALLVALUE DUP1 ISZERO PUSH2 0x4F3 JUMPI PUSH1 0x0 DUP1 REVERT JUMPDEST POP PUSH2 0x404 PUSH2 0x502 CALLDATASIZE PUSH1 0x4 PUSH2 0x1B1B JUMP JUMPDEST PUSH2 0x1397 JUMP JUMPDEST CALLVALUE DUP1 ISZERO PUSH2 0x513 JUMPI PUSH1 0x0 DUP1 REVERT JUMPDEST POP PUSH2 0x209 PUSH2 0x522 CALLDATASIZE PUSH1 0x4 PUSH2 0x1B45 JUMP JUMPDEST PUSH2 0x13CF JUMP JUMPDEST CALLVALUE DUP1 ISZERO PUSH2 0x533 JUMPI PUSH1 0x0 DUP1 REVERT JUMPDEST POP PUSH2 0x240 PUSH1 0x5 SLOAD DUP2 JUMP JUMPDEST CALLVALUE DUP1 ISZERO PUSH2 0x549 JUMPI PUSH1 0x0 DUP1 REVERT JUMPDEST POP PUSH2 0x209 PUSH2 0x558 CALLDATASIZE PUSH1 0x4 PUSH2 0x19CC JUMP JUMPDEST PUSH2 0x172B JUMP JUMPDEST CALLVALUE DUP1 ISZERO PUSH2 0x569 JUMPI PUSH1 0x0 DUP1 REVERT JUMPDEST POP PUSH2 0x5B1 PUSH2 0x578 CALLDATASIZE PUSH1 0x4 PUSH2 0x1A8A JUMP JUMPDEST PUSH1 0x3 PUSH1 0x20 DUP2 SWAP1 MSTORE PUSH1 0x0 SWAP2 DUP3 MSTORE PUSH1 0x40 SWAP1 SWAP2 KECCAK256 DUP1 SLOAD PUSH1 0x1 DUP3 ADD SLOAD PUSH1 0x2 DUP4 ADD SLOAD SWAP3 SWAP1 SWAP4 ADD SLOAD PUSH1 0x1 PUSH1 0x1 PUSH1 0xA0 SHL SUB SWAP2 DUP3 AND SWAP4 SWAP1 SWAP2 AND SWAP2 SWAP1 PUSH1 0xFF AND DUP5 JUMP JUMPDEST PUSH1 0x40 DUP1 MLOAD PUSH1 0x1 PUSH1 0x1 PUSH1 0xA0 SHL SUB SWAP6 DUP7 AND DUP2 MSTORE SWAP5 SWAP1 SWAP4 AND PUSH1 0x20 DUP6 ADD MSTORE SWAP2 DUP4 ADD MSTORE ISZERO ISZERO PUSH1 0x60 DUP3 ADD MSTORE PUSH1 0x80 ADD PUSH2 0x24A JUMP JUMPDEST CALLVALUE DUP1 ISZERO PUSH2 0x5EA JUMPI PUSH1 0x0 DUP1 REVERT JUMPDEST POP PUSH2 0x240 PUSH2 0x5F9 CALLDATASIZE PUSH1 0x4 PUSH2 0x19CC JUMP JUMPDEST PUSH1 0x1 PUSH1 0x1 PUSH1 0xA0 SHL SUB AND PUSH1 0x0 SWAP1 DUP2 MSTORE PUSH1 0x1 PUSH1 0x20 MSTORE PUSH1 0x40 SWAP1 KECCAK256 SLOAD SWAP1 JUMP JUMPDEST CALLER PUSH1 0x0 SWAP1 DUP2 MSTORE PUSH1 0x4 PUSH1 0x20 MSTORE PUSH1 0x40 SWAP1 KECCAK256 SLOAD PUSH1 0x3 SWAP1 DUP2 GT SWAP1 PUSH2 0x633 SWAP1 PUSH2 0x1769 JUMP JUMPDEST PUSH1 0x40 MLOAD PUSH1 0x20 ADD PUSH2 0x643 SWAP2 SWAP1 PUSH2 0x1B9D JUMP JUMPDEST PUSH1 0x40 MLOAD PUSH1 0x20 DUP2 DUP4 SUB SUB DUP2 MSTORE SWAP1 PUSH1 0x40 MSTORE SWAP1 PUSH2 0x670 JUMPI PUSH1 0x40 MLOAD PUSH3 0x461BCD PUSH1 0xE5 SHL DUP2 MSTORE PUSH1 0x4 ADD PUSH2 0x198 SWAP2 SWAP1 PUSH2 0x1BF6 JUMP JUMPDEST POP PUSH1 0x1 PUSH1 0x1 PUSH1 0xA0 SHL SUB DUP2 AND PUSH2 0x6D6 JUMPI PUSH1 0x40 MLOAD PUSH3 0x461BCD PUSH1 0xE5 SHL DUP2 MSTORE PUSH1 0x20 PUSH1 0x4 DUP3 ADD MSTORE PUSH1 0x26 PUSH1 0x24 DUP3 ADD MSTORE PUSH32 0x4261636B757020616464726573732063616E6E6F74206265207A65726F206164 PUSH1 0x44 DUP3 ADD MSTORE PUSH6 0x323932B9B997 PUSH1 0xD1 SHL PUSH1 0x64 DUP3 ADD MSTORE PUSH1 0x84 ADD PUSH2 0x198 JUMP JUMPDEST CALLER PUSH1 0x1 PUSH1 0x1 PUSH1 0xA0 SHL SUB DUP3 AND SUB PUSH2 0x739 JUMPI PUSH1 0x40 MLOAD PUSH3 0x461BCD PUSH1 0xE5 SHL DUP2 MSTORE PUSH1 0x20 PUSH1 0x4 DUP3 ADD MSTORE PUSH1 0x22 PUSH1 0x24 DUP3 ADD MSTORE PUSH32 0x43616E6E6F74207365742073656C66206173206261636B757020616464726573 PUSH1 0x44 DUP3 ADD MSTORE PUSH2 0x3997 PUSH1 0xF1 SHL PUSH1 0x64 DUP3 ADD MSTORE PUSH1 0x84 ADD PUSH2 0x198 JUMP JUMPDEST CALLER PUSH1 0x0 SWAP1 DUP2 MSTORE PUSH1 0x4 PUSH1 0x20 MSTORE PUSH1 0x40 SWAP1 KECCAK256 PUSH2 0x752 SWAP1 DUP3 PUSH2 0x17FC JUMP JUMPDEST ISZERO PUSH2 0x79F JUMPI PUSH1 0x40 MLOAD PUSH3 0x461BCD PUSH1 0xE5 SHL DUP2 MSTORE PUSH1 0x20 PUSH1 0x4 DUP3 ADD MSTORE PUSH1 0x1D PUSH1 0x24 DUP3 ADD MSTORE PUSH32 0x4261636B7570206164647265737320616C72656164792061646465642E000000 PUSH1 0x44 DUP3 ADD MSTORE PUSH1 0x64 ADD PUSH2 0x198 JUMP JUMPDEST CALLER PUSH1 0x0 DUP2 DUP2 MSTORE PUSH1 0x4 PUSH1 0x20 SWAP1 DUP2 MSTORE PUSH1 0x40 DUP1 DUP4 KECCAK256 DUP1 SLOAD PUSH1 0x1 DUP2 ADD DUP3 SSTORE SWAP1 DUP5 MSTORE SWAP2 DUP4 KECCAK256 SWAP1 SWAP2 ADD DUP1 SLOAD PUSH1 0x1 PUSH1 0x1 PUSH1 0xA0 SHL SUB NOT AND PUSH1 0x1 PUSH1 0x1 PUSH1 0xA0 SHL SUB DUP7 AND SWAP1 DUP2 OR SWAP1 SWAP2 SSTORE SWAP1 MLOAD SWAP1 SWAP2 PUSH32 0x183963C107E526B4DC8AE0C8B5B960DA3BDDD00AE79C713BA806A69AB06AB971 SWAP2 LOG3 POP JUMP JUMPDEST PUSH1 0x0 CALLVALUE GT PUSH2 0x828 JUMPI PUSH1 0x40 MLOAD PUSH3 0x461BCD PUSH1 0xE5 SHL DUP2 MSTORE PUSH1 0x4 ADD PUSH2 0x198 SWAP1 PUSH2 0x1C29 JUMP JUMPDEST CALLER PUSH1 0x0 SWAP1 DUP2 MSTORE PUSH1 0x1 PUSH1 0x20 MSTORE PUSH1 0x40 DUP2 KECCAK256 DUP1 SLOAD CALLVALUE SWAP3 SWAP1 PUSH2 0x847 SWAP1 DUP5 SWAP1 PUSH2 0x1C85 JUMP JUMPDEST SWAP1 SWAP2 SSTORE POP POP PUSH1 0x40 MLOAD CALLVALUE DUP2 MSTORE CALLER SWAP1 DUP2 SWAP1 PUSH32 0x29B53808E5EE258B1ACDD8061A270B641AADED1F730EF560687F44A98827BDC SWAP1 PUSH1 0x20 ADD PUSH1 0x40 MLOAD DUP1 SWAP2 SUB SWAP1 LOG3 JUMP JUMPDEST PUSH2 0x88D PUSH2 0x185B JUMP JUMPDEST PUSH1 0x0 DUP6 DUP6 PUSH1 0x40 MLOAD PUSH1 0x20 ADD PUSH2 0x8A2 SWAP3 SWAP2 SWAP1 PUSH2 0x1C98 JUMP JUMPDEST PUSH1 0x40 DUP1 MLOAD PUSH1 0x1F NOT DUP2 DUP5 SUB ADD DUP2 MSTORE SWAP2 DUP2 MSTORE DUP2 MLOAD PUSH1 0x20 SWAP3 DUP4 ADD KECCAK256 PUSH1 0x0 DUP2 DUP2 MSTORE PUSH1 0x3 SWAP1 SWAP4 MSTORE SWAP2 KECCAK256 PUSH1 0x2 ADD SLOAD SWAP1 SWAP2 POP ISZERO PUSH2 0x91A JUMPI PUSH1 0x40 MLOAD PUSH3 0x461BCD PUSH1 0xE5 SHL DUP2 MSTORE PUSH1 0x20 PUSH1 0x4 DUP3 ADD MSTORE PUSH1 0x17 PUSH1 0x24 DUP3 ADD MSTORE PUSH32 0x47616D6520494420616C7265616479206578697374732E000000000000000000 PUSH1 0x44 DUP3 ADD MSTORE PUSH1 0x64 ADD PUSH2 0x198 JUMP JUMPDEST PUSH1 0x1 PUSH1 0x1 PUSH1 0xA0 SHL SUB DUP5 AND ISZERO DUP1 ISZERO SWAP1 PUSH2 0x93A JUMPI POP PUSH1 0x1 PUSH1 0x1 PUSH1 0xA0 SHL SUB DUP4 AND ISZERO ISZERO JUMPDEST PUSH2 0x986 JUMPI PUSH1 0x40 MLOAD PUSH3 0x461BCD PUSH1 0xE5 SHL DUP2 MSTORE PUSH1 0x20 PUSH1 0x4 DUP3 ADD MSTORE PUSH1 0x17 PUSH1 0x24 DUP3 ADD MSTORE PUSH32 0x496E76616C696420706C6179657220616464726573732E000000000000000000 PUSH1 0x44 DUP3 ADD MSTORE PUSH1 0x64 ADD PUSH2 0x198 JUMP JUMPDEST PUSH1 0x0 DUP3 GT PUSH2 0x9E2 JUMPI PUSH1 0x40 MLOAD PUSH3 0x461BCD PUSH1 0xE5 SHL DUP2 MSTORE PUSH1 0x20 PUSH1 0x4 DUP3 ADD MSTORE PUSH1 0x24 DUP1 DUP3 ADD MSTORE PUSH32 0x5F7374616B65416D6F756E74206D757374206265206772656174657220746861 PUSH1 0x44 DUP3 ADD MSTORE PUSH4 0x37101817 PUSH1 0xE1 SHL PUSH1 0x64 DUP3 ADD MSTORE PUSH1 0x84 ADD PUSH2 0x198 JUMP JUMPDEST PUSH1 0x1 PUSH1 0x1 PUSH1 0xA0 SHL SUB DUP5 AND PUSH1 0x0 SWAP1 DUP2 MSTORE PUSH1 0x1 PUSH1 0x20 MSTORE PUSH1 0x40 SWAP1 KECCAK256 SLOAD DUP3 GT ISZERO PUSH2 0xA4A JUMPI PUSH1 0x40 MLOAD PUSH3 0x461BCD PUSH1 0xE5 SHL DUP2 MSTORE PUSH1 0x20 PUSH1 0x4 DUP3 ADD MSTORE PUSH1 0x1F PUSH1 0x24 DUP3 ADD MSTORE PUSH32 0x506C61796572312068617320696E73756666696369656E742066756E64732E00 PUSH1 0x44 DUP3 ADD MSTORE PUSH1 0x64 ADD PUSH2 0x198 JUMP JUMPDEST PUSH1 0x1 PUSH1 0x1 PUSH1 0xA0 SHL SUB DUP4 AND PUSH1 0x0 SWAP1 DUP2 MSTORE PUSH1 0x1 PUSH1 0x20 MSTORE PUSH1 0x40 SWAP1 KECCAK256 SLOAD DUP3 GT ISZERO PUSH2 0xAB2 JUMPI PUSH1 0x40 MLOAD PUSH3 0x461BCD PUSH1 0xE5 SHL DUP2 MSTORE PUSH1 0x20 PUSH1 0x4 DUP3 ADD MSTORE PUSH1 0x1F PUSH1 0x24 DUP3 ADD MSTORE PUSH32 0x506C61796572322068617320696E73756666696369656E742066756E64732E00 PUSH1 0x44 DUP3 ADD MSTORE PUSH1 0x64 ADD PUSH2 0x198 JUMP JUMPDEST PUSH1 0x0 PUSH1 0x2 PUSH2 0xABF DUP5 PUSH2 0x10E1 JUMP JUMPDEST PUSH2 0xAC9 SWAP2 SWAP1 PUSH2 0x1CA8 JUMP JUMPDEST SWAP1 POP PUSH1 0x0 PUSH2 0xAD7 DUP3 DUP6 PUSH2 0x1CCA JUMP JUMPDEST PUSH1 0x1 PUSH1 0x1 PUSH1 0xA0 SHL SUB DUP8 AND PUSH1 0x0 SWAP1 DUP2 MSTORE PUSH1 0x1 PUSH1 0x20 MSTORE PUSH1 0x40 DUP2 KECCAK256 DUP1 SLOAD SWAP3 SWAP4 POP DUP4 SWAP3 SWAP1 SWAP2 SWAP1 PUSH2 0xB04 SWAP1 DUP5 SWAP1 PUSH2 0x1CCA JUMP JUMPDEST SWAP1 SWAP2 SSTORE POP POP PUSH1 0x1 PUSH1 0x1 PUSH1 0xA0 SHL SUB DUP6 AND PUSH1 0x0 SWAP1 DUP2 MSTORE PUSH1 0x1 PUSH1 0x20 MSTORE PUSH1 0x40 DUP2 KECCAK256 DUP1 SLOAD DUP4 SWAP3 SWAP1 PUSH2 0xB31 SWAP1 DUP5 SWAP1 PUSH2 0x1CCA JUMP JUMPDEST SWAP1 SWAP2 SSTORE POP POP PUSH1 0x1 PUSH1 0x1 PUSH1 0xA0 SHL SUB DUP7 AND PUSH1 0x0 SWAP1 DUP2 MSTORE PUSH1 0x2 PUSH1 0x20 MSTORE PUSH1 0x40 DUP2 KECCAK256 DUP1 SLOAD DUP4 SWAP3 SWAP1 PUSH2 0xB5E SWAP1 DUP5 SWAP1 PUSH2 0x1C85 JUMP JUMPDEST SWAP1 SWAP2 SSTORE POP POP PUSH1 0x1 PUSH1 0x1 PUSH1 0xA0 SHL SUB DUP6 AND PUSH1 0x0 SWAP1 DUP2 MSTORE PUSH1 0x2 PUSH1 0x20 MSTORE PUSH1 0x40 DUP2 KECCAK256 DUP1 SLOAD DUP4 SWAP3 SWAP1 PUSH2 0xB8B SWAP1 DUP5 SWAP1 PUSH2 0x1C85 JUMP JUMPDEST SWAP1 SWAP2 SSTORE POP PUSH2 0xB9C SWAP1 POP DUP3 PUSH1 0x2 PUSH2 0x1CDD JUMP JUMPDEST PUSH1 0x5 PUSH1 0x0 DUP3 DUP3 SLOAD PUSH2 0xBAD SWAP2 SWAP1 PUSH2 0x1C85 JUMP JUMPDEST SWAP1 SWAP2 SSTORE POP POP PUSH1 0x40 DUP1 MLOAD PUSH1 0x80 DUP2 ADD DUP3 MSTORE PUSH1 0x1 PUSH1 0x1 PUSH1 0xA0 SHL SUB DUP1 DUP10 AND DUP1 DUP4 MSTORE DUP9 DUP3 AND PUSH1 0x20 DUP1 DUP6 ADD SWAP2 DUP3 MSTORE DUP5 DUP7 ADD DUP8 DUP2 MSTORE PUSH1 0x1 PUSH1 0x60 DUP8 ADD DUP2 DUP2 MSTORE PUSH1 0x0 DUP13 DUP2 MSTORE PUSH1 0x3 SWAP5 DUP6 SWAP1 MSTORE DUP10 SWAP1 KECCAK256 SWAP8 MLOAD DUP9 SLOAD SWAP1 DUP9 AND PUSH1 0x1 PUSH1 0x1 PUSH1 0xA0 SHL SUB NOT SWAP2 DUP3 AND OR DUP10 SSTORE SWAP5 MLOAD SWAP2 DUP9 ADD DUP1 SLOAD SWAP3 SWAP1 SWAP8 AND SWAP2 SWAP1 SWAP5 AND OR SWAP1 SWAP5 SSTORE SWAP3 MLOAD PUSH1 0x2 DUP6 ADD SSTORE MLOAD SWAP3 SWAP1 SWAP2 ADD DUP1 SLOAD SWAP3 ISZERO ISZERO PUSH1 0xFF NOT SWAP1 SWAP4 AND SWAP3 SWAP1 SWAP3 OR SWAP1 SWAP2 SSTORE SWAP1 MLOAD PUSH32 0x41375446217EACAB943F69F43E90965CBED73A9648B36F7C1276C8E76BB67BAD SWAP1 PUSH2 0xC6A SWAP1 DUP5 DUP2 MSTORE PUSH1 0x20 ADD SWAP1 JUMP JUMPDEST PUSH1 0x40 MLOAD DUP1 SWAP2 SUB SWAP1 LOG2 DUP5 PUSH1 0x1 PUSH1 0x1 PUSH1 0xA0 SHL SUB AND PUSH32 0x41375446217EACAB943F69F43E90965CBED73A9648B36F7C1276C8E76BB67BAD DUP3 PUSH1 0x40 MLOAD PUSH2 0xCAD SWAP2 DUP2 MSTORE PUSH1 0x20 ADD SWAP1 JUMP JUMPDEST PUSH1 0x40 MLOAD DUP1 SWAP2 SUB SWAP1 LOG2 DUP5 PUSH1 0x1 PUSH1 0x1 PUSH1 0xA0 SHL SUB AND DUP7 PUSH1 0x1 PUSH1 0x1 PUSH1 0xA0 SHL SUB AND DUP5 PUSH32 0xCA5BE7D622FE97529270450062762F9BAC7E27828EF7B8658AF85234F44146CD DUP8 PUSH1 0x40 MLOAD PUSH2 0xCFB SWAP2 DUP2 MSTORE PUSH1 0x20 ADD SWAP1 JUMP JUMPDEST PUSH1 0x40 MLOAD DUP1 SWAP2 SUB SWAP1 LOG4 POP POP POP POP POP POP POP POP JUMP JUMPDEST PUSH1 0x0 DUP2 GT PUSH2 0xD2D JUMPI PUSH1 0x40 MLOAD PUSH3 0x461BCD PUSH1 0xE5 SHL DUP2 MSTORE PUSH1 0x4 ADD PUSH2 0x198 SWAP1 PUSH2 0x1CF4 JUMP JUMPDEST CALLER PUSH1 0x0 SWAP1 DUP2 MSTORE PUSH1 0x1 PUSH1 0x20 MSTORE PUSH1 0x40 SWAP1 KECCAK256 SLOAD DUP2 GT ISZERO PUSH2 0xD8C JUMPI PUSH1 0x40 MLOAD PUSH3 0x461BCD PUSH1 0xE5 SHL DUP2 MSTORE PUSH1 0x20 PUSH1 0x4 DUP3 ADD MSTORE PUSH1 0x1F PUSH1 0x24 DUP3 ADD MSTORE PUSH32 0x496E73756666696369656E742066756E647320746F2077697468647261772E00 PUSH1 0x44 DUP3 ADD MSTORE PUSH1 0x64 ADD PUSH2 0x198 JUMP JUMPDEST CALLER PUSH1 0x0 SWAP1 DUP2 MSTORE PUSH1 0x1 PUSH1 0x20 MSTORE PUSH1 0x40 DUP2 KECCAK256 DUP1 SLOAD DUP4 SWAP3 SWAP1 PUSH2 0xDAB SWAP1 DUP5 SWAP1 PUSH2 0x1CCA JUMP JUMPDEST SWAP1 SWAP2 SSTORE POP POP PUSH1 0x40 MLOAD CALLER SWAP1 DUP3 ISZERO PUSH2 0x8FC MUL SWAP1 DUP4 SWAP1 PUSH1 0x0 DUP2 DUP2 DUP2 DUP6 DUP9 DUP9 CALL SWAP4 POP POP POP POP ISZERO DUP1 ISZERO PUSH2 0xDDD JUMPI RETURNDATASIZE PUSH1 0x0 DUP1 RETURNDATACOPY RETURNDATASIZE PUSH1 0x0 REVERT JUMPDEST POP PUSH1 0x40 MLOAD DUP2 DUP2 MSTORE CALLER SWAP1 DUP2 SWAP1 PUSH32 0x2ECB67032EF4329934BE5B0B0C0B7277932396DB57A18598ADDE8FCBA3D92034 SWAP1 PUSH1 0x20 ADD PUSH1 0x40 MLOAD DUP1 SWAP2 SUB SWAP1 LOG3 POP JUMP JUMPDEST PUSH1 0x1 PUSH1 0x1 PUSH1 0xA0 SHL SUB DUP2 AND PUSH1 0x0 SWAP1 DUP2 MSTORE PUSH1 0x4 PUSH1 0x20 SWAP1 DUP2 MSTORE PUSH1 0x40 SWAP2 DUP3 SWAP1 KECCAK256 DUP1 SLOAD DUP4 MLOAD DUP2 DUP5 MUL DUP2 ADD DUP5 ADD SWAP1 SWAP5 MSTORE DUP1 DUP5 MSTORE PUSH1 0x60 SWAP4 SWAP3 DUP4 ADD DUP3 DUP3 DUP1 ISZERO PUSH2 0xE82 JUMPI PUSH1 0x20 MUL DUP3 ADD SWAP2 SWAP1 PUSH1 0x0 MSTORE PUSH1 0x20 PUSH1 0x0 KECCAK256 SWAP1 JUMPDEST DUP2 SLOAD PUSH1 0x1 PUSH1 0x1 PUSH1 0xA0 SHL SUB AND DUP2 MSTORE PUSH1 0x1 SWAP1 SWAP2 ADD SWAP1 PUSH1 0x20 ADD DUP1 DUP4 GT PUSH2 0xE64 JUMPI JUMPDEST POP POP POP POP POP SWAP1 POP SWAP2 SWAP1 POP JUMP JUMPDEST PUSH1 0x1 PUSH1 0x1 PUSH1 0xA0 SHL SUB DUP2 AND PUSH1 0x0 SWAP1 DUP2 MSTORE PUSH1 0x4 PUSH1 0x20 MSTORE PUSH1 0x40 SWAP1 KECCAK256 DUP2 SWAP1 PUSH2 0xEB2 SWAP1 CALLER PUSH2 0x17FC JUMP JUMPDEST PUSH2 0xECE JUMPI PUSH1 0x40 MLOAD PUSH3 0x461BCD PUSH1 0xE5 SHL DUP2 MSTORE PUSH1 0x4 ADD PUSH2 0x198 SWAP1 PUSH2 0x1D3D JUMP JUMPDEST PUSH1 0x0 DUP4 GT PUSH2 0xEEE JUMPI PUSH1 0x40 MLOAD PUSH3 0x461BCD PUSH1 0xE5 SHL DUP2 MSTORE PUSH1 0x4 ADD PUSH2 0x198 SWAP1 PUSH2 0x1CF4 JUMP JUMPDEST PUSH1 0x1 PUSH1 0x1 PUSH1 0xA0 SHL SUB DUP3 AND PUSH1 0x0 SWAP1 DUP2 MSTORE PUSH1 0x1 PUSH1 0x20 MSTORE PUSH1 0x40 SWAP1 KECCAK256 SLOAD DUP4 GT ISZERO PUSH2 0xF56 JUMPI PUSH1 0x40 MLOAD PUSH3 0x461BCD PUSH1 0xE5 SHL DUP2 MSTORE PUSH1 0x20 PUSH1 0x4 DUP3 ADD MSTORE PUSH1 0x1F PUSH1 0x24 DUP3 ADD MSTORE PUSH32 0x496E73756666696369656E742066756E647320746F2077697468647261772E00 PUSH1 0x44 DUP3 ADD MSTORE PUSH1 0x64 ADD PUSH2 0x198 JUMP JUMPDEST PUSH1 0x1 PUSH1 0x1 PUSH1 0xA0 SHL SUB DUP3 AND PUSH1 0x0 SWAP1 DUP2 MSTORE PUSH1 0x1 PUSH1 0x20 MSTORE PUSH1 0x40 DUP2 KECCAK256 DUP1 SLOAD DUP6 SWAP3 SWAP1 PUSH2 0xF7E SWAP1 DUP5 SWAP1 PUSH2 0x1CCA JUMP JUMPDEST SWAP1 SWAP2 SSTORE POP POP PUSH1 0x40 MLOAD CALLER SWAP1 DUP5 ISZERO PUSH2 0x8FC MUL SWAP1 DUP6 SWAP1 PUSH1 0x0 DUP2 DUP2 DUP2 DUP6 DUP9 DUP9 CALL SWAP4 POP POP POP POP ISZERO DUP1 ISZERO PUSH2 0xFB0 JUMPI RETURNDATASIZE PUSH1 0x0 DUP1 RETURNDATACOPY RETURNDATASIZE PUSH1 0x0 REVERT JUMPDEST POP PUSH1 0x40 MLOAD DUP4 DUP2 MSTORE CALLER SWAP1 PUSH1 0x1 PUSH1 0x1 PUSH1 0xA0 SHL SUB DUP5 AND SWAP1 PUSH32 0x2ECB67032EF4329934BE5B0B0C0B7277932396DB57A18598ADDE8FCBA3D92034 SWAP1 PUSH1 0x20 ADD PUSH1 0x40 MLOAD DUP1 SWAP2 SUB SWAP1 LOG3 POP POP POP JUMP JUMPDEST PUSH2 0xFFE PUSH2 0x185B JUMP JUMPDEST DUP1 PUSH1 0x5 SLOAD LT ISZERO PUSH2 0x1050 JUMPI PUSH1 0x40 MLOAD PUSH3 0x461BCD PUSH1 0xE5 SHL DUP2 MSTORE PUSH1 0x20 PUSH1 0x4 DUP3 ADD MSTORE PUSH1 0x1C PUSH1 0x24 DUP3 ADD MSTORE PUSH32 0x496E73756666696369656E74206665657320636F6C6C65637465642E00000000 PUSH1 0x44 DUP3 ADD MSTORE PUSH1 0x64 ADD PUSH2 0x198 JUMP JUMPDEST DUP1 PUSH1 0x5 PUSH1 0x0 DUP3 DUP3 SLOAD PUSH2 0x1062 SWAP2 SWAP1 PUSH2 0x1CCA JUMP JUMPDEST SWAP1 SWAP2 SSTORE POP POP PUSH1 0x40 MLOAD CALLER SWAP1 DUP3 ISZERO PUSH2 0x8FC MUL SWAP1 DUP4 SWAP1 PUSH1 0x0 DUP2 DUP2 DUP2 DUP6 DUP9 DUP9 CALL SWAP4 POP POP POP POP ISZERO DUP1 ISZERO PUSH2 0x1094 JUMPI RETURNDATASIZE PUSH1 0x0 DUP1 RETURNDATACOPY RETURNDATASIZE PUSH1 0x0 REVERT JUMPDEST POP PUSH1 0x40 MLOAD DUP2 DUP2 MSTORE CALLER SWAP1 PUSH32 0xC0819C13BE868895EB93E40EACEB96DE976442FA1D404E5C55F14BB65A8C489A SWAP1 PUSH1 0x20 ADD PUSH1 0x40 MLOAD DUP1 SWAP2 SUB SWAP1 LOG2 POP JUMP JUMPDEST PUSH2 0x10D5 PUSH2 0x185B JUMP JUMPDEST PUSH2 0x10DF PUSH1 0x0 PUSH2 0x1888 JUMP JUMPDEST JUMP JUMPDEST PUSH1 0x0 PUSH1 0x64 PUSH2 0x10F0 PUSH1 0x3 DUP5 PUSH2 0x1CDD JUMP JUMPDEST PUSH2 0x10FA SWAP2 SWAP1 PUSH2 0x1CA8 JUMP JUMPDEST SWAP3 SWAP2 POP POP JUMP JUMPDEST PUSH1 0x1 PUSH1 0x1 PUSH1 0xA0 SHL SUB DUP2 AND PUSH1 0x0 SWAP1 DUP2 MSTORE PUSH1 0x4 PUSH1 0x20 MSTORE PUSH1 0x40 SWAP1 KECCAK256 DUP2 SWAP1 PUSH2 0x1124 SWAP1 CALLER PUSH2 0x17FC JUMP JUMPDEST PUSH2 0x1140 JUMPI PUSH1 0x40 MLOAD PUSH3 0x461BCD PUSH1 0xE5 SHL DUP2 MSTORE PUSH1 0x4 ADD PUSH2 0x198 SWAP1 PUSH2 0x1D3D JUMP JUMPDEST PUSH1 0x0 CALLVALUE GT PUSH2 0x1160 JUMPI PUSH1 0x40 MLOAD PUSH3 0x461BCD PUSH1 0xE5 SHL DUP2 MSTORE PUSH1 0x4 ADD PUSH2 0x198 SWAP1 PUSH2 0x1C29 JUMP JUMPDEST PUSH1 0x1 PUSH1 0x1 PUSH1 0xA0 SHL SUB DUP3 AND PUSH1 0x0 SWAP1 DUP2 MSTORE PUSH1 0x1 PUSH1 0x20 MSTORE PUSH1 0x40 DUP2 KECCAK256 DUP1 SLOAD CALLVALUE SWAP3 SWAP1 PUSH2 0x1188 SWAP1 DUP5 SWAP1 PUSH2 0x1C85 JUMP JUMPDEST SWAP1 SWAP2 SSTORE POP POP PUSH1 0x40 MLOAD CALLVALUE DUP2 MSTORE CALLER SWAP1 PUSH1 0x1 PUSH1 0x1 PUSH1 0xA0 SHL SUB DUP5 AND SWAP1 PUSH32 0x29B53808E5EE258B1ACDD8061A270B641AADED1F730EF560687F44A98827BDC SWAP1 PUSH1 0x20 ADD PUSH1 0x40 MLOAD DUP1 SWAP2 SUB SWAP1 LOG3 POP POP JUMP JUMPDEST CALLER PUSH1 0x0 SWAP1 DUP2 MSTORE PUSH1 0x4 PUSH1 0x20 MSTORE PUSH1 0x40 SWAP1 KECCAK256 PUSH2 0x11EA SWAP1 DUP3 PUSH2 0x17FC JUMP JUMPDEST PUSH2 0x124E JUMPI PUSH1 0x40 MLOAD PUSH3 0x461BCD PUSH1 0xE5 SHL DUP2 MSTORE PUSH1 0x20 PUSH1 0x4 DUP3 ADD MSTORE PUSH1 0x2F PUSH1 0x24 DUP3 ADD MSTORE PUSH32 0x4E6F7420617574686F72697A656420746F2072656D6F76652074686973207265 PUSH1 0x44 DUP3 ADD MSTORE PUSH15 0x31B7BB32B93C9030B2323932B9B997 PUSH1 0x89 SHL PUSH1 0x64 DUP3 ADD MSTORE PUSH1 0x84 ADD PUSH2 0x198 JUMP JUMPDEST CALLER PUSH1 0x0 SWAP1 DUP2 MSTORE PUSH1 0x4 PUSH1 0x20 MSTORE PUSH1 0x40 DUP2 KECCAK256 SWAP1 JUMPDEST DUP2 SLOAD DUP2 LT ISZERO PUSH2 0x1392 JUMPI DUP3 PUSH1 0x1 PUSH1 0x1 PUSH1 0xA0 SHL SUB AND DUP3 DUP3 DUP2 SLOAD DUP2 LT PUSH2 0x1284 JUMPI PUSH2 0x1284 PUSH2 0x1D87 JUMP JUMPDEST PUSH1 0x0 SWAP2 DUP3 MSTORE PUSH1 0x20 SWAP1 SWAP2 KECCAK256 ADD SLOAD PUSH1 0x1 PUSH1 0x1 PUSH1 0xA0 SHL SUB AND SUB PUSH2 0x138A JUMPI DUP2 SLOAD DUP3 SWAP1 PUSH2 0x12AE SWAP1 PUSH1 0x1 SWAP1 PUSH2 0x1CCA JUMP JUMPDEST DUP2 SLOAD DUP2 LT PUSH2 0x12BE JUMPI PUSH2 0x12BE PUSH2 0x1D87 JUMP JUMPDEST SWAP1 PUSH1 0x0 MSTORE PUSH1 0x20 PUSH1 0x0 KECCAK256 ADD PUSH1 0x0 SWAP1 SLOAD SWAP1 PUSH2 0x100 EXP SWAP1 DIV PUSH1 0x1 PUSH1 0x1 PUSH1 0xA0 SHL SUB AND DUP3 DUP3 DUP2 SLOAD DUP2 LT PUSH2 0x12EE JUMPI PUSH2 0x12EE PUSH2 0x1D87 JUMP JUMPDEST SWAP1 PUSH1 0x0 MSTORE PUSH1 0x20 PUSH1 0x0 KECCAK256 ADD PUSH1 0x0 PUSH2 0x100 EXP DUP2 SLOAD DUP2 PUSH1 0x1 PUSH1 0x1 PUSH1 0xA0 SHL SUB MUL NOT AND SWAP1 DUP4 PUSH1 0x1 PUSH1 0x1 PUSH1 0xA0 SHL SUB AND MUL OR SWAP1 SSTORE POP DUP2 DUP1 SLOAD DUP1 PUSH2 0x132C JUMPI PUSH2 0x132C PUSH2 0x1D9D JUMP JUMPDEST PUSH1 0x0 DUP3 DUP2 MSTORE PUSH1 0x20 DUP2 KECCAK256 DUP3 ADD PUSH1 0x0 NOT SWAP1 DUP2 ADD DUP1 SLOAD PUSH1 0x1 PUSH1 0x1 PUSH1 0xA0 SHL SUB NOT AND SWAP1 SSTORE SWAP1 SWAP2 ADD SWAP1 SWAP2 SSTORE PUSH1 0x40 MLOAD CALLER SWAP2 PUSH1 0x1 PUSH1 0x1 PUSH1 0xA0 SHL SUB DUP7 AND SWAP2 PUSH32 0xFE51B55EA38E48CC7FB184D0D60446A88610B80DA472D30AA215A65227615744 SWAP2 SWAP1 LOG3 POP POP POP JUMP JUMPDEST PUSH1 0x1 ADD PUSH2 0x125F JUMP JUMPDEST POP POP POP JUMP JUMPDEST PUSH1 0x4 PUSH1 0x20 MSTORE DUP2 PUSH1 0x0 MSTORE PUSH1 0x40 PUSH1 0x0 KECCAK256 DUP2 DUP2 SLOAD DUP2 LT PUSH2 0x13B3 JUMPI PUSH1 0x0 DUP1 REVERT JUMPDEST PUSH1 0x0 SWAP2 DUP3 MSTORE PUSH1 0x20 SWAP1 SWAP2 KECCAK256 ADD SLOAD PUSH1 0x1 PUSH1 0x1 PUSH1 0xA0 SHL SUB AND SWAP2 POP DUP3 SWAP1 POP JUMP JUMPDEST PUSH2 0x13D7 PUSH2 0x185B JUMP JUMPDEST PUSH1 0x0 DUP3 DUP2 MSTORE PUSH1 0x3 PUSH1 0x20 DUP2 SWAP1 MSTORE PUSH1 0x40 SWAP1 SWAP2 KECCAK256 ADD SLOAD PUSH1 0xFF AND PUSH2 0x1451 JUMPI PUSH1 0x40 MLOAD PUSH3 0x461BCD PUSH1 0xE5 SHL DUP2 MSTORE PUSH1 0x20 PUSH1 0x4 DUP3 ADD MSTORE PUSH1 0x2F PUSH1 0x24 DUP3 ADD MSTORE PUSH32 0x47616D6520656974686572206E6F742063726561746564206F7220697320616C PUSH1 0x44 DUP3 ADD MSTORE PUSH15 0x3932B0B23C903334B734B9B432B217 PUSH1 0x89 SHL PUSH1 0x64 DUP3 ADD MSTORE PUSH1 0x84 ADD PUSH2 0x198 JUMP JUMPDEST PUSH1 0x0 DUP3 DUP2 MSTORE PUSH1 0x3 PUSH1 0x20 SWAP1 DUP2 MSTORE PUSH1 0x40 DUP1 DUP4 KECCAK256 PUSH1 0x2 DUP1 DUP3 ADD SLOAD DUP3 SLOAD PUSH1 0x1 PUSH1 0x1 PUSH1 0xA0 SHL SUB AND DUP7 MSTORE SWAP4 MSTORE SWAP1 DUP4 KECCAK256 DUP1 SLOAD SWAP2 SWAP4 SWAP1 SWAP2 PUSH2 0x148B SWAP1 DUP5 SWAP1 PUSH2 0x1CCA JUMP JUMPDEST SWAP1 SWAP2 SSTORE POP POP PUSH1 0x2 DUP1 DUP3 ADD SLOAD PUSH1 0x1 DUP4 ADD SLOAD PUSH1 0x1 PUSH1 0x1 PUSH1 0xA0 SHL SUB AND PUSH1 0x0 SWAP1 DUP2 MSTORE PUSH1 0x20 SWAP3 SWAP1 SWAP3 MSTORE PUSH1 0x40 DUP3 KECCAK256 DUP1 SLOAD SWAP2 SWAP3 SWAP1 SWAP2 PUSH2 0x14C4 SWAP1 DUP5 SWAP1 PUSH2 0x1CCA JUMP JUMPDEST SWAP1 SWAP2 SSTORE POP PUSH1 0x1 SWAP1 POP DUP3 PUSH1 0x2 DUP2 GT ISZERO PUSH2 0x14DE JUMPI PUSH2 0x14DE PUSH2 0x1DB3 JUMP JUMPDEST SUB PUSH2 0x1564 JUMPI PUSH1 0x2 DUP1 DUP3 ADD SLOAD PUSH2 0x14F2 SWAP2 PUSH2 0x1CDD JUMP JUMPDEST DUP2 SLOAD PUSH1 0x1 PUSH1 0x1 PUSH1 0xA0 SHL SUB AND PUSH1 0x0 SWAP1 DUP2 MSTORE PUSH1 0x1 PUSH1 0x20 MSTORE PUSH1 0x40 DUP2 KECCAK256 DUP1 SLOAD SWAP1 SWAP2 SWAP1 PUSH2 0x151B SWAP1 DUP5 SWAP1 PUSH2 0x1C85 JUMP JUMPDEST SWAP1 SWAP2 SSTORE POP POP DUP1 SLOAD PUSH1 0x2 DUP1 DUP4 ADD SLOAD PUSH1 0x1 PUSH1 0x1 PUSH1 0xA0 SHL SUB SWAP1 SWAP3 AND SWAP2 PUSH1 0x0 DUP1 MLOAD PUSH1 0x20 PUSH2 0x1E08 DUP4 CODECOPY DUP2 MLOAD SWAP2 MSTORE SWAP2 PUSH2 0x154E SWAP2 SWAP1 PUSH2 0x1CDD JUMP JUMPDEST PUSH1 0x40 MLOAD SWAP1 DUP2 MSTORE PUSH1 0x20 ADD PUSH1 0x40 MLOAD DUP1 SWAP2 SUB SWAP1 LOG2 PUSH2 0x16E0 JUMP JUMPDEST PUSH1 0x2 DUP3 PUSH1 0x2 DUP2 GT ISZERO PUSH2 0x1578 JUMPI PUSH2 0x1578 PUSH2 0x1DB3 JUMP JUMPDEST SUB PUSH2 0x15F0 JUMPI PUSH1 0x2 DUP1 DUP3 ADD SLOAD PUSH2 0x158C SWAP2 PUSH2 0x1CDD JUMP JUMPDEST PUSH1 0x1 DUP3 DUP2 ADD SLOAD PUSH1 0x1 PUSH1 0x1 PUSH1 0xA0 SHL SUB AND PUSH1 0x0 SWAP1 DUP2 MSTORE PUSH1 0x20 SWAP2 SWAP1 SWAP2 MSTORE PUSH1 0x40 DUP2 KECCAK256 DUP1 SLOAD SWAP1 SWAP2 SWAP1 PUSH2 0x15BA SWAP1 DUP5 SWAP1 PUSH2 0x1C85 JUMP JUMPDEST SWAP1 SWAP2 SSTORE POP POP PUSH1 0x1 DUP2 ADD SLOAD PUSH1 0x2 DUP1 DUP4 ADD SLOAD PUSH1 0x1 PUSH1 0x1 PUSH1 0xA0 SHL SUB SWAP1 SWAP3 AND SWAP2 PUSH1 0x0 DUP1 MLOAD PUSH1 0x20 PUSH2 0x1E08 DUP4 CODECOPY DUP2 MLOAD SWAP2 MSTORE SWAP2 PUSH2 0x154E SWAP2 SWAP1 PUSH2 0x1CDD JUMP JUMPDEST PUSH1 0x0 DUP3 PUSH1 0x2 DUP2 GT ISZERO PUSH2 0x1604 JUMPI PUSH2 0x1604 PUSH2 0x1DB3 JUMP JUMPDEST SUB PUSH2 0x16E0 JUMPI PUSH1 0x2 DUP2 ADD SLOAD DUP2 SLOAD PUSH1 0x1 PUSH1 0x1 PUSH1 0xA0 SHL SUB AND PUSH1 0x0 SWAP1 DUP2 MSTORE PUSH1 0x1 PUSH1 0x20 MSTORE PUSH1 0x40 DUP2 KECCAK256 DUP1 SLOAD SWAP1 SWAP2 SWAP1 PUSH2 0x1637 SWAP1 DUP5 SWAP1 PUSH2 0x1C85 JUMP JUMPDEST SWAP1 SWAP2 SSTORE POP POP PUSH1 0x2 DUP2 ADD SLOAD PUSH1 0x1 DUP1 DUP4 ADD SLOAD PUSH1 0x1 PUSH1 0x1 PUSH1 0xA0 SHL SUB AND PUSH1 0x0 SWAP1 DUP2 MSTORE PUSH1 0x20 SWAP2 SWAP1 SWAP2 MSTORE PUSH1 0x40 DUP2 KECCAK256 DUP1 SLOAD SWAP1 SWAP2 SWAP1 PUSH2 0x166F SWAP1 DUP5 SWAP1 PUSH2 0x1C85 JUMP JUMPDEST SWAP1 SWAP2 SSTORE POP POP DUP1 SLOAD PUSH1 0x2 DUP3 ADD SLOAD PUSH1 0x40 MLOAD SWAP1 DUP2 MSTORE PUSH1 0x1 PUSH1 0x1 PUSH1 0xA0 SHL SUB SWAP1 SWAP2 AND SWAP1 PUSH1 0x0 DUP1 MLOAD PUSH1 0x20 PUSH2 0x1E08 DUP4 CODECOPY DUP2 MLOAD SWAP2 MSTORE SWAP1 PUSH1 0x20 ADD PUSH1 0x40 MLOAD DUP1 SWAP2 SUB SWAP1 LOG2 PUSH1 0x1 DUP2 ADD SLOAD PUSH1 0x2 DUP3 ADD SLOAD PUSH1 0x40 MLOAD SWAP1 DUP2 MSTORE PUSH1 0x1 PUSH1 0x1 PUSH1 0xA0 SHL SUB SWAP1 SWAP2 AND SWAP1 PUSH1 0x0 DUP1 MLOAD PUSH1 0x20 PUSH2 0x1E08 DUP4 CODECOPY DUP2 MLOAD SWAP2 MSTORE SWAP1 PUSH1 0x20 ADD PUSH1 0x40 MLOAD DUP1 SWAP2 SUB SWAP1 LOG2 JUMPDEST PUSH1 0x3 DUP2 ADD DUP1 SLOAD PUSH1 0xFF NOT AND SWAP1 SSTORE PUSH1 0x40 MLOAD DUP4 SWAP1 PUSH32 0x84084530AD38987AAA9B1454BF4CBC496558210EFBFE8EC98C3A6879F4E9A38A SWAP1 PUSH2 0x171E SWAP1 DUP6 SWAP1 PUSH2 0x1DC9 JUMP JUMPDEST PUSH1 0x40 MLOAD DUP1 SWAP2 SUB SWAP1 LOG2 POP POP POP JUMP JUMPDEST PUSH2 0x1733 PUSH2 0x185B JUMP JUMPDEST PUSH1 0x1 PUSH1 0x1 PUSH1 0xA0 SHL SUB DUP2 AND PUSH2 0x175D JUMPI PUSH1 0x40 MLOAD PUSH4 0x1E4FBDF7 PUSH1 0xE0 SHL DUP2 MSTORE PUSH1 0x0 PUSH1 0x4 DUP3 ADD MSTORE PUSH1 0x24 ADD PUSH2 0x198 JUMP JUMPDEST PUSH2 0x1766 DUP2 PUSH2 0x1888 JUMP JUMPDEST POP JUMP JUMPDEST PUSH1 0x60 PUSH1 0x0 PUSH2 0x1776 DUP4 PUSH2 0x18D8 JUMP JUMPDEST PUSH1 0x1 ADD SWAP1 POP PUSH1 0x0 DUP2 PUSH8 0xFFFFFFFFFFFFFFFF DUP2 GT ISZERO PUSH2 0x1796 JUMPI PUSH2 0x1796 PUSH2 0x1DF1 JUMP JUMPDEST PUSH1 0x40 MLOAD SWAP1 DUP1 DUP3 MSTORE DUP1 PUSH1 0x1F ADD PUSH1 0x1F NOT AND PUSH1 0x20 ADD DUP3 ADD PUSH1 0x40 MSTORE DUP1 ISZERO PUSH2 0x17C0 JUMPI PUSH1 0x20 DUP3 ADD DUP2 DUP1 CALLDATASIZE DUP4 CALLDATACOPY ADD SWAP1 POP JUMPDEST POP SWAP1 POP DUP2 DUP2 ADD PUSH1 0x20 ADD JUMPDEST PUSH1 0x0 NOT ADD PUSH16 0x181899199A1A9B1B9C1CB0B131B232B3 PUSH1 0x81 SHL PUSH1 0xA DUP7 MOD BYTE DUP2 MSTORE8 PUSH1 0xA DUP6 DIV SWAP5 POP DUP5 PUSH2 0x17CA JUMPI POP SWAP4 SWAP3 POP POP POP JUMP JUMPDEST PUSH1 0x0 DUP1 JUMPDEST DUP4 SLOAD DUP2 LT ISZERO PUSH2 0x1851 JUMPI DUP3 PUSH1 0x1 PUSH1 0x1 PUSH1 0xA0 SHL SUB AND DUP5 DUP3 DUP2 SLOAD DUP2 LT PUSH2 0x1825 JUMPI PUSH2 0x1825 PUSH2 0x1D87 JUMP JUMPDEST PUSH1 0x0 SWAP2 DUP3 MSTORE PUSH1 0x20 SWAP1 SWAP2 KECCAK256 ADD SLOAD PUSH1 0x1 PUSH1 0x1 PUSH1 0xA0 SHL SUB AND SUB PUSH2 0x1849 JUMPI PUSH1 0x1 SWAP2 POP POP PUSH2 0x10FA JUMP JUMPDEST PUSH1 0x1 ADD PUSH2 0x1800 JUMP JUMPDEST POP PUSH1 0x0 SWAP4 SWAP3 POP POP POP JUMP JUMPDEST PUSH1 0x0 SLOAD PUSH1 0x1 PUSH1 0x1 PUSH1 0xA0 SHL SUB AND CALLER EQ PUSH2 0x10DF JUMPI PUSH1 0x40 MLOAD PUSH4 0x118CDAA7 PUSH1 0xE0 SHL DUP2 MSTORE CALLER PUSH1 0x4 DUP3 ADD MSTORE PUSH1 0x24 ADD PUSH2 0x198 JUMP JUMPDEST PUSH1 0x0 DUP1 SLOAD PUSH1 0x1 PUSH1 0x1 PUSH1 0xA0 SHL SUB DUP4 DUP2 AND PUSH1 0x1 PUSH1 0x1 PUSH1 0xA0 SHL SUB NOT DUP4 AND DUP2 OR DUP5 SSTORE PUSH1 0x40 MLOAD SWAP2 SWAP1 SWAP3 AND SWAP3 DUP4 SWAP2 PUSH32 0x8BE0079C531659141344CD1FD0A4F28419497F9722A3DAAFE3B4186F6B6457E0 SWAP2 SWAP1 LOG3 POP POP JUMP JUMPDEST PUSH1 0x0 DUP1 PUSH19 0x184F03E93FF9F4DAA797ED6E38ED64BF6A1F01 PUSH1 0x40 SHL DUP4 LT PUSH2 0x1917 JUMPI PUSH19 0x184F03E93FF9F4DAA797ED6E38ED64BF6A1F01 PUSH1 0x40 SHL DUP4 DIV SWAP3 POP PUSH1 0x40 ADD JUMPDEST PUSH14 0x4EE2D6D415B85ACEF8100000000 DUP4 LT PUSH2 0x1943 JUMPI PUSH14 0x4EE2D6D415B85ACEF8100000000 DUP4 DIV SWAP3 POP PUSH1 0x20 ADD JUMPDEST PUSH7 0x2386F26FC10000 DUP4 LT PUSH2 0x1961 JUMPI PUSH7 0x2386F26FC10000 DUP4 DIV SWAP3 POP PUSH1 0x10 ADD JUMPDEST PUSH4 0x5F5E100 DUP4 LT PUSH2 0x1979 JUMPI PUSH4 0x5F5E100 DUP4 DIV SWAP3 POP PUSH1 0x8 ADD JUMPDEST PUSH2 0x2710 DUP4 LT PUSH2 0x198D JUMPI PUSH2 0x2710 DUP4 DIV SWAP3 POP PUSH1 0x4 ADD JUMPDEST PUSH1 0x64 DUP4 LT PUSH2 0x199F JUMPI PUSH1 0x64 DUP4 DIV SWAP3 POP PUSH1 0x2 ADD JUMPDEST PUSH1 0xA DUP4 LT PUSH2 0x10FA JUMPI PUSH1 0x1 ADD SWAP3 SWAP2 POP POP JUMP JUMPDEST DUP1 CALLDATALOAD PUSH1 0x1 PUSH1 0x1 PUSH1 0xA0 SHL SUB DUP2 AND DUP2 EQ PUSH2 0x19C7 JUMPI PUSH1 0x0 DUP1 REVERT JUMPDEST SWAP2 SWAP1 POP JUMP JUMPDEST PUSH1 0x0 PUSH1 0x20 DUP3 DUP5 SUB SLT ISZERO PUSH2 0x19DE JUMPI PUSH1 0x0 DUP1 REVERT JUMPDEST PUSH2 0x19E7 DUP3 PUSH2 0x19B0 JUMP JUMPDEST SWAP4 SWAP3 POP POP POP JUMP JUMPDEST PUSH1 0x0 DUP1 PUSH1 0x0 DUP1 PUSH1 0x0 PUSH1 0x80 DUP7 DUP9 SUB SLT ISZERO PUSH2 0x1A06 JUMPI PUSH1 0x0 DUP1 REVERT JUMPDEST DUP6 CALLDATALOAD PUSH8 0xFFFFFFFFFFFFFFFF DUP2 GT ISZERO PUSH2 0x1A1D JUMPI PUSH1 0x0 DUP1 REVERT JUMPDEST DUP7 ADD PUSH1 0x1F DUP2 ADD DUP9 SGT PUSH2 0x1A2E JUMPI PUSH1 0x0 DUP1 REVERT JUMPDEST DUP1 CALLDATALOAD PUSH8 0xFFFFFFFFFFFFFFFF DUP2 GT ISZERO PUSH2 0x1A45 JUMPI PUSH1 0x0 DUP1 REVERT JUMPDEST DUP9 PUSH1 0x20 DUP3 DUP5 ADD ADD GT ISZERO PUSH2 0x1A57 JUMPI PUSH1 0x0 DUP1 REVERT JUMPDEST PUSH1 0x20 SWAP2 DUP3 ADD SWAP7 POP SWAP5 POP PUSH2 0x1A6B SWAP1 DUP8 ADD PUSH2 0x19B0 JUMP JUMPDEST SWAP3 POP PUSH2 0x1A79 PUSH1 0x40 DUP8 ADD PUSH2 0x19B0 JUMP JUMPDEST SWAP5 SWAP8 SWAP4 SWAP7 POP SWAP2 SWAP5 PUSH1 0x60 ADD CALLDATALOAD SWAP3 SWAP2 POP POP JUMP JUMPDEST PUSH1 0x0 PUSH1 0x20 DUP3 DUP5 SUB SLT ISZERO PUSH2 0x1A9C JUMPI PUSH1 0x0 DUP1 REVERT JUMPDEST POP CALLDATALOAD SWAP2 SWAP1 POP JUMP JUMPDEST PUSH1 0x20 DUP1 DUP3 MSTORE DUP3 MLOAD DUP3 DUP3 ADD DUP2 SWAP1 MSTORE PUSH1 0x0 SWAP2 DUP5 ADD SWAP1 PUSH1 0x40 DUP5 ADD SWAP1 DUP4 JUMPDEST DUP2 DUP2 LT ISZERO PUSH2 0x1AE4 JUMPI DUP4 MLOAD PUSH1 0x1 PUSH1 0x1 PUSH1 0xA0 SHL SUB AND DUP4 MSTORE PUSH1 0x20 SWAP4 DUP5 ADD SWAP4 SWAP1 SWAP3 ADD SWAP2 PUSH1 0x1 ADD PUSH2 0x1ABD JUMP JUMPDEST POP SWAP1 SWAP6 SWAP5 POP POP POP POP POP JUMP JUMPDEST PUSH1 0x0 DUP1 PUSH1 0x40 DUP4 DUP6 SUB SLT ISZERO PUSH2 0x1B02 JUMPI PUSH1 0x0 DUP1 REVERT JUMPDEST DUP3 CALLDATALOAD SWAP2 POP PUSH2 0x1B12 PUSH1 0x20 DUP5 ADD PUSH2 0x19B0 JUMP JUMPDEST SWAP1 POP SWAP3 POP SWAP3 SWAP1 POP JUMP JUMPDEST PUSH1 0x0 DUP1 PUSH1 0x40 DUP4 DUP6 SUB SLT ISZERO PUSH2 0x1B2E JUMPI PUSH1 0x0 DUP1 REVERT JUMPDEST PUSH2 0x1B37 DUP4 PUSH2 0x19B0 JUMP JUMPDEST SWAP5 PUSH1 0x20 SWAP4 SWAP1 SWAP4 ADD CALLDATALOAD SWAP4 POP POP POP JUMP JUMPDEST PUSH1 0x0 DUP1 PUSH1 0x40 DUP4 DUP6 SUB SLT ISZERO PUSH2 0x1B58 JUMPI PUSH1 0x0 DUP1 REVERT JUMPDEST DUP3 CALLDATALOAD SWAP2 POP PUSH1 0x20 DUP4 ADD CALLDATALOAD PUSH1 0x3 DUP2 LT PUSH2 0x1B6E JUMPI PUSH1 0x0 DUP1 REVERT JUMPDEST DUP1 SWAP2 POP POP SWAP3 POP SWAP3 SWAP1 POP JUMP JUMPDEST PUSH1 0x0 JUMPDEST DUP4 DUP2 LT ISZERO PUSH2 0x1B94 JUMPI DUP2 DUP2 ADD MLOAD DUP4 DUP3 ADD MSTORE PUSH1 0x20 ADD PUSH2 0x1B7C JUMP JUMPDEST POP POP PUSH1 0x0 SWAP2 ADD MSTORE JUMP JUMPDEST PUSH21 0x21B0B73737BA1030B2321036B7B932903A3430B71 PUSH1 0x5D SHL DUP2 MSTORE PUSH1 0x0 DUP3 MLOAD PUSH2 0x1BCD DUP2 PUSH1 0x15 DUP6 ADD PUSH1 0x20 DUP8 ADD PUSH2 0x1B79 JUMP JUMPDEST PUSH18 0x103130B1B5BAB81030B2323932B9B9B2B997 PUSH1 0x71 SHL PUSH1 0x15 SWAP4 SWAP1 SWAP2 ADD SWAP3 DUP4 ADD MSTORE POP PUSH1 0x27 ADD SWAP2 SWAP1 POP JUMP JUMPDEST PUSH1 0x20 DUP2 MSTORE PUSH1 0x0 DUP3 MLOAD DUP1 PUSH1 0x20 DUP5 ADD MSTORE PUSH2 0x1C15 DUP2 PUSH1 0x40 DUP6 ADD PUSH1 0x20 DUP8 ADD PUSH2 0x1B79 JUMP JUMPDEST PUSH1 0x1F ADD PUSH1 0x1F NOT AND SWAP2 SWAP1 SWAP2 ADD PUSH1 0x40 ADD SWAP3 SWAP2 POP POP JUMP JUMPDEST PUSH1 0x20 DUP1 DUP3 MSTORE PUSH1 0x26 SWAP1 DUP3 ADD MSTORE PUSH32 0x4465706F73697420616D6F756E74206D75737420626520677265617465722074 PUSH1 0x40 DUP3 ADD MSTORE PUSH6 0x3430B7101817 PUSH1 0xD1 SHL PUSH1 0x60 DUP3 ADD MSTORE PUSH1 0x80 ADD SWAP1 JUMP JUMPDEST PUSH4 0x4E487B71 PUSH1 0xE0 SHL PUSH1 0x0 MSTORE PUSH1 0x11 PUSH1 0x4 MSTORE PUSH1 0x24 PUSH1 0x0 REVERT JUMPDEST DUP1 DUP3 ADD DUP1 DUP3 GT ISZERO PUSH2 0x10FA JUMPI PUSH2 0x10FA PUSH2 0x1C6F JUMP JUMPDEST DUP2 DUP4 DUP3 CALLDATACOPY PUSH1 0x0 SWAP2 ADD SWAP1 DUP2 MSTORE SWAP2 SWAP1 POP JUMP JUMPDEST PUSH1 0x0 DUP3 PUSH2 0x1CC5 JUMPI PUSH4 0x4E487B71 PUSH1 0xE0 SHL PUSH1 0x0 MSTORE PUSH1 0x12 PUSH1 0x4 MSTORE PUSH1 0x24 PUSH1 0x0 REVERT JUMPDEST POP DIV SWAP1 JUMP JUMPDEST DUP2 DUP2 SUB DUP2 DUP2 GT ISZERO PUSH2 0x10FA JUMPI PUSH2 0x10FA PUSH2 0x1C6F JUMP JUMPDEST DUP1 DUP3 MUL DUP2 ISZERO DUP3 DUP3 DIV DUP5 EQ OR PUSH2 0x10FA JUMPI PUSH2 0x10FA PUSH2 0x1C6F JUMP JUMPDEST PUSH1 0x20 DUP1 DUP3 MSTORE PUSH1 0x29 SWAP1 DUP3 ADD MSTORE PUSH32 0x5769746864726177616C20616D6F756E74206D75737420626520677265617465 PUSH1 0x40 DUP3 ADD MSTORE PUSH9 0x39103A3430B7101817 PUSH1 0xB9 SHL PUSH1 0x60 DUP3 ADD MSTORE PUSH1 0x80 ADD SWAP1 JUMP JUMPDEST PUSH1 0x20 DUP1 DUP3 MSTORE PUSH1 0x2A SWAP1 DUP3 ADD MSTORE PUSH32 0x43616C6C6572206973206E6F7420612072656769737465726564206261636B75 PUSH1 0x40 DUP3 ADD MSTORE PUSH10 0x381030B2323932B9B997 PUSH1 0xB1 SHL PUSH1 0x60 DUP3 ADD MSTORE PUSH1 0x80 ADD SWAP1 JUMP JUMPDEST PUSH4 0x4E487B71 PUSH1 0xE0 SHL PUSH1 0x0 MSTORE PUSH1 0x32 PUSH1 0x4 MSTORE PUSH1 0x24 PUSH1 0x0 REVERT JUMPDEST PUSH4 0x4E487B71 PUSH1 0xE0 SHL PUSH1 0x0 MSTORE PUSH1 0x31 PUSH1 0x4 MSTORE PUSH1 0x24 PUSH1 0x0 REVERT JUMPDEST PUSH4 0x4E487B71 PUSH1 0xE0 SHL PUSH1 0x0 MSTORE PUSH1 0x21 PUSH1 0x4 MSTORE PUSH1 0x24 PUSH1 0x0 REVERT JUMPDEST PUSH1 0x20 DUP2 ADD PUSH1 0x3 DUP4 LT PUSH2 0x1DEB JUMPI PUSH4 0x4E487B71 PUSH1 0xE0 SHL PUSH1 0x0 MSTORE PUSH1 0x21 PUSH1 0x4 MSTORE PUSH1 0x24 PUSH1 0x0 REVERT JUMPDEST SWAP2 SWAP1 MSTORE SWAP1 JUMP JUMPDEST PUSH4 0x4E487B71 PUSH1 0xE0 SHL PUSH1 0x0 MSTORE PUSH1 0x41 PUSH1 0x4 MSTORE PUSH1 0x24 PUSH1 0x0 REVERT INVALID PUSH9 0x510E4A026E1E6EB57D MOD SWAP2 0xA8 SWAP1 COINBASE SWAP3 PUSH1 0x5A 0xE5 CREATE2 0xC8 0xC1 0xE0 0xC8 PUSH25 0xBCFD8299F56132A2646970667358221220DC873DEC30BF1F16 CODESIZE 0xB9 0xE6 SELFBALANCE SWAP4 SAR CALLVALUE PUSH16 0x9D8ABDAFC5645608C162F15AB074FDFC PUSH5 0x736F6C6343 STOP ADDMOD SHR STOP CALLER "},"gasEstimates":{"creation":{"codeDepositCost":"1554600","executionCost":"27487","totalCost":"1582087"},"external":{"":"358","addBackupAddress(address)":"infinite","backupAddresses(address,uint256)":"4806","calculateFee(uint256)":"infinite","depositStakes()":"26375","depositStakes(address)":"infinite","feePercentage()":"251","feesCollected()":"2350","games(bytes32)":"9025","getBackupAddresses(address)":"infinite","getBalance(address)":"2658","getGame(bytes32)":"9255","getLockedStake(address)":"2571","lockedStakes(address)":"2641","maxBackupAddresses()":"295","owner()":"2431","removeBackupAddress(address)":"infinite","renounceOwnership()":"infinite","resolveGame(bytes32,uint8)":"infinite","startGame(string,address,address,uint256)":"infinite","transferOwnership(address)":"28421","userBalances(address)":"2576","withdrawFees(uint256)":"infinite","withdrawStakes(uint256)":"infinite","withdrawStakes(uint256,address)":"infinite"},"internal":{"contains(address[] storage pointer,address)":"infinite"}},"methodIdentifiers":{"addBackupAddress(address)":"08db7f85","backupAddresses(address,uint256)":"d3856e55","calculateFee(uint256)":"99a5d747","depositStakes()":"2177457d","depositStakes(address)":"a105e149","feePercentage()":"a001ecdd","feesCollected()":"f071db5a","games(bytes32)":"f579f882","getBackupAddresses(address)":"4ac5c559","getBalance(address)":"f8b2cb4f","getGame(bytes32)":"73931bbf","getLockedStake(address)":"9e2c63da","lockedStakes(address)":"92417dc7","maxBackupAddresses()":"ae6ba4cc","owner()":"8da5cb5b","removeBackupAddress(address)":"cfce8913","renounceOwnership()":"715018a6","resolveGame(bytes32,uint8)":"e703dd54","startGame(string,address,address,uint256)":"2f78808c","transferOwnership(address)":"f2fde38b","userBalances(address)":"26224c64","withdrawFees(uint256)":"5e318e07","withdrawStakes(uint256)":"410390ec","withdrawStakes(uint256,address)":"5aaccf69"}},"storageLayout":{"storage":[{"astId":8,"contract":"contracts/ORTBet.sol:ORTBet","label":"_owner","offset":0,"slot":"0","type":"t_address"},{"astId":4954,"contract":"contracts/ORTBet.sol:ORTBet","label":"userBalances","offset":0,"slot":"1","type":"t_mapping(t_address,t_uint256)"},{"astId":4958,"contract":"contracts/ORTBet.sol:ORTBet","label":"lockedStakes","offset":0,"slot":"2","type":"t_mapping(t_address,t_uint256)"},{"astId":4963,"contract":"contracts/ORTBet.sol:ORTBet","label":"games","offset":0,"slot":"3","type":"t_mapping(t_bytes32,t_struct(Game)5052_storage)"},{"astId":4968,"contract":"contracts/ORTBet.sol:ORTBet","label":"backupAddresses","offset":0,"slot":"4","type":"t_mapping(t_address,t_array(t_address)dyn_storage)"},{"astId":4976,"contract":"contracts/ORTBet.sol:ORTBet","label":"feesCollected","offset":0,"slot":"5","type":"t_uint256"}],"types":{"t_address":{"encoding":"inplace","label":"address","numberOfBytes":"20"},"t_array(t_address)dyn_storage":{"base":"t_address","encoding":"dynamic_array","label":"address[]","numberOfBytes":"32"},"t_bool":{"encoding":"inplace","label":"bool","numberOfBytes":"1"},"t_bytes32":{"encoding":"inplace","label":"bytes32","numberOfBytes":"32"},"t_mapping(t_address,t_array(t_address)dyn_storage)":{"encoding":"mapping","key":"t_address","label":"mapping(address => address[])","numberOfBytes":"32","value":"t_array(t_address)dyn_storage"},"t_mapping(t_address,t_uint256)":{"encoding":"mapping","key":"t_address","label":"mapping(address => uint256)","numberOfBytes":"32","value":"t_uint256"},"t_mapping(t_bytes32,t_struct(Game)5052_storage)":{"encoding":"mapping","key":"t_bytes32","label":"mapping(bytes32 => struct ORTBet.Game)","numberOfBytes":"32","value":"t_struct(Game)5052_storage"},"t_struct(Game)5052_storage":{"encoding":"inplace","label":"struct ORTBet.Game","members":[{"astId":5045,"contract":"contracts/ORTBet.sol:ORTBet","label":"player1","offset":0,"slot":"0","type":"t_address"},{"astId":5047,"contract":"contracts/ORTBet.sol:ORTBet","label":"player2","offset":0,"slot":"1","type":"t_address"},{"astId":5049,"contract":"contracts/ORTBet.sol:ORTBet","label":"stakeAmount","offset":0,"slot":"2","type":"t_uint256"},{"astId":5051,"contract":"contracts/ORTBet.sol:ORTBet","label":"ongoing","offset":0,"slot":"3","type":"t_bool"}],"numberOfBytes":"128"},"t_uint256":{"encoding":"inplace","label":"uint256","numberOfBytes":"32"}}},"userdoc":{"kind":"user","methods":{},"version":1}}}}