{
  "_format": "hh-sol-artifact-1",
  "contractName": "ORTBet",
  "sourceName": "contracts/ORTBet.sol",
  "abi": [
    {
      "inputs": [],
      "stateMutability": "nonpayable",
      "type": "constructor"
    },
    {
      "inputs": [
        {
          "internalType": "address",
          "name": "owner",
          "type": "address"
        }
      ],
      "name": "OwnableInvalidOwner",
      "type": "error"
    },
    {
      "inputs": [
        {
          "internalType": "address",
          "name": "account",
          "type": "address"
        }
      ],
      "name": "OwnableUnauthorizedAccount",
      "type": "error"
    },
    {
      "anonymous": false,
      "inputs": [
        {
          "indexed": true,
          "internalType": "address",
          "name": "backupAddress",
          "type": "address"
        },
        {
          "indexed": true,
          "internalType": "address",
          "name": "owner",
          "type": "address"
        }
      ],
      "name": "BackupAddressAdded",
      "type": "event"
    },
    {
      "anonymous": false,
      "inputs": [
        {
          "indexed": true,
          "internalType": "address",
          "name": "backupAddress",
          "type": "address"
        },
        {
          "indexed": true,
          "internalType": "address",
          "name": "owner",
          "type": "address"
        }
      ],
      "name": "BackupAddressRemoved",
      "type": "event"
    },
    {
      "anonymous": false,
      "inputs": [
        {
          "indexed": true,
          "internalType": "address",
          "name": "owner",
          "type": "address"
        },
        {
          "indexed": false,
          "internalType": "uint256",
          "name": "amount",
          "type": "uint256"
        }
      ],
      "name": "FeesWithdrawn",
      "type": "event"
    },
    {
      "anonymous": false,
      "inputs": [
        {
          "indexed": true,
          "internalType": "bytes32",
          "name": "gameId",
          "type": "bytes32"
        },
        {
          "indexed": false,
          "internalType": "enum ORTBet.GameResult",
          "name": "result",
          "type": "uint8"
        }
      ],
      "name": "GameResolved",
      "type": "event"
    },
    {
      "anonymous": false,
      "inputs": [
        {
          "indexed": true,
          "internalType": "bytes32",
          "name": "gameId",
          "type": "bytes32"
        },
        {
          "indexed": true,
          "internalType": "address",
          "name": "player1",
          "type": "address"
        },
        {
          "indexed": true,
          "internalType": "address",
          "name": "player2",
          "type": "address"
        },
        {
          "indexed": false,
          "internalType": "uint256",
          "name": "stakeAmount",
          "type": "uint256"
        }
      ],
      "name": "GameStarted",
      "type": "event"
    },
    {
      "anonymous": false,
      "inputs": [
        {
          "indexed": true,
          "internalType": "address",
          "name": "previousOwner",
          "type": "address"
        },
        {
          "indexed": true,
          "internalType": "address",
          "name": "newOwner",
          "type": "address"
        }
      ],
      "name": "OwnershipTransferred",
      "type": "event"
    },
    {
      "anonymous": false,
      "inputs": [
        {
          "indexed": true,
          "internalType": "address",
          "name": "player",
          "type": "address"
        },
        {
          "indexed": true,
          "internalType": "address",
          "name": "depositAddress",
          "type": "address"
        },
        {
          "indexed": false,
          "internalType": "uint256",
          "name": "amount",
          "type": "uint256"
        }
      ],
      "name": "StakesDeposited",
      "type": "event"
    },
    {
      "anonymous": false,
      "inputs": [
        {
          "indexed": true,
          "internalType": "address",
          "name": "player",
          "type": "address"
        },
        {
          "indexed": false,
          "internalType": "uint256",
          "name": "amount",
          "type": "uint256"
        }
      ],
      "name": "StakesLocked",
      "type": "event"
    },
    {
      "anonymous": false,
      "inputs": [
        {
          "indexed": true,
          "internalType": "address",
          "name": "player",
          "type": "address"
        },
        {
          "indexed": false,
          "internalType": "uint256",
          "name": "amount",
          "type": "uint256"
        }
      ],
      "name": "StakesUnlocked",
      "type": "event"
    },
    {
      "anonymous": false,
      "inputs": [
        {
          "indexed": true,
          "internalType": "address",
          "name": "player",
          "type": "address"
        },
        {
          "indexed": true,
          "internalType": "address",
          "name": "withdrawalAddress",
          "type": "address"
        },
        {
          "indexed": false,
          "internalType": "uint256",
          "name": "amount",
          "type": "uint256"
        }
      ],
      "name": "StakesWithdrawn",
      "type": "event"
    },
    {
      "stateMutability": "payable",
      "type": "fallback"
    },
    {
      "inputs": [
        {
          "internalType": "address",
          "name": "_backupAddress",
          "type": "address"
        }
      ],
      "name": "addBackupAddress",
      "outputs": [],
      "stateMutability": "nonpayable",
      "type": "function"
    },
    {
      "inputs": [
        {
          "internalType": "address",
          "name": "",
          "type": "address"
        },
        {
          "internalType": "uint256",
          "name": "",
          "type": "uint256"
        }
      ],
      "name": "backupAddresses",
      "outputs": [
        {
          "internalType": "address",
          "name": "",
          "type": "address"
        }
      ],
      "stateMutability": "view",
      "type": "function"
    },
    {
      "inputs": [
        {
          "internalType": "uint256",
          "name": "_amount",
          "type": "uint256"
        }
      ],
      "name": "calculateFee",
      "outputs": [
        {
          "internalType": "uint256",
          "name": "",
          "type": "uint256"
        }
      ],
      "stateMutability": "pure",
      "type": "function"
    },
    {
      "inputs": [],
      "name": "depositStakes",
      "outputs": [],
      "stateMutability": "payable",
      "type": "function"
    },
    {
      "inputs": [
        {
          "internalType": "address",
          "name": "_mainAddress",
          "type": "address"
        }
      ],
      "name": "depositStakes",
      "outputs": [],
      "stateMutability": "payable",
      "type": "function"
    },
    {
      "inputs": [],
      "name": "feePercentage",
      "outputs": [
        {
          "internalType": "uint256",
          "name": "",
          "type": "uint256"
        }
      ],
      "stateMutability": "view",
      "type": "function"
    },
    {
      "inputs": [],
      "name": "feesCollected",
      "outputs": [
        {
          "internalType": "uint256",
          "name": "",
          "type": "uint256"
        }
      ],
      "stateMutability": "view",
      "type": "function"
    },
    {
      "inputs": [
        {
          "internalType": "bytes32",
          "name": "",
          "type": "bytes32"
        }
      ],
      "name": "games",
      "outputs": [
        {
          "internalType": "address",
          "name": "player1",
          "type": "address"
        },
        {
          "internalType": "address",
          "name": "player2",
          "type": "address"
        },
        {
          "internalType": "uint256",
          "name": "stakeAmount",
          "type": "uint256"
        },
        {
          "internalType": "bool",
          "name": "ongoing",
          "type": "bool"
        }
      ],
      "stateMutability": "view",
      "type": "function"
    },
    {
      "inputs": [
        {
          "internalType": "address",
          "name": "_mainAddress",
          "type": "address"
        }
      ],
      "name": "getBackupAddresses",
      "outputs": [
        {
          "internalType": "address[]",
          "name": "",
          "type": "address[]"
        }
      ],
      "stateMutability": "view",
      "type": "function"
    },
    {
      "inputs": [
        {
          "internalType": "address",
          "name": "_userAddress",
          "type": "address"
        }
      ],
      "name": "getBalance",
      "outputs": [
        {
          "internalType": "uint256",
          "name": "",
          "type": "uint256"
        }
      ],
      "stateMutability": "view",
      "type": "function"
    },
    {
      "inputs": [
        {
          "internalType": "bytes32",
          "name": "_gameId",
          "type": "bytes32"
        }
      ],
      "name": "getGame",
      "outputs": [
        {
          "components": [
            {
              "internalType": "address",
              "name": "player1",
              "type": "address"
            },
            {
              "internalType": "address",
              "name": "player2",
              "type": "address"
            },
            {
              "internalType": "uint256",
              "name": "stakeAmount",
              "type": "uint256"
            },
            {
              "internalType": "bool",
              "name": "ongoing",
              "type": "bool"
            }
          ],
          "internalType": "struct ORTBet.Game",
          "name": "",
          "type": "tuple"
        }
      ],
      "stateMutability": "view",
      "type": "function"
    },
    {
      "inputs": [
        {
          "internalType": "address",
          "name": "_userAddress",
          "type": "address"
        }
      ],
      "name": "getLockedStake",
      "outputs": [
        {
          "internalType": "uint256",
          "name": "",
          "type": "uint256"
        }
      ],
      "stateMutability": "view",
      "type": "function"
    },
    {
      "inputs": [
        {
          "internalType": "address",
          "name": "",
          "type": "address"
        }
      ],
      "name": "lockedStakes",
      "outputs": [
        {
          "internalType": "uint256",
          "name": "",
          "type": "uint256"
        }
      ],
      "stateMutability": "view",
      "type": "function"
    },
    {
      "inputs": [],
      "name": "maxBackupAddresses",
      "outputs": [
        {
          "internalType": "uint256",
          "name": "",
          "type": "uint256"
        }
      ],
      "stateMutability": "view",
      "type": "function"
    },
    {
      "inputs": [],
      "name": "owner",
      "outputs": [
        {
          "internalType": "address",
          "name": "",
          "type": "address"
        }
      ],
      "stateMutability": "view",
      "type": "function"
    },
    {
      "inputs": [
        {
          "internalType": "address",
          "name": "_backupAddress",
          "type": "address"
        }
      ],
      "name": "removeBackupAddress",
      "outputs": [],
      "stateMutability": "nonpayable",
      "type": "function"
    },
    {
      "inputs": [],
      "name": "renounceOwnership",
      "outputs": [],
      "stateMutability": "nonpayable",
      "type": "function"
    },
    {
      "inputs": [
        {
          "internalType": "bytes32",
          "name": "_gameId",
          "type": "bytes32"
        },
        {
          "internalType": "enum ORTBet.GameResult",
          "name": "_result",
          "type": "uint8"
        }
      ],
      "name": "resolveGame",
      "outputs": [],
      "stateMutability": "nonpayable",
      "type": "function"
    },
    {
      "inputs": [
        {
          "internalType": "string",
          "name": "_gameId",
          "type": "string"
        },
        {
          "internalType": "address",
          "name": "_player1",
          "type": "address"
        },
        {
          "internalType": "address",
          "name": "_player2",
          "type": "address"
        },
        {
          "internalType": "uint256",
          "name": "_stakeAmount",
          "type": "uint256"
        }
      ],
      "name": "startGame",
      "outputs": [],
      "stateMutability": "nonpayable",
      "type": "function"
    },
    {
      "inputs": [
        {
          "internalType": "address",
          "name": "newOwner",
          "type": "address"
        }
      ],
      "name": "transferOwnership",
      "outputs": [],
      "stateMutability": "nonpayable",
      "type": "function"
    },
    {
      "inputs": [
        {
          "internalType": "address",
          "name": "",
          "type": "address"
        }
      ],
      "name": "userBalances",
      "outputs": [
        {
          "internalType": "uint256",
          "name": "",
          "type": "uint256"
        }
      ],
      "stateMutability": "view",
      "type": "function"
    },
    {
      "inputs": [
        {
          "internalType": "uint256",
          "name": "_amount",
          "type": "uint256"
        }
      ],
      "name": "withdrawFees",
      "outputs": [],
      "stateMutability": "nonpayable",
      "type": "function"
    },
    {
      "inputs": [
        {
          "internalType": "uint256",
          "name": "_amount",
          "type": "uint256"
        }
      ],
      "name": "withdrawStakes",
      "outputs": [],
      "stateMutability": "nonpayable",
      "type": "function"
    },
    {
      "inputs": [
        {
          "internalType": "uint256",
          "name": "_amount",
          "type": "uint256"
        },
        {
          "internalType": "address",
          "name": "_mainAddress",
          "type": "address"
        }
      ],
      "name": "withdrawStakes",
      "outputs": [],
      "stateMutability": "nonpayable",
      "type": "function"
    },
    {
      "stateMutability": "payable",
      "type": "receive"
    }
  ],
  "bytecode": "0x6080604052348015600f57600080fd5b503380603557604051631e4fbdf760e01b81526000600482015260240160405180910390fd5b603c816041565b506091565b600080546001600160a01b038381166001600160a01b0319831681178455604051919092169283917f8be0079c531659141344cd1fd0a4f28419497f9722a3daafe3b4186f6b6457e09190a35050565b611e5d806100a06000396000f3fe60806040526004361061014f5760003560e01c806399a5d747116100b6578063d3856e551161006f578063d3856e55146104e7578063e703dd5414610507578063f071db5a14610527578063f2fde38b1461053d578063f579f8821461055d578063f8b2cb4f146105de576101a1565b806399a5d747146104495780639e2c63da14610469578063a001ecdd1461049f578063a105e149146104b4578063ae6ba4cc1461049f578063cfce8913146104c7576101a1565b80635aaccf69116101085780635aaccf69146102c05780635e318e07146102e0578063715018a61461030057806373931bbf146103155780638da5cb5b146103ea57806392417dc71461041c576101a1565b806308db7f85146101e95780632177457d1461020b57806326224c64146102135780632f78808c14610253578063410390ec146102735780634ac5c55914610293576101a1565b366101a15760405162461bcd60e51b815260206004820152601c60248201527f446972656374206465706f73697473206e6f7420616c6c6f7765642e0000000060448201526064015b60405180910390fd5b60405162461bcd60e51b815260206004820152601860248201527f46756e6374696f6e20646f6573206e6f742065786973742e00000000000000006044820152606401610198565b3480156101f557600080fd5b506102096102043660046119cc565b610614565b005b610209610808565b34801561021f57600080fd5b5061024061022e3660046119cc565b60016020526000908152604090205481565b6040519081526020015b60405180910390f35b34801561025f57600080fd5b5061020961026e3660046119ee565b610885565b34801561027f57600080fd5b5061020961028e366004611a8a565b610d0d565b34801561029f57600080fd5b506102b36102ae3660046119cc565b610e18565b60405161024a9190611aa3565b3480156102cc57600080fd5b506102096102db366004611aef565b610e8e565b3480156102ec57600080fd5b506102096102fb366004611a8a565b610ff6565b34801561030c57600080fd5b506102096110cd565b34801561032157600080fd5b506103a7610330366004611a8a565b60408051608081018252600080825260208201819052918101829052606081019190915250600090815260036020818152604092839020835160808101855281546001600160a01b0390811682526001830154169281019290925260028101549382019390935291015460ff161515606082015290565b60405161024a919081516001600160a01b039081168252602080840151909116908201526040808301519082015260609182015115159181019190915260800190565b3480156103f657600080fd5b506000546001600160a01b03165b6040516001600160a01b03909116815260200161024a565b34801561042857600080fd5b506102406104373660046119cc565b60026020526000908152604090205481565b34801561045557600080fd5b50610240610464366004611a8a565b6110e1565b34801561047557600080fd5b506102406104843660046119cc565b6001600160a01b031660009081526002602052604090205490565b3480156104ab57600080fd5b50610240600381565b6102096104c23660046119cc565b611100565b3480156104d357600080fd5b506102096104e23660046119cc565b6111d1565b3480156104f357600080fd5b50610404610502366004611b1b565b611397565b34801561051357600080fd5b50610209610522366004611b45565b6113cf565b34801561053357600080fd5b5061024060055481565b34801561054957600080fd5b506102096105583660046119cc565b61172b565b34801561056957600080fd5b506105b1610578366004611a8a565b600360208190526000918252604090912080546001820154600283015492909301546001600160a01b0391821693909116919060ff1684565b604080516001600160a01b039586168152949093166020850152918301521515606082015260800161024a565b3480156105ea57600080fd5b506102406105f93660046119cc565b6001600160a01b031660009081526001602052604090205490565b3360009081526004602052604090205460039081119061063390611769565b6040516020016106439190611b9d565b604051602081830303815290604052906106705760405162461bcd60e51b81526004016101989190611bf6565b506001600160a01b0381166106d65760405162461bcd60e51b815260206004820152602660248201527f4261636b757020616464726573732063616e6e6f74206265207a65726f206164604482015265323932b9b99760d11b6064820152608401610198565b336001600160a01b038216036107395760405162461bcd60e51b815260206004820152602260248201527f43616e6e6f74207365742073656c66206173206261636b757020616464726573604482015261399760f11b6064820152608401610198565b33600090815260046020526040902061075290826117fc565b1561079f5760405162461bcd60e51b815260206004820152601d60248201527f4261636b7570206164647265737320616c72656164792061646465642e0000006044820152606401610198565b336000818152600460209081526040808320805460018101825590845291832090910180546001600160a01b0319166001600160a01b038616908117909155905190917f183963c107e526b4dc8ae0c8b5b960da3bddd00ae79c713ba806a69ab06ab97191a350565b600034116108285760405162461bcd60e51b815260040161019890611c29565b3360009081526001602052604081208054349290610847908490611c85565b9091555050604051348152339081907f029b53808e5ee258b1acdd8061a270b641aaded1f730ef560687f44a98827bdc9060200160405180910390a3565b61088d61185b565b600085856040516020016108a2929190611c98565b60408051601f198184030181529181528151602092830120600081815260039093529120600201549091501561091a5760405162461bcd60e51b815260206004820152601760248201527f47616d6520494420616c7265616479206578697374732e0000000000000000006044820152606401610198565b6001600160a01b0384161580159061093a57506001600160a01b03831615155b6109865760405162461bcd60e51b815260206004820152601760248201527f496e76616c696420706c6179657220616464726573732e0000000000000000006044820152606401610198565b600082116109e25760405162461bcd60e51b8152602060048201526024808201527f5f7374616b65416d6f756e74206d7573742062652067726561746572207468616044820152633710181760e11b6064820152608401610198565b6001600160a01b038416600090815260016020526040902054821115610a4a5760405162461bcd60e51b815260206004820152601f60248201527f506c61796572312068617320696e73756666696369656e742066756e64732e006044820152606401610198565b6001600160a01b038316600090815260016020526040902054821115610ab25760405162461bcd60e51b815260206004820152601f60248201527f506c61796572322068617320696e73756666696369656e742066756e64732e006044820152606401610198565b60006002610abf846110e1565b610ac99190611ca8565b90506000610ad78285611cca565b6001600160a01b038716600090815260016020526040812080549293508392909190610b04908490611cca565b90915550506001600160a01b03851660009081526001602052604081208054839290610b31908490611cca565b90915550506001600160a01b03861660009081526002602052604081208054839290610b5e908490611c85565b90915550506001600160a01b03851660009081526002602052604081208054839290610b8b908490611c85565b90915550610b9c9050826002611cdd565b60056000828254610bad9190611c85565b9091555050604080516080810182526001600160a01b03808916808352888216602080850191825284860187815260016060870181815260008c8152600394859052899020975188549088166001600160a01b031991821617895594519188018054929097169190941617909455925160028501555192909101805492151560ff199093169290921790915590517f41375446217eacab943f69f43e90965cbed73a9648b36f7c1276c8e76bb67bad90610c6a9084815260200190565b60405180910390a2846001600160a01b03167f41375446217eacab943f69f43e90965cbed73a9648b36f7c1276c8e76bb67bad82604051610cad91815260200190565b60405180910390a2846001600160a01b0316866001600160a01b0316847fca5be7d622fe97529270450062762f9bac7e27828ef7b8658af85234f44146cd87604051610cfb91815260200190565b60405180910390a45050505050505050565b60008111610d2d5760405162461bcd60e51b815260040161019890611cf4565b33600090815260016020526040902054811115610d8c5760405162461bcd60e51b815260206004820152601f60248201527f496e73756666696369656e742066756e647320746f2077697468647261772e006044820152606401610198565b3360009081526001602052604081208054839290610dab908490611cca565b9091555050604051339082156108fc029083906000818181858888f19350505050158015610ddd573d6000803e3d6000fd5b50604051818152339081907f2ecb67032ef4329934be5b0b0c0b7277932396db57a18598adde8fcba3d920349060200160405180910390a350565b6001600160a01b038116600090815260046020908152604091829020805483518184028101840190945280845260609392830182828015610e8257602002820191906000526020600020905b81546001600160a01b03168152600190910190602001808311610e64575b50505050509050919050565b6001600160a01b03811660009081526004602052604090208190610eb290336117fc565b610ece5760405162461bcd60e51b815260040161019890611d3d565b60008311610eee5760405162461bcd60e51b815260040161019890611cf4565b6001600160a01b038216600090815260016020526040902054831115610f565760405162461bcd60e51b815260206004820152601f60248201527f496e73756666696369656e742066756e647320746f2077697468647261772e006044820152606401610198565b6001600160a01b03821660009081526001602052604081208054859290610f7e908490611cca565b9091555050604051339084156108fc029085906000818181858888f19350505050158015610fb0573d6000803e3d6000fd5b5060405183815233906001600160a01b038416907f2ecb67032ef4329934be5b0b0c0b7277932396db57a18598adde8fcba3d920349060200160405180910390a3505050565b610ffe61185b565b8060055410156110505760405162461bcd60e51b815260206004820152601c60248201527f496e73756666696369656e74206665657320636f6c6c65637465642e000000006044820152606401610198565b80600560008282546110629190611cca565b9091555050604051339082156108fc029083906000818181858888f19350505050158015611094573d6000803e3d6000fd5b5060405181815233907fc0819c13be868895eb93e40eaceb96de976442fa1d404e5c55f14bb65a8c489a9060200160405180910390a250565b6110d561185b565b6110df6000611888565b565b600060646110f0600384611cdd565b6110fa9190611ca8565b92915050565b6001600160a01b0381166000908152600460205260409020819061112490336117fc565b6111405760405162461bcd60e51b815260040161019890611d3d565b600034116111605760405162461bcd60e51b815260040161019890611c29565b6001600160a01b03821660009081526001602052604081208054349290611188908490611c85565b909155505060405134815233906001600160a01b038416907f029b53808e5ee258b1acdd8061a270b641aaded1f730ef560687f44a98827bdc9060200160405180910390a35050565b3360009081526004602052604090206111ea90826117fc565b61124e5760405162461bcd60e51b815260206004820152602f60248201527f4e6f7420617574686f72697a656420746f2072656d6f7665207468697320726560448201526e31b7bb32b93c9030b2323932b9b99760891b6064820152608401610198565b336000908152600460205260408120905b815481101561139257826001600160a01b031682828154811061128457611284611d87565b6000918252602090912001546001600160a01b03160361138a57815482906112ae90600190611cca565b815481106112be576112be611d87565b9060005260206000200160009054906101000a90046001600160a01b03168282815481106112ee576112ee611d87565b9060005260206000200160006101000a8154816001600160a01b0302191690836001600160a01b031602179055508180548061132c5761132c611d9d565b600082815260208120820160001990810180546001600160a01b031916905590910190915560405133916001600160a01b038616917ffe51b55ea38e48cc7fb184d0d60446a88610b80da472d30aa215a652276157449190a3505050565b60010161125f565b505050565b600460205281600052604060002081815481106113b357600080fd5b6000918252602090912001546001600160a01b03169150829050565b6113d761185b565b6000828152600360208190526040909120015460ff166114515760405162461bcd60e51b815260206004820152602f60248201527f47616d6520656974686572206e6f742063726561746564206f7220697320616c60448201526e3932b0b23c903334b734b9b432b21760891b6064820152608401610198565b600082815260036020908152604080832060028082015482546001600160a01b03168652935290832080549193909161148b908490611cca565b909155505060028082015460018301546001600160a01b03166000908152602092909252604082208054919290916114c4908490611cca565b90915550600190508260028111156114de576114de611db3565b03611564576002808201546114f291611cdd565b81546001600160a01b03166000908152600160205260408120805490919061151b908490611c85565b909155505080546002808301546001600160a01b0390921691600080516020611e088339815191529161154e9190611cdd565b60405190815260200160405180910390a26116e0565b600282600281111561157857611578611db3565b036115f05760028082015461158c91611cdd565b6001828101546001600160a01b031660009081526020919091526040812080549091906115ba908490611c85565b909155505060018101546002808301546001600160a01b0390921691600080516020611e088339815191529161154e9190611cdd565b600082600281111561160457611604611db3565b036116e057600281015481546001600160a01b031660009081526001602052604081208054909190611637908490611c85565b909155505060028101546001808301546001600160a01b0316600090815260209190915260408120805490919061166f908490611c85565b9091555050805460028201546040519081526001600160a01b0390911690600080516020611e088339815191529060200160405180910390a2600181015460028201546040519081526001600160a01b0390911690600080516020611e088339815191529060200160405180910390a25b60038101805460ff1916905560405183907f84084530ad38987aaa9b1454bf4cbc496558210efbfe8ec98c3a6879f4e9a38a9061171e908590611dc9565b60405180910390a2505050565b61173361185b565b6001600160a01b03811661175d57604051631e4fbdf760e01b815260006004820152602401610198565b61176681611888565b50565b60606000611776836118d8565b600101905060008167ffffffffffffffff81111561179657611796611df1565b6040519080825280601f01601f1916602001820160405280156117c0576020820181803683370190505b5090508181016020015b600019016f181899199a1a9b1b9c1cb0b131b232b360811b600a86061a8153600a85049450846117ca57509392505050565b6000805b835481101561185157826001600160a01b031684828154811061182557611825611d87565b6000918252602090912001546001600160a01b0316036118495760019150506110fa565b600101611800565b5060009392505050565b6000546001600160a01b031633146110df5760405163118cdaa760e01b8152336004820152602401610198565b600080546001600160a01b038381166001600160a01b0319831681178455604051919092169283917f8be0079c531659141344cd1fd0a4f28419497f9722a3daafe3b4186f6b6457e09190a35050565b60008072184f03e93ff9f4daa797ed6e38ed64bf6a1f0160401b83106119175772184f03e93ff9f4daa797ed6e38ed64bf6a1f0160401b830492506040015b6d04ee2d6d415b85acef81000000008310611943576d04ee2d6d415b85acef8100000000830492506020015b662386f26fc10000831061196157662386f26fc10000830492506010015b6305f5e1008310611979576305f5e100830492506008015b612710831061198d57612710830492506004015b6064831061199f576064830492506002015b600a83106110fa5760010192915050565b80356001600160a01b03811681146119c757600080fd5b919050565b6000602082840312156119de57600080fd5b6119e7826119b0565b9392505050565b600080600080600060808688031215611a0657600080fd5b853567ffffffffffffffff811115611a1d57600080fd5b8601601f81018813611a2e57600080fd5b803567ffffffffffffffff811115611a4557600080fd5b886020828401011115611a5757600080fd5b602091820196509450611a6b9087016119b0565b9250611a79604087016119b0565b949793965091946060013592915050565b600060208284031215611a9c57600080fd5b5035919050565b602080825282518282018190526000918401906040840190835b81811015611ae45783516001600160a01b0316835260209384019390920191600101611abd565b509095945050505050565b60008060408385031215611b0257600080fd5b82359150611b12602084016119b0565b90509250929050565b60008060408385031215611b2e57600080fd5b611b37836119b0565b946020939093013593505050565b60008060408385031215611b5857600080fd5b82359150602083013560038110611b6e57600080fd5b809150509250929050565b60005b83811015611b94578181015183820152602001611b7c565b50506000910152565b74021b0b73737ba1030b2321036b7b932903a3430b71605d1b815260008251611bcd816015850160208701611b79565b71103130b1b5bab81030b2323932b9b9b2b99760711b6015939091019283015250602701919050565b6020815260008251806020840152611c15816040850160208701611b79565b601f01601f19169190910160400192915050565b60208082526026908201527f4465706f73697420616d6f756e74206d757374206265206772656174657220746040820152653430b710181760d11b606082015260800190565b634e487b7160e01b600052601160045260246000fd5b808201808211156110fa576110fa611c6f565b8183823760009101908152919050565b600082611cc557634e487b7160e01b600052601260045260246000fd5b500490565b818103818111156110fa576110fa611c6f565b80820281158282048414176110fa576110fa611c6f565b60208082526029908201527f5769746864726177616c20616d6f756e74206d7573742062652067726561746560408201526839103a3430b710181760b91b606082015260800190565b6020808252602a908201527f43616c6c6572206973206e6f7420612072656769737465726564206261636b75604082015269381030b2323932b9b99760b11b606082015260800190565b634e487b7160e01b600052603260045260246000fd5b634e487b7160e01b600052603160045260246000fd5b634e487b7160e01b600052602160045260246000fd5b6020810160038310611deb57634e487b7160e01b600052602160045260246000fd5b91905290565b634e487b7160e01b600052604160045260246000fdfe68510e4a026e1e6eb57d0691a8904192605ae5f5c8c1e0c878bcfd8299f56132a2646970667358221220dc873dec30bf1f1638b9e647931d346f9d8abdafc5645608c162f15ab074fdfc64736f6c634300081c0033",
  "linkReferences": {},
  "deployedLinkReferences": {}
}