{
  "_format": "hh-sol-artifact-1",
  "contractName": "ORTBet",
  "sourceName": "contracts/ORTBet.sol",
  "abi": [
    {
      "inputs": [],
      "stateMutability": "nonpayable",
      "type": "constructor"
    },
    {
      "inputs": [
        {
          "internalType": "address",
          "name": "owner",
          "type": "address"
        }
      ],
      "name": "OwnableInvalidOwner",
      "type": "error"
    },
    {
      "inputs": [
        {
          "internalType": "address",
          "name": "account",
          "type": "address"
        }
      ],
      "name": "OwnableUnauthorizedAccount",
      "type": "error"
    },
    {
      "anonymous": false,
      "inputs": [
        {
          "indexed": true,
          "internalType": "bytes32",
          "name": "gameId",
          "type": "bytes32"
        },
        {
          "indexed": false,
          "internalType": "enum ORTBet.GameResult",
          "name": "result",
          "type": "uint8"
        }
      ],
      "name": "GameResolved",
      "type": "event"
    },
    {
      "anonymous": false,
      "inputs": [
        {
          "indexed": true,
          "internalType": "bytes32",
          "name": "gameId",
          "type": "bytes32"
        },
        {
          "indexed": true,
          "internalType": "address",
          "name": "player1",
          "type": "address"
        },
        {
          "indexed": true,
          "internalType": "address",
          "name": "player2",
          "type": "address"
        },
        {
          "indexed": false,
          "internalType": "uint256",
          "name": "stakeAmount",
          "type": "uint256"
        }
      ],
      "name": "GameStarted",
      "type": "event"
    },
    {
      "anonymous": false,
      "inputs": [
        {
          "indexed": true,
          "internalType": "address",
          "name": "previousOwner",
          "type": "address"
        },
        {
          "indexed": true,
          "internalType": "address",
          "name": "newOwner",
          "type": "address"
        }
      ],
      "name": "OwnershipTransferred",
      "type": "event"
    },
    {
      "anonymous": false,
      "inputs": [
        {
          "indexed": true,
          "internalType": "address",
          "name": "player",
          "type": "address"
        },
        {
          "indexed": false,
          "internalType": "uint256",
          "name": "amount",
          "type": "uint256"
        }
      ],
      "name": "StakesDeposited",
      "type": "event"
    },
    {
      "anonymous": false,
      "inputs": [
        {
          "indexed": true,
          "internalType": "address",
          "name": "player",
          "type": "address"
        },
        {
          "indexed": false,
          "internalType": "uint256",
          "name": "amount",
          "type": "uint256"
        }
      ],
      "name": "StakesLocked",
      "type": "event"
    },
    {
      "anonymous": false,
      "inputs": [
        {
          "indexed": true,
          "internalType": "address",
          "name": "player",
          "type": "address"
        },
        {
          "indexed": false,
          "internalType": "uint256",
          "name": "amount",
          "type": "uint256"
        }
      ],
      "name": "StakesUnlocked",
      "type": "event"
    },
    {
      "anonymous": false,
      "inputs": [
        {
          "indexed": true,
          "internalType": "address",
          "name": "player",
          "type": "address"
        },
        {
          "indexed": false,
          "internalType": "uint256",
          "name": "amount",
          "type": "uint256"
        }
      ],
      "name": "StakesWithdrawn",
      "type": "event"
    },
    {
      "inputs": [
        {
          "internalType": "uint256",
          "name": "_amount",
          "type": "uint256"
        }
      ],
      "name": "calculateFee",
      "outputs": [
        {
          "internalType": "uint256",
          "name": "",
          "type": "uint256"
        }
      ],
      "stateMutability": "pure",
      "type": "function"
    },
    {
      "inputs": [],
      "name": "depositStakes",
      "outputs": [],
      "stateMutability": "payable",
      "type": "function"
    },
    {
      "inputs": [],
      "name": "feeRate",
      "outputs": [
        {
          "internalType": "uint256",
          "name": "",
          "type": "uint256"
        }
      ],
      "stateMutability": "view",
      "type": "function"
    },
    {
      "inputs": [],
      "name": "feesCollected",
      "outputs": [
        {
          "internalType": "uint256",
          "name": "",
          "type": "uint256"
        }
      ],
      "stateMutability": "view",
      "type": "function"
    },
    {
      "inputs": [
        {
          "internalType": "bytes32",
          "name": "",
          "type": "bytes32"
        }
      ],
      "name": "games",
      "outputs": [
        {
          "internalType": "address",
          "name": "player1",
          "type": "address"
        },
        {
          "internalType": "address",
          "name": "player2",
          "type": "address"
        },
        {
          "internalType": "uint256",
          "name": "stakeAmount",
          "type": "uint256"
        },
        {
          "internalType": "bool",
          "name": "active",
          "type": "bool"
        }
      ],
      "stateMutability": "view",
      "type": "function"
    },
    {
      "inputs": [
        {
          "internalType": "address",
          "name": "_userAddress",
          "type": "address"
        }
      ],
      "name": "getBalance",
      "outputs": [
        {
          "internalType": "uint256",
          "name": "",
          "type": "uint256"
        }
      ],
      "stateMutability": "view",
      "type": "function"
    },
    {
      "inputs": [
        {
          "internalType": "bytes32",
          "name": "_gameId",
          "type": "bytes32"
        }
      ],
      "name": "getGame",
      "outputs": [
        {
          "components": [
            {
              "internalType": "address",
              "name": "player1",
              "type": "address"
            },
            {
              "internalType": "address",
              "name": "player2",
              "type": "address"
            },
            {
              "internalType": "uint256",
              "name": "stakeAmount",
              "type": "uint256"
            },
            {
              "internalType": "bool",
              "name": "active",
              "type": "bool"
            }
          ],
          "internalType": "struct ORTBet.Game",
          "name": "",
          "type": "tuple"
        }
      ],
      "stateMutability": "view",
      "type": "function"
    },
    {
      "inputs": [
        {
          "internalType": "address",
          "name": "_userAddress",
          "type": "address"
        }
      ],
      "name": "getLockedStake",
      "outputs": [
        {
          "internalType": "uint256",
          "name": "",
          "type": "uint256"
        }
      ],
      "stateMutability": "view",
      "type": "function"
    },
    {
      "inputs": [
        {
          "internalType": "address",
          "name": "",
          "type": "address"
        }
      ],
      "name": "lockedStakes",
      "outputs": [
        {
          "internalType": "uint256",
          "name": "",
          "type": "uint256"
        }
      ],
      "stateMutability": "view",
      "type": "function"
    },
    {
      "inputs": [],
      "name": "owner",
      "outputs": [
        {
          "internalType": "address",
          "name": "",
          "type": "address"
        }
      ],
      "stateMutability": "view",
      "type": "function"
    },
    {
      "inputs": [],
      "name": "renounceOwnership",
      "outputs": [],
      "stateMutability": "nonpayable",
      "type": "function"
    },
    {
      "inputs": [
        {
          "internalType": "bytes32",
          "name": "_gameId",
          "type": "bytes32"
        },
        {
          "internalType": "enum ORTBet.GameResult",
          "name": "_result",
          "type": "uint8"
        }
      ],
      "name": "resolveGame",
      "outputs": [],
      "stateMutability": "nonpayable",
      "type": "function"
    },
    {
      "inputs": [
        {
          "internalType": "string",
          "name": "_gameId",
          "type": "string"
        },
        {
          "internalType": "address",
          "name": "_player1",
          "type": "address"
        },
        {
          "internalType": "address",
          "name": "_player2",
          "type": "address"
        },
        {
          "internalType": "uint256",
          "name": "_stakeAmount",
          "type": "uint256"
        }
      ],
      "name": "startGame",
      "outputs": [],
      "stateMutability": "nonpayable",
      "type": "function"
    },
    {
      "inputs": [
        {
          "internalType": "address",
          "name": "newOwner",
          "type": "address"
        }
      ],
      "name": "transferOwnership",
      "outputs": [],
      "stateMutability": "nonpayable",
      "type": "function"
    },
    {
      "inputs": [
        {
          "internalType": "address",
          "name": "",
          "type": "address"
        }
      ],
      "name": "userBalances",
      "outputs": [
        {
          "internalType": "uint256",
          "name": "",
          "type": "uint256"
        }
      ],
      "stateMutability": "view",
      "type": "function"
    },
    {
      "inputs": [
        {
          "internalType": "uint256",
          "name": "_amount",
          "type": "uint256"
        }
      ],
      "name": "withdrawFees",
      "outputs": [],
      "stateMutability": "nonpayable",
      "type": "function"
    },
    {
      "inputs": [
        {
          "internalType": "uint256",
          "name": "amount",
          "type": "uint256"
        }
      ],
      "name": "withdrawStakes",
      "outputs": [],
      "stateMutability": "nonpayable",
      "type": "function"
    },
    {
      "stateMutability": "payable",
      "type": "receive"
    }
  ],
  "bytecode": "0x6080604052348015600f57600080fd5b503380603557604051631e4fbdf760e01b81526000600482015260240160405180910390fd5b603c816041565b506091565b600080546001600160a01b038381166001600160a01b0319831681178455604051919092169283917f8be0079c531659141344cd1fd0a4f28419497f9722a3daafe3b4186f6b6457e09190a35050565b6112a0806100a06000396000f3fe6080604052600436106101025760003560e01c806392417dc711610095578063e703dd5411610064578063e703dd54146103ad578063f071db5a146103cd578063f2fde38b146103e3578063f579f88214610403578063f8b2cb4f1461048457600080fd5b806392417dc714610315578063978bbdb91461034257806399a5d747146103575780639e2c63da1461037757600080fd5b80635e318e07116100d15780635e318e07146101e3578063715018a61461020357806373931bbf146102185780638da5cb5b146102ed57600080fd5b80632177457d1461015957806326224c64146101635780632f78808c146101a3578063410390ec146101c357600080fd5b366101545760405162461bcd60e51b815260206004820152601c60248201527f446972656374206465706f73697473206e6f7420616c6c6f7765642e0000000060448201526064015b60405180910390fd5b600080fd5b6101616104ba565b005b34801561016f57600080fd5b5061019061017e36600461107c565b60016020526000908152604090205481565b6040519081526020015b60405180910390f35b3480156101af57600080fd5b506101616101be36600461109e565b6105a6565b3480156101cf57600080fd5b506101616101de36600461113a565b610a2e565b3480156101ef57600080fd5b506101616101fe36600461113a565b610b73565b34801561020f57600080fd5b50610161610c15565b34801561022457600080fd5b506102aa61023336600461113a565b60408051608081018252600080825260208201819052918101829052606081019190915250600090815260036020818152604092839020835160808101855281546001600160a01b0390811682526001830154169281019290925260028101549382019390935291015460ff161515606082015290565b60405161019a919081516001600160a01b039081168252602080840151909116908201526040808301519082015260609182015115159181019190915260800190565b3480156102f957600080fd5b506000546040516001600160a01b03909116815260200161019a565b34801561032157600080fd5b5061019061033036600461107c565b60026020526000908152604090205481565b34801561034e57600080fd5b50610190600381565b34801561036357600080fd5b5061019061037236600461113a565b610c29565b34801561038357600080fd5b5061019061039236600461107c565b6001600160a01b031660009081526002602052604090205490565b3480156103b957600080fd5b506101616103c8366004611153565b610c49565b3480156103d957600080fd5b5061019060045481565b3480156103ef57600080fd5b506101616103fe36600461107c565b610fa5565b34801561040f57600080fd5b5061045761041e36600461113a565b600360208190526000918252604090912080546001820154600283015492909301546001600160a01b0391821693909116919060ff1684565b604080516001600160a01b039586168152949093166020850152918301521515606082015260800161019a565b34801561049057600080fd5b5061019061049f36600461107c565b6001600160a01b031660009081526001602052604090205490565b600034116105195760405162461bcd60e51b815260206004820152602660248201527f4465706f73697420616d6f756e74206d757374206265206772656174657220746044820152653430b710181760d11b606482015260840161014b565b600061052434610c29565b9050610530813461119d565b336000908152600160205260408120805490919061054f9084906111b0565b92505081905550806004600082825461056891906111b0565b909155505060405134815233907f8a84d5a52e90630e4ce7bdb59bd09c7f9345a27ba7c417b08682fae34ad142d5906020015b60405180910390a250565b6105ae610fe3565b600085856040516020016105c39291906111c3565b60408051601f198184030181529181528151602092830120600081815260039093529120600201549091501561063b5760405162461bcd60e51b815260206004820152601760248201527f47616d6520494420616c7265616479206578697374732e000000000000000000604482015260640161014b565b6001600160a01b0384161580159061065b57506001600160a01b03831615155b6106a75760405162461bcd60e51b815260206004820152601760248201527f496e76616c696420706c6179657220616464726573732e000000000000000000604482015260640161014b565b600082116107035760405162461bcd60e51b8152602060048201526024808201527f5f7374616b65416d6f756e74206d7573742062652067726561746572207468616044820152633710181760e11b606482015260840161014b565b6001600160a01b03841660009081526001602052604090205482111561076b5760405162461bcd60e51b815260206004820152601f60248201527f506c61796572312068617320696e73756666696369656e742066756e64732e00604482015260640161014b565b6001600160a01b0383166000908152600160205260409020548211156107d35760405162461bcd60e51b815260206004820152601f60248201527f506c61796572322068617320696e73756666696369656e742066756e64732e00604482015260640161014b565b600060026107e084610c29565b6107ea91906111d3565b905060006107f8828561119d565b6001600160a01b03871660009081526001602052604081208054929350839290919061082590849061119d565b90915550506001600160a01b0385166000908152600160205260408120805483929061085290849061119d565b90915550506001600160a01b0386166000908152600260205260408120805483929061087f9084906111b0565b90915550506001600160a01b038516600090815260026020526040812080548392906108ac9084906111b0565b909155506108bd90508260026111f5565b600460008282546108ce91906111b0565b9091555050604080516080810182526001600160a01b03808916808352888216602080850191825284860187815260016060870181815260008c8152600394859052899020975188549088166001600160a01b031991821617895594519188018054929097169190941617909455925160028501555192909101805492151560ff199093169290921790915590517f41375446217eacab943f69f43e90965cbed73a9648b36f7c1276c8e76bb67bad9061098b9084815260200190565b60405180910390a2846001600160a01b03167f41375446217eacab943f69f43e90965cbed73a9648b36f7c1276c8e76bb67bad826040516109ce91815260200190565b60405180910390a2846001600160a01b0316866001600160a01b0316847fca5be7d622fe97529270450062762f9bac7e27828ef7b8658af85234f44146cd87604051610a1c91815260200190565b60405180910390a45050505050505050565b60008111610a905760405162461bcd60e51b815260206004820152602960248201527f5769746864726177616c20616d6f756e74206d7573742062652067726561746560448201526839103a3430b710181760b91b606482015260840161014b565b33600090815260016020526040902054811115610aef5760405162461bcd60e51b815260206004820152601f60248201527f496e73756666696369656e742066756e647320746f2077697468647261772e00604482015260640161014b565b3360009081526001602052604081208054839290610b0e90849061119d565b9091555050604051339082156108fc029083906000818181858888f19350505050158015610b40573d6000803e3d6000fd5b5060405181815233907f75ded28a7f8d2c34347ec4a9961ec6edff2da2e8a30f2988131f68b61d806b7b9060200161059b565b610b7b610fe3565b806004541015610bcd5760405162461bcd60e51b815260206004820152601c60248201527f496e73756666696369656e74206665657320636f6c6c65637465642e00000000604482015260640161014b565b8060046000828254610bdf919061119d565b9091555050604051339082156108fc029083906000818181858888f19350505050158015610c11573d6000803e3d6000fd5b5050565b610c1d610fe3565b610c276000611010565b565b60006003610c39612710846111d3565b610c4391906111f5565b92915050565b610c51610fe3565b6000828152600360208190526040909120015460ff16610ccb5760405162461bcd60e51b815260206004820152602f60248201527f47616d6520656974686572206e6f742063726561746564206f7220697320616c60448201526e3932b0b23c903334b734b9b432b21760891b606482015260840161014b565b600082815260036020908152604080832060028082015482546001600160a01b031686529352908320805491939091610d0590849061119d565b909155505060028082015460018301546001600160a01b0316600090815260209290925260408220805491929091610d3e90849061119d565b9091555060019050826002811115610d5857610d5861120c565b03610dde57600280820154610d6c916111f5565b81546001600160a01b031660009081526001602052604081208054909190610d959084906111b0565b909155505080546002808301546001600160a01b039092169160008051602061124b83398151915291610dc891906111f5565b60405190815260200160405180910390a2610f5a565b6002826002811115610df257610df261120c565b03610e6a57600280820154610e06916111f5565b6001828101546001600160a01b03166000908152602091909152604081208054909190610e349084906111b0565b909155505060018101546002808301546001600160a01b039092169160008051602061124b83398151915291610dc891906111f5565b6000826002811115610e7e57610e7e61120c565b03610f5a57600281015481546001600160a01b031660009081526001602052604081208054909190610eb19084906111b0565b909155505060028101546001808301546001600160a01b03166000908152602091909152604081208054909190610ee99084906111b0565b9091555050805460028201546040519081526001600160a01b039091169060008051602061124b8339815191529060200160405180910390a2600181015460028201546040519081526001600160a01b039091169060008051602061124b8339815191529060200160405180910390a25b60038101805460ff1916905560405183907f84084530ad38987aaa9b1454bf4cbc496558210efbfe8ec98c3a6879f4e9a38a90610f98908590611222565b60405180910390a2505050565b610fad610fe3565b6001600160a01b038116610fd757604051631e4fbdf760e01b81526000600482015260240161014b565b610fe081611010565b50565b6000546001600160a01b03163314610c275760405163118cdaa760e01b815233600482015260240161014b565b600080546001600160a01b038381166001600160a01b0319831681178455604051919092169283917f8be0079c531659141344cd1fd0a4f28419497f9722a3daafe3b4186f6b6457e09190a35050565b80356001600160a01b038116811461107757600080fd5b919050565b60006020828403121561108e57600080fd5b61109782611060565b9392505050565b6000806000806000608086880312156110b657600080fd5b853567ffffffffffffffff8111156110cd57600080fd5b8601601f810188136110de57600080fd5b803567ffffffffffffffff8111156110f557600080fd5b88602082840101111561110757600080fd5b60209182019650945061111b908701611060565b925061112960408701611060565b949793965091946060013592915050565b60006020828403121561114c57600080fd5b5035919050565b6000806040838503121561116657600080fd5b8235915060208301356003811061117c57600080fd5b809150509250929050565b634e487b7160e01b600052601160045260246000fd5b81810381811115610c4357610c43611187565b80820180821115610c4357610c43611187565b8183823760009101908152919050565b6000826111f057634e487b7160e01b600052601260045260246000fd5b500490565b8082028115828204841417610c4357610c43611187565b634e487b7160e01b600052602160045260246000fd5b602081016003831061124457634e487b7160e01b600052602160045260246000fd5b9190529056fe68510e4a026e1e6eb57d0691a8904192605ae5f5c8c1e0c878bcfd8299f56132a26469706673582212207075d00fabd69b42859c55aa27ab5df433de49222c816ddcd70fb8913bd31e3f64736f6c634300081c0033",
  "linkReferences": {},
  "deployedLinkReferences": {}
}