{
  "_format": "hh-sol-artifact-1",
  "contractName": "ORTBet",
  "sourceName": "contracts/ORTBet.sol",
  "abi": [
    {
      "inputs": [],
      "stateMutability": "nonpayable",
      "type": "constructor"
    },
    {
      "inputs": [
        {
          "internalType": "address",
          "name": "owner",
          "type": "address"
        }
      ],
      "name": "OwnableInvalidOwner",
      "type": "error"
    },
    {
      "inputs": [
        {
          "internalType": "address",
          "name": "account",
          "type": "address"
        }
      ],
      "name": "OwnableUnauthorizedAccount",
      "type": "error"
    },
    {
      "anonymous": false,
      "inputs": [
        {
          "indexed": true,
          "internalType": "bytes32",
          "name": "gameId",
          "type": "bytes32"
        },
        {
          "indexed": false,
          "internalType": "enum ORTBet.GameResult",
          "name": "result",
          "type": "uint8"
        }
      ],
      "name": "GameResolved",
      "type": "event"
    },
    {
      "anonymous": false,
      "inputs": [
        {
          "indexed": true,
          "internalType": "bytes32",
          "name": "gameId",
          "type": "bytes32"
        },
        {
          "indexed": true,
          "internalType": "address",
          "name": "player1",
          "type": "address"
        },
        {
          "indexed": true,
          "internalType": "address",
          "name": "player2",
          "type": "address"
        },
        {
          "indexed": false,
          "internalType": "uint256",
          "name": "stakeAmount",
          "type": "uint256"
        }
      ],
      "name": "GameStarted",
      "type": "event"
    },
    {
      "anonymous": false,
      "inputs": [
        {
          "indexed": true,
          "internalType": "address",
          "name": "previousOwner",
          "type": "address"
        },
        {
          "indexed": true,
          "internalType": "address",
          "name": "newOwner",
          "type": "address"
        }
      ],
      "name": "OwnershipTransferred",
      "type": "event"
    },
    {
      "anonymous": false,
      "inputs": [
        {
          "indexed": true,
          "internalType": "address",
          "name": "player",
          "type": "address"
        },
        {
          "indexed": false,
          "internalType": "uint256",
          "name": "amount",
          "type": "uint256"
        }
      ],
      "name": "StakesDeposited",
      "type": "event"
    },
    {
      "anonymous": false,
      "inputs": [
        {
          "indexed": true,
          "internalType": "address",
          "name": "player",
          "type": "address"
        },
        {
          "indexed": false,
          "internalType": "uint256",
          "name": "amount",
          "type": "uint256"
        }
      ],
      "name": "StakesLocked",
      "type": "event"
    },
    {
      "anonymous": false,
      "inputs": [
        {
          "indexed": true,
          "internalType": "address",
          "name": "player",
          "type": "address"
        },
        {
          "indexed": false,
          "internalType": "uint256",
          "name": "amount",
          "type": "uint256"
        }
      ],
      "name": "StakesUnlocked",
      "type": "event"
    },
    {
      "anonymous": false,
      "inputs": [
        {
          "indexed": true,
          "internalType": "address",
          "name": "player",
          "type": "address"
        },
        {
          "indexed": false,
          "internalType": "uint256",
          "name": "amount",
          "type": "uint256"
        }
      ],
      "name": "StakesWithdrawn",
      "type": "event"
    },
    {
      "inputs": [
        {
          "internalType": "uint256",
          "name": "_amount",
          "type": "uint256"
        }
      ],
      "name": "calculateFee",
      "outputs": [
        {
          "internalType": "uint256",
          "name": "",
          "type": "uint256"
        }
      ],
      "stateMutability": "pure",
      "type": "function"
    },
    {
      "inputs": [],
      "name": "depositStakes",
      "outputs": [],
      "stateMutability": "payable",
      "type": "function"
    },
    {
      "inputs": [],
      "name": "feeRate",
      "outputs": [
        {
          "internalType": "uint256",
          "name": "",
          "type": "uint256"
        }
      ],
      "stateMutability": "view",
      "type": "function"
    },
    {
      "inputs": [],
      "name": "feesCollected",
      "outputs": [
        {
          "internalType": "uint256",
          "name": "",
          "type": "uint256"
        }
      ],
      "stateMutability": "view",
      "type": "function"
    },
    {
      "inputs": [
        {
          "internalType": "bytes32",
          "name": "",
          "type": "bytes32"
        }
      ],
      "name": "games",
      "outputs": [
        {
          "internalType": "address",
          "name": "player1",
          "type": "address"
        },
        {
          "internalType": "address",
          "name": "player2",
          "type": "address"
        },
        {
          "internalType": "uint256",
          "name": "stakeAmount",
          "type": "uint256"
        },
        {
          "internalType": "bool",
          "name": "active",
          "type": "bool"
        }
      ],
      "stateMutability": "view",
      "type": "function"
    },
    {
      "inputs": [
        {
          "internalType": "address",
          "name": "_userAddress",
          "type": "address"
        }
      ],
      "name": "getBalance",
      "outputs": [
        {
          "internalType": "uint256",
          "name": "",
          "type": "uint256"
        }
      ],
      "stateMutability": "view",
      "type": "function"
    },
    {
      "inputs": [
        {
          "internalType": "bytes32",
          "name": "_gameId",
          "type": "bytes32"
        }
      ],
      "name": "getGame",
      "outputs": [
        {
          "components": [
            {
              "internalType": "address",
              "name": "player1",
              "type": "address"
            },
            {
              "internalType": "address",
              "name": "player2",
              "type": "address"
            },
            {
              "internalType": "uint256",
              "name": "stakeAmount",
              "type": "uint256"
            },
            {
              "internalType": "bool",
              "name": "active",
              "type": "bool"
            }
          ],
          "internalType": "struct ORTBet.Game",
          "name": "",
          "type": "tuple"
        }
      ],
      "stateMutability": "view",
      "type": "function"
    },
    {
      "inputs": [
        {
          "internalType": "address",
          "name": "_userAddress",
          "type": "address"
        }
      ],
      "name": "getLockedStake",
      "outputs": [
        {
          "internalType": "uint256",
          "name": "",
          "type": "uint256"
        }
      ],
      "stateMutability": "view",
      "type": "function"
    },
    {
      "inputs": [
        {
          "internalType": "address",
          "name": "",
          "type": "address"
        }
      ],
      "name": "lockedStakes",
      "outputs": [
        {
          "internalType": "uint256",
          "name": "",
          "type": "uint256"
        }
      ],
      "stateMutability": "view",
      "type": "function"
    },
    {
      "inputs": [],
      "name": "owner",
      "outputs": [
        {
          "internalType": "address",
          "name": "",
          "type": "address"
        }
      ],
      "stateMutability": "view",
      "type": "function"
    },
    {
      "inputs": [],
      "name": "renounceOwnership",
      "outputs": [],
      "stateMutability": "nonpayable",
      "type": "function"
    },
    {
      "inputs": [
        {
          "internalType": "bytes32",
          "name": "_gameId",
          "type": "bytes32"
        },
        {
          "internalType": "enum ORTBet.GameResult",
          "name": "_result",
          "type": "uint8"
        }
      ],
      "name": "resolveGame",
      "outputs": [],
      "stateMutability": "nonpayable",
      "type": "function"
    },
    {
      "inputs": [
        {
          "internalType": "string",
          "name": "_gameId",
          "type": "string"
        },
        {
          "internalType": "address",
          "name": "_player1",
          "type": "address"
        },
        {
          "internalType": "address",
          "name": "_player2",
          "type": "address"
        },
        {
          "internalType": "uint256",
          "name": "_stakeAmount",
          "type": "uint256"
        }
      ],
      "name": "startGame",
      "outputs": [],
      "stateMutability": "nonpayable",
      "type": "function"
    },
    {
      "inputs": [
        {
          "internalType": "address",
          "name": "newOwner",
          "type": "address"
        }
      ],
      "name": "transferOwnership",
      "outputs": [],
      "stateMutability": "nonpayable",
      "type": "function"
    },
    {
      "inputs": [
        {
          "internalType": "address",
          "name": "",
          "type": "address"
        }
      ],
      "name": "userBalances",
      "outputs": [
        {
          "internalType": "uint256",
          "name": "",
          "type": "uint256"
        }
      ],
      "stateMutability": "view",
      "type": "function"
    },
    {
      "inputs": [
        {
          "internalType": "uint256",
          "name": "amount",
          "type": "uint256"
        }
      ],
      "name": "withdrawStakes",
      "outputs": [],
      "stateMutability": "nonpayable",
      "type": "function"
    },
    {
      "stateMutability": "payable",
      "type": "receive"
    }
  ],
  "bytecode": "0x6080604052348015600f57600080fd5b503380603557604051631e4fbdf760e01b81526000600482015260240160405180910390fd5b603c816041565b506091565b600080546001600160a01b038381166001600160a01b0319831681178455604051919092169283917f8be0079c531659141344cd1fd0a4f28419497f9722a3daafe3b4186f6b6457e09190a35050565b6111d3806100a06000396000f3fe6080604052600436106100f75760003560e01c8063978bbdb91161008a578063f071db5a11610059578063f071db5a146103a2578063f2fde38b146103b8578063f579f882146103d8578063f8b2cb4f1461045957600080fd5b8063978bbdb91461031757806399a5d7471461032c5780639e2c63da1461034c578063e703dd541461038257600080fd5b8063715018a6116100c6578063715018a6146101d857806373931bbf146101ed5780638da5cb5b146102c257806392417dc7146102ea57600080fd5b80632177457d1461014e57806326224c64146101585780632f78808c14610198578063410390ec146101b857600080fd5b366101495760405162461bcd60e51b815260206004820152601c60248201527f446972656374206465706f73697473206e6f7420616c6c6f7765642e0000000060448201526064015b60405180910390fd5b600080fd5b61015661048f565b005b34801561016457600080fd5b50610185610173366004610faf565b60016020526000908152604090205481565b6040519081526020015b60405180910390f35b3480156101a457600080fd5b506101566101b3366004610fd1565b61057b565b3480156101c457600080fd5b506101566101d336600461106d565b610a03565b3480156101e457600080fd5b50610156610b48565b3480156101f957600080fd5b5061027f61020836600461106d565b60408051608081018252600080825260208201819052918101829052606081019190915250600090815260036020818152604092839020835160808101855281546001600160a01b0390811682526001830154169281019290925260028101549382019390935291015460ff161515606082015290565b60405161018f919081516001600160a01b039081168252602080840151909116908201526040808301519082015260609182015115159181019190915260800190565b3480156102ce57600080fd5b506000546040516001600160a01b03909116815260200161018f565b3480156102f657600080fd5b50610185610305366004610faf565b60026020526000908152604090205481565b34801561032357600080fd5b50610185600381565b34801561033857600080fd5b5061018561034736600461106d565b610b5c565b34801561035857600080fd5b50610185610367366004610faf565b6001600160a01b031660009081526002602052604090205490565b34801561038e57600080fd5b5061015661039d366004611086565b610b7c565b3480156103ae57600080fd5b5061018560045481565b3480156103c457600080fd5b506101566103d3366004610faf565b610ed8565b3480156103e457600080fd5b5061042c6103f336600461106d565b600360208190526000918252604090912080546001820154600283015492909301546001600160a01b0391821693909116919060ff1684565b604080516001600160a01b039586168152949093166020850152918301521515606082015260800161018f565b34801561046557600080fd5b50610185610474366004610faf565b6001600160a01b031660009081526001602052604090205490565b600034116104ee5760405162461bcd60e51b815260206004820152602660248201527f4465706f73697420616d6f756e74206d757374206265206772656174657220746044820152653430b710181760d11b6064820152608401610140565b60006104f934610b5c565b905061050581346110d0565b33600090815260016020526040812080549091906105249084906110e3565b92505081905550806004600082825461053d91906110e3565b909155505060405134815233907f8a84d5a52e90630e4ce7bdb59bd09c7f9345a27ba7c417b08682fae34ad142d5906020015b60405180910390a250565b610583610f16565b600085856040516020016105989291906110f6565b60408051601f19818403018152918152815160209283012060008181526003909352912060020154909150156106105760405162461bcd60e51b815260206004820152601760248201527f47616d6520494420616c7265616479206578697374732e0000000000000000006044820152606401610140565b6001600160a01b0384161580159061063057506001600160a01b03831615155b61067c5760405162461bcd60e51b815260206004820152601760248201527f496e76616c696420706c6179657220616464726573732e0000000000000000006044820152606401610140565b600082116106d85760405162461bcd60e51b8152602060048201526024808201527f5f7374616b65416d6f756e74206d7573742062652067726561746572207468616044820152633710181760e11b6064820152608401610140565b6001600160a01b0384166000908152600160205260409020548211156107405760405162461bcd60e51b815260206004820152601f60248201527f506c61796572312068617320696e73756666696369656e742066756e64732e006044820152606401610140565b6001600160a01b0383166000908152600160205260409020548211156107a85760405162461bcd60e51b815260206004820152601f60248201527f506c61796572322068617320696e73756666696369656e742066756e64732e006044820152606401610140565b600060026107b584610b5c565b6107bf9190611106565b905060006107cd82856110d0565b6001600160a01b0387166000908152600160205260408120805492935083929091906107fa9084906110d0565b90915550506001600160a01b038516600090815260016020526040812080548392906108279084906110d0565b90915550506001600160a01b038616600090815260026020526040812080548392906108549084906110e3565b90915550506001600160a01b038516600090815260026020526040812080548392906108819084906110e3565b909155506108929050826002611128565b600460008282546108a391906110e3565b9091555050604080516080810182526001600160a01b03808916808352888216602080850191825284860187815260016060870181815260008c8152600394859052899020975188549088166001600160a01b031991821617895594519188018054929097169190941617909455925160028501555192909101805492151560ff199093169290921790915590517f41375446217eacab943f69f43e90965cbed73a9648b36f7c1276c8e76bb67bad906109609084815260200190565b60405180910390a2846001600160a01b03167f41375446217eacab943f69f43e90965cbed73a9648b36f7c1276c8e76bb67bad826040516109a391815260200190565b60405180910390a2846001600160a01b0316866001600160a01b0316847fca5be7d622fe97529270450062762f9bac7e27828ef7b8658af85234f44146cd876040516109f191815260200190565b60405180910390a45050505050505050565b60008111610a655760405162461bcd60e51b815260206004820152602960248201527f5769746864726177616c20616d6f756e74206d7573742062652067726561746560448201526839103a3430b710181760b91b6064820152608401610140565b33600090815260016020526040902054811115610ac45760405162461bcd60e51b815260206004820152601f60248201527f496e73756666696369656e742066756e647320746f2077697468647261772e006044820152606401610140565b3360009081526001602052604081208054839290610ae39084906110d0565b9091555050604051339082156108fc029083906000818181858888f19350505050158015610b15573d6000803e3d6000fd5b5060405181815233907f75ded28a7f8d2c34347ec4a9961ec6edff2da2e8a30f2988131f68b61d806b7b90602001610570565b610b50610f16565b610b5a6000610f43565b565b60006003610b6c61271084611106565b610b769190611128565b92915050565b610b84610f16565b6000828152600360208190526040909120015460ff16610bfe5760405162461bcd60e51b815260206004820152602f60248201527f47616d6520656974686572206e6f742063726561746564206f7220697320616c60448201526e3932b0b23c903334b734b9b432b21760891b6064820152608401610140565b600082815260036020908152604080832060028082015482546001600160a01b031686529352908320805491939091610c389084906110d0565b909155505060028082015460018301546001600160a01b0316600090815260209290925260408220805491929091610c719084906110d0565b9091555060019050826002811115610c8b57610c8b61113f565b03610d1157600280820154610c9f91611128565b81546001600160a01b031660009081526001602052604081208054909190610cc89084906110e3565b909155505080546002808301546001600160a01b039092169160008051602061117e83398151915291610cfb9190611128565b60405190815260200160405180910390a2610e8d565b6002826002811115610d2557610d2561113f565b03610d9d57600280820154610d3991611128565b6001828101546001600160a01b03166000908152602091909152604081208054909190610d679084906110e3565b909155505060018101546002808301546001600160a01b039092169160008051602061117e83398151915291610cfb9190611128565b6000826002811115610db157610db161113f565b03610e8d57600281015481546001600160a01b031660009081526001602052604081208054909190610de49084906110e3565b909155505060028101546001808301546001600160a01b03166000908152602091909152604081208054909190610e1c9084906110e3565b9091555050805460028201546040519081526001600160a01b039091169060008051602061117e8339815191529060200160405180910390a2600181015460028201546040519081526001600160a01b039091169060008051602061117e8339815191529060200160405180910390a25b60038101805460ff1916905560405183907f84084530ad38987aaa9b1454bf4cbc496558210efbfe8ec98c3a6879f4e9a38a90610ecb908590611155565b60405180910390a2505050565b610ee0610f16565b6001600160a01b038116610f0a57604051631e4fbdf760e01b815260006004820152602401610140565b610f1381610f43565b50565b6000546001600160a01b03163314610b5a5760405163118cdaa760e01b8152336004820152602401610140565b600080546001600160a01b038381166001600160a01b0319831681178455604051919092169283917f8be0079c531659141344cd1fd0a4f28419497f9722a3daafe3b4186f6b6457e09190a35050565b80356001600160a01b0381168114610faa57600080fd5b919050565b600060208284031215610fc157600080fd5b610fca82610f93565b9392505050565b600080600080600060808688031215610fe957600080fd5b853567ffffffffffffffff81111561100057600080fd5b8601601f8101881361101157600080fd5b803567ffffffffffffffff81111561102857600080fd5b88602082840101111561103a57600080fd5b60209182019650945061104e908701610f93565b925061105c60408701610f93565b949793965091946060013592915050565b60006020828403121561107f57600080fd5b5035919050565b6000806040838503121561109957600080fd5b823591506020830135600381106110af57600080fd5b809150509250929050565b634e487b7160e01b600052601160045260246000fd5b81810381811115610b7657610b766110ba565b80820180821115610b7657610b766110ba565b8183823760009101908152919050565b60008261112357634e487b7160e01b600052601260045260246000fd5b500490565b8082028115828204841417610b7657610b766110ba565b634e487b7160e01b600052602160045260246000fd5b602081016003831061117757634e487b7160e01b600052602160045260246000fd5b9190529056fe68510e4a026e1e6eb57d0691a8904192605ae5f5c8c1e0c878bcfd8299f56132a2646970667358221220f01c0b88965cfdaec49b435d21a08b2f7d70b428f38daeea578110af8bbc062b64736f6c634300081c0033",
  "linkReferences": {},
  "deployedLinkReferences": {}
}