{
  "address": "0x2f60e89d26FB7a5e86DB7927d4f2fA96B029ba58",
  "abi": [
    {
      "inputs": [],
      "stateMutability": "nonpayable",
      "type": "constructor"
    },
    {
      "inputs": [],
      "name": "EnforcedPause",
      "type": "error"
    },
    {
      "inputs": [],
      "name": "ExpectedPause",
      "type": "error"
    },
    {
      "inputs": [
        {
          "internalType": "address",
          "name": "owner",
          "type": "address"
        }
      ],
      "name": "OwnableInvalidOwner",
      "type": "error"
    },
    {
      "inputs": [
        {
          "internalType": "address",
          "name": "account",
          "type": "address"
        }
      ],
      "name": "OwnableUnauthorizedAccount",
      "type": "error"
    },
    {
      "inputs": [],
      "name": "ReentrancyGuardReentrantCall",
      "type": "error"
    },
    {
      "inputs": [
        {
          "internalType": "address",
          "name": "nftContract",
          "type": "address"
        },
        {
          "internalType": "uint256",
          "name": "tokenId",
          "type": "uint256"
        }
      ],
      "name": "SellerNoLongerOwnsItem",
      "type": "error"
    },
    {
      "anonymous": false,
      "inputs": [
        {
          "indexed": false,
          "internalType": "address",
          "name": "nftContract",
          "type": "address"
        },
        {
          "indexed": false,
          "internalType": "uint256",
          "name": "tokenId",
          "type": "uint256"
        },
        {
          "indexed": false,
          "internalType": "address",
          "name": "seller",
          "type": "address"
        }
      ],
      "name": "ItemDelisted",
      "type": "event"
    },
    {
      "anonymous": false,
      "inputs": [
        {
          "indexed": false,
          "internalType": "address",
          "name": "nftContract",
          "type": "address"
        },
        {
          "indexed": false,
          "internalType": "uint256",
          "name": "tokenId",
          "type": "uint256"
        },
        {
          "indexed": false,
          "internalType": "address",
          "name": "seller",
          "type": "address"
        },
        {
          "indexed": false,
          "internalType": "uint256",
          "name": "price",
          "type": "uint256"
        },
        {
          "indexed": false,
          "internalType": "string",
          "name": "metadata",
          "type": "string"
        }
      ],
      "name": "ItemListed",
      "type": "event"
    },
    {
      "anonymous": false,
      "inputs": [
        {
          "indexed": false,
          "internalType": "address",
          "name": "nftContract",
          "type": "address"
        },
        {
          "indexed": false,
          "internalType": "uint256",
          "name": "tokenId",
          "type": "uint256"
        },
        {
          "indexed": false,
          "internalType": "string",
          "name": "oldMetadata",
          "type": "string"
        },
        {
          "indexed": false,
          "internalType": "string",
          "name": "newMetadata",
          "type": "string"
        }
      ],
      "name": "ItemMetadataUpdated",
      "type": "event"
    },
    {
      "anonymous": false,
      "inputs": [
        {
          "indexed": false,
          "internalType": "address",
          "name": "nftContract",
          "type": "address"
        },
        {
          "indexed": false,
          "internalType": "uint256",
          "name": "tokenId",
          "type": "uint256"
        },
        {
          "indexed": false,
          "internalType": "uint256",
          "name": "oldPrice",
          "type": "uint256"
        },
        {
          "indexed": false,
          "internalType": "uint256",
          "name": "newPrice",
          "type": "uint256"
        }
      ],
      "name": "ItemPriceUpdated",
      "type": "event"
    },
    {
      "anonymous": false,
      "inputs": [
        {
          "indexed": false,
          "internalType": "address",
          "name": "nftContract",
          "type": "address"
        },
        {
          "indexed": false,
          "internalType": "uint256",
          "name": "tokenId",
          "type": "uint256"
        },
        {
          "indexed": false,
          "internalType": "address",
          "name": "seller",
          "type": "address"
        },
        {
          "indexed": false,
          "internalType": "address",
          "name": "buyer",
          "type": "address"
        },
        {
          "indexed": false,
          "internalType": "uint256",
          "name": "price",
          "type": "uint256"
        }
      ],
      "name": "ItemSold",
      "type": "event"
    },
    {
      "anonymous": false,
      "inputs": [
        {
          "indexed": false,
          "internalType": "address",
          "name": "nftContract",
          "type": "address"
        }
      ],
      "name": "NFTApproved",
      "type": "event"
    },
    {
      "anonymous": false,
      "inputs": [
        {
          "indexed": false,
          "internalType": "address",
          "name": "nftContract",
          "type": "address"
        }
      ],
      "name": "NFTRemoved",
      "type": "event"
    },
    {
      "anonymous": false,
      "inputs": [
        {
          "indexed": true,
          "internalType": "address",
          "name": "previousOwner",
          "type": "address"
        },
        {
          "indexed": true,
          "internalType": "address",
          "name": "newOwner",
          "type": "address"
        }
      ],
      "name": "OwnershipTransferred",
      "type": "event"
    },
    {
      "anonymous": false,
      "inputs": [
        {
          "indexed": false,
          "internalType": "address",
          "name": "account",
          "type": "address"
        }
      ],
      "name": "Paused",
      "type": "event"
    },
    {
      "anonymous": false,
      "inputs": [
        {
          "indexed": false,
          "internalType": "address",
          "name": "account",
          "type": "address"
        }
      ],
      "name": "Unpaused",
      "type": "event"
    },
    {
      "inputs": [
        {
          "internalType": "address",
          "name": "nftContract",
          "type": "address"
        }
      ],
      "name": "addApprovedNFT",
      "outputs": [],
      "stateMutability": "nonpayable",
      "type": "function"
    },
    {
      "inputs": [
        {
          "internalType": "uint256",
          "name": "amount",
          "type": "uint256"
        }
      ],
      "name": "calcFee",
      "outputs": [
        {
          "internalType": "uint256",
          "name": "",
          "type": "uint256"
        }
      ],
      "stateMutability": "view",
      "type": "function"
    },
    {
      "inputs": [
        {
          "internalType": "address",
          "name": "nftContract",
          "type": "address"
        },
        {
          "internalType": "uint256",
          "name": "tokenId",
          "type": "uint256"
        }
      ],
      "name": "delistItem",
      "outputs": [],
      "stateMutability": "nonpayable",
      "type": "function"
    },
    {
      "inputs": [],
      "name": "feesCollected",
      "outputs": [
        {
          "internalType": "uint256",
          "name": "",
          "type": "uint256"
        }
      ],
      "stateMutability": "view",
      "type": "function"
    },
    {
      "inputs": [
        {
          "internalType": "address",
          "name": "nftContract",
          "type": "address"
        },
        {
          "internalType": "uint256",
          "name": "tokenId",
          "type": "uint256"
        }
      ],
      "name": "getListing",
      "outputs": [
        {
          "components": [
            {
              "internalType": "address",
              "name": "seller",
              "type": "address"
            },
            {
              "internalType": "uint256",
              "name": "price",
              "type": "uint256"
            },
            {
              "internalType": "string",
              "name": "metadata",
              "type": "string"
            }
          ],
          "internalType": "struct NietzschessNFTMarketplace.Listing",
          "name": "",
          "type": "tuple"
        }
      ],
      "stateMutability": "view",
      "type": "function"
    },
    {
      "inputs": [
        {
          "internalType": "address",
          "name": "nftContract",
          "type": "address"
        }
      ],
      "name": "isApprovedNFT",
      "outputs": [
        {
          "internalType": "bool",
          "name": "",
          "type": "bool"
        }
      ],
      "stateMutability": "view",
      "type": "function"
    },
    {
      "inputs": [
        {
          "internalType": "address",
          "name": "nftContract",
          "type": "address"
        },
        {
          "internalType": "uint256",
          "name": "tokenId",
          "type": "uint256"
        }
      ],
      "name": "isItemListed",
      "outputs": [
        {
          "internalType": "bool",
          "name": "",
          "type": "bool"
        }
      ],
      "stateMutability": "view",
      "type": "function"
    },
    {
      "inputs": [
        {
          "internalType": "address",
          "name": "nftContract",
          "type": "address"
        },
        {
          "internalType": "uint256",
          "name": "tokenId",
          "type": "uint256"
        },
        {
          "internalType": "uint256",
          "name": "price",
          "type": "uint256"
        },
        {
          "internalType": "string",
          "name": "metadata",
          "type": "string"
        }
      ],
      "name": "listItem",
      "outputs": [],
      "stateMutability": "nonpayable",
      "type": "function"
    },
    {
      "inputs": [],
      "name": "owner",
      "outputs": [
        {
          "internalType": "address",
          "name": "",
          "type": "address"
        }
      ],
      "stateMutability": "view",
      "type": "function"
    },
    {
      "inputs": [],
      "name": "pause",
      "outputs": [],
      "stateMutability": "nonpayable",
      "type": "function"
    },
    {
      "inputs": [],
      "name": "paused",
      "outputs": [
        {
          "internalType": "bool",
          "name": "",
          "type": "bool"
        }
      ],
      "stateMutability": "view",
      "type": "function"
    },
    {
      "inputs": [],
      "name": "platformFee",
      "outputs": [
        {
          "internalType": "uint256",
          "name": "",
          "type": "uint256"
        }
      ],
      "stateMutability": "view",
      "type": "function"
    },
    {
      "inputs": [
        {
          "internalType": "address",
          "name": "nftContract",
          "type": "address"
        },
        {
          "internalType": "uint256",
          "name": "tokenId",
          "type": "uint256"
        }
      ],
      "name": "purchaseItem",
      "outputs": [],
      "stateMutability": "payable",
      "type": "function"
    },
    {
      "inputs": [
        {
          "internalType": "address",
          "name": "nftContract",
          "type": "address"
        }
      ],
      "name": "removeApprovedNFT",
      "outputs": [],
      "stateMutability": "nonpayable",
      "type": "function"
    },
    {
      "inputs": [],
      "name": "renounceOwnership",
      "outputs": [],
      "stateMutability": "nonpayable",
      "type": "function"
    },
    {
      "inputs": [
        {
          "internalType": "address",
          "name": "newOwner",
          "type": "address"
        }
      ],
      "name": "transferOwnership",
      "outputs": [],
      "stateMutability": "nonpayable",
      "type": "function"
    },
    {
      "inputs": [],
      "name": "unpause",
      "outputs": [],
      "stateMutability": "nonpayable",
      "type": "function"
    },
    {
      "inputs": [
        {
          "internalType": "address",
          "name": "nftContract",
          "type": "address"
        },
        {
          "internalType": "uint256",
          "name": "tokenId",
          "type": "uint256"
        },
        {
          "internalType": "uint256",
          "name": "newPrice",
          "type": "uint256"
        },
        {
          "internalType": "string",
          "name": "newMetadata",
          "type": "string"
        }
      ],
      "name": "updateItem",
      "outputs": [],
      "stateMutability": "nonpayable",
      "type": "function"
    },
    {
      "inputs": [
        {
          "internalType": "address",
          "name": "nftContract",
          "type": "address"
        },
        {
          "internalType": "uint256",
          "name": "tokenId",
          "type": "uint256"
        },
        {
          "internalType": "string",
          "name": "newMetadata",
          "type": "string"
        }
      ],
      "name": "updateItemMetadata",
      "outputs": [],
      "stateMutability": "nonpayable",
      "type": "function"
    },
    {
      "inputs": [
        {
          "internalType": "address",
          "name": "nftContract",
          "type": "address"
        },
        {
          "internalType": "uint256",
          "name": "tokenId",
          "type": "uint256"
        },
        {
          "internalType": "uint256",
          "name": "newPrice",
          "type": "uint256"
        }
      ],
      "name": "updateItemPrice",
      "outputs": [],
      "stateMutability": "nonpayable",
      "type": "function"
    },
    {
      "inputs": [],
      "name": "withdrawFees",
      "outputs": [],
      "stateMutability": "nonpayable",
      "type": "function"
    }
  ],
  "transactionHash": "0x9b4fe83c858a58d9c18f9344cc94a0e81074624950e259de7c74667d03718816",
  "args": [],
  "numDeployments": 1,
  "solcInputHash": "f99074461e823bae725591612563a80b",
  "bytecode": "0x608060405260fa600255348015601457600080fd5b503380603a57604051631e4fbdf760e01b81526000600482015260240160405180910390fd5b604181604a565b5060018055609a565b600080546001600160a01b038381166001600160a01b0319831681178455604051919092169283917f8be0079c531659141344cd1fd0a4f28419497f9722a3daafe3b4186f6b6457e09190a35050565b61204d806100a96000396000f3fe60806040526004361061012a5760003560e01c806374d9bbb6116100ab578063ad9a03691161006f578063ad9a03691461031e578063b168cb6e1461033e578063b835164a1461035e578063d26fe73d1461037e578063f071db5a1461039e578063f2fde38b146103b457600080fd5b806374d9bbb61461027457806375dc7d8c146102945780638456cb59146102b457806388700d1c146102c95780638da5cb5b146102f657600080fd5b8063448d534e116100f2578063448d534e146101d2578063476343ee1461020b5780635095709e146102205780635c975abb14610240578063715018a61461025f57600080fd5b806302806eb01461012f57806326232a2e1461016457806332724900146101885780633cd499741461019d5780633f4ba83a146101bd575b600080fd5b34801561013b57600080fd5b5061014f61014a366004611a2d565b6103d4565b60405190151581526020015b60405180910390f35b34801561017057600080fd5b5061017a60025481565b60405190815260200161015b565b61019b610196366004611a2d565b610403565b005b3480156101a957600080fd5b5061019b6101b8366004611a59565b6109cc565b3480156101c957600080fd5b5061019b610c1c565b3480156101de57600080fd5b5061014f6101ed366004611a8e565b6001600160a01b031660009081526004602052604090205460ff1690565b34801561021757600080fd5b5061019b610c2e565b34801561022c57600080fd5b5061019b61023b366004611b57565b610c8e565b34801561024c57600080fd5b50600054600160a01b900460ff1661014f565b34801561026b57600080fd5b5061019b61103c565b34801561028057600080fd5b5061019b61028f366004611a8e565b61104e565b3480156102a057600080fd5b5061017a6102af366004611bba565b6110ae565b3480156102c057600080fd5b5061019b6110cb565b3480156102d557600080fd5b506102e96102e4366004611a2d565b6110db565b60405161015b9190611c23565b34801561030257600080fd5b506000546040516001600160a01b03909116815260200161015b565b34801561032a57600080fd5b5061019b610339366004611a2d565b6111cf565b34801561034a57600080fd5b5061019b610359366004611b57565b61138c565b34801561036a57600080fd5b5061019b610379366004611c62565b6114bc565b34801561038a57600080fd5b5061019b610399366004611a8e565b61179c565b3480156103aa57600080fd5b5061017a60035481565b3480156103c057600080fd5b5061019b6103cf366004611a8e565b6117f8565b6001600160a01b0382811660009081526005602090815260408083208584529091529020541615155b92915050565b61040b611836565b610413611861565b818161041f82826103d4565b6104445760405162461bcd60e51b815260040161043b90611cbb565b60405180910390fd5b6001600160a01b038481166000818152600560209081526040808320888452909152908190205490516331a9108f60e11b8152600481018790528793879392169190636352211e90602401602060405180830381865afa1580156104ac573d6000803e3d6000fd5b505050506040513d601f19601f820116820180604052508101906104d09190611ce4565b6001600160a01b031614610551576001600160a01b0382166000908152600560209081526040808320848452909152812080546001600160a01b0319168155600181018290559061052460028301826119ca565b50506040516302ff52c360e01b81526001600160a01b03831660048201526024810182905260440161043b565b6001600160a01b038616600090815260056020908152604080832088845290915290206001015434146105c65760405162461bcd60e51b815260206004820152601860248201527f496e636f7272656374207061796d656e7420616d6f756e740000000000000000604482015260640161043b565b60405163020604bf60e21b81526004810186905230906001600160a01b0388169063081812fc90602401602060405180830381865afa15801561060d573d6000803e3d6000fd5b505050506040513d601f19601f820116820180604052508101906106319190611ce4565b6001600160a01b031614806106cc57506001600160a01b0386811660008181526005602090815260408083208a84529091529081902054905163e985e9c560e01b8152921660048301523060248301529063e985e9c590604401602060405180830381865afa1580156106a8573d6000803e3d6000fd5b505050506040513d601f19601f820116820180604052508101906106cc9190611d01565b6107185760405162461bcd60e51b815260206004820181905260248201527f4d61726b6574706c616365206e6f7420617070726f76656420666f72204e4654604482015260640161043b565b6040516331a9108f60e11b81526004810186905233906001600160a01b03881690636352211e90602401602060405180830381865afa15801561075f573d6000803e3d6000fd5b505050506040513d601f19601f820116820180604052508101906107839190611ce4565b6001600160a01b0316036107d95760405162461bcd60e51b815260206004820152601860248201527f43616e6e6f74207075726368617365206f776e206974656d0000000000000000604482015260640161043b565b6001600160a01b038681166000908152600560209081526040808320898452909152812080546001600160a01b03198116825560018201839055909216919061082560028301826119ca565b5050604051632142170760e11b81526001600160a01b038281166004830152336024830152604482018890528816906342842e0e90606401600060405180830381600087803b15801561087757600080fd5b505af115801561088b573d6000803e3d6000fd5b505050506000612710600254346108a29190611d39565b6108ac9190611d50565b905060006001600160a01b0383166108c48334611d72565b604051600081818185875af1925050503d8060008114610900576040519150601f19603f3d011682016040523d82523d6000602084013e610905565b606091505b505090508061094b5760405162461bcd60e51b815260206004820152601260248201527108cc2d2d8cac840e8de40e6cadcc8408aa8960731b604482015260640161043b565b816003600082825461095d9190611d85565b9091555050604080516001600160a01b038b81168252602082018b905285168183015233606082015234608082015290517fbcf10c39f62b09d50efa1e275c1297b15ef10efd0e4e9b54883d782eef4ef5649181900360a00190a1505050505050506109c860018055565b5050565b6109d4611836565b82826109e082826103d4565b6109fc5760405162461bcd60e51b815260040161043b90611cbb565b6001600160a01b038581166000818152600560209081526040808320898452909152908190205490516331a9108f60e11b8152600481018890528893889392169190636352211e90602401602060405180830381865afa158015610a64573d6000803e3d6000fd5b505050506040513d601f19601f82011682018060405250810190610a889190611ce4565b6001600160a01b031614610adc576001600160a01b0382166000908152600560209081526040808320848452909152812080546001600160a01b0319168155600181018290559061052460028301826119ca565b6001600160a01b0387811660009081526005602090815260408083208a8452909152902054163314610b205760405162461bcd60e51b815260040161043b90611d98565b60008511610b705760405162461bcd60e51b815260206004820152601f60248201527f5072696365206d7573742062652067726561746572207468616e207a65726f00604482015260640161043b565b6001600160a01b03871660009081526005602090815260408083208984529091529020600101548514610c13576001600160a01b03871660008181526005602090815260408083208a8452825291829020600101805490899055825193845290830189905290820181905260608201879052907fbc1af76987ec3577a06071187b1825294c5a3d902ed23a18c1518fdb25e7087c906080015b60405180910390a1505b50505050505050565b610c2461188b565b610c2c6118b8565b565b610c3661188b565b610c3e611861565b6003546000819003610c505750610c85565b60006003819055604051339183156108fc02918491818181858888f19350505050158015610c82573d6000803e3d6000fd5b50505b610c2c60018055565b610c96611836565b6001600160a01b03841660009081526004602052604090205460ff16610cfe5760405162461bcd60e51b815260206004820152601960248201527f4e465420636f6e7472616374206e6f7420617070726f76656400000000000000604482015260640161043b565b610d0884846103d4565b15610d4b5760405162461bcd60e51b8152602060048201526013602482015272125d195b48185b1c9958591e481b1a5cdd1959606a1b604482015260640161043b565b6040516331a9108f60e11b81526004810184905233906001600160a01b03861690636352211e90602401602060405180830381865afa158015610d92573d6000803e3d6000fd5b505050506040513d601f19601f82011682018060405250810190610db69190611ce4565b6001600160a01b031614610e035760405162461bcd60e51b8152602060048201526014602482015273139bdd081d1a19481bdddb995c881bd98813919560621b604482015260640161043b565b60008211610e535760405162461bcd60e51b815260206004820152601f60248201527f5072696365206d7573742062652067726561746572207468616e207a65726f00604482015260640161043b565b60405163020604bf60e21b81526004810184905230906001600160a01b0386169063081812fc90602401602060405180830381865afa158015610e9a573d6000803e3d6000fd5b505050506040513d601f19601f82011682018060405250810190610ebe9190611ce4565b6001600160a01b03161480610f3c575060405163e985e9c560e01b81523360048201523060248201526001600160a01b0385169063e985e9c590604401602060405180830381865afa158015610f18573d6000803e3d6000fd5b505050506040513d601f19601f82011682018060405250810190610f3c9190611d01565b610f885760405162461bcd60e51b815260206004820181905260248201527f4d61726b6574706c616365206e6f7420617070726f76656420666f72204e4654604482015260640161043b565b6040805160608101825233815260208082018581528284018581526001600160a01b038981166000908152600585528681208a825290945294909220835181546001600160a01b0319169516949094178455516001840155519091906002820190610ff39082611e49565b509050507ff66ed48401b7d1ec3917f5b31df8c9e029403eecfb317348ac440e8991b037ea848433858560405161102e959493929190611f08565b60405180910390a150505050565b61104461188b565b610c2c600061190d565b61105661188b565b6001600160a01b038116600081815260046020908152604091829020805460ff1916905590519182527fd3dc7080cc379140adfc80034dcc1cd2d6957e1181c0ff0ae3170c4be1152fc391015b60405180910390a150565b6000612710600254836110c19190611d39565b6103fd9190611d50565b6110d361188b565b610c2c61195d565b6040805160608082018352600080835260208084018290528385018390526001600160a01b03878116835260058252858320878452825291859020855193840186528054909216835260018201549083015260028101805493949293919284019161114590611dc0565b80601f016020809104026020016040519081016040528092919081815260200182805461117190611dc0565b80156111be5780601f10611193576101008083540402835291602001916111be565b820191906000526020600020905b8154815290600101906020018083116111a157829003601f168201915b505050505081525050905092915050565b6111d7611836565b81816111e382826103d4565b6111ff5760405162461bcd60e51b815260040161043b90611cbb565b6001600160a01b0384811660009081526005602090815260408083208784529091529020541633146112435760405162461bcd60e51b815260040161043b90611d98565b6040516331a9108f60e11b81526004810184905233906001600160a01b03861690636352211e90602401602060405180830381865afa15801561128a573d6000803e3d6000fd5b505050506040513d601f19601f820116820180604052508101906112ae9190611ce4565b6001600160a01b0316146112fb5760405162461bcd60e51b8152602060048201526014602482015273139bdd081d1a19481bdddb995c881bd98813919560621b604482015260640161043b565b6001600160a01b0384166000908152600560209081526040808320868452909152812080546001600160a01b0319168155600181018290559061134160028301826119ca565b5050604080516001600160a01b03861681526020810185905233918101919091527f8a5f25b0a324f219b1808a5482b684d7065e755da6094a5ab2f1b203bf20dfa89060600161102e565b611394611836565b83836113a082826103d4565b6113bc5760405162461bcd60e51b815260040161043b90611cbb565b6001600160a01b0386811660008181526005602090815260408083208a8452909152908190205490516331a9108f60e11b8152600481018990528993899392169190636352211e90602401602060405180830381865afa158015611424573d6000803e3d6000fd5b505050506040513d601f19601f820116820180604052508101906114489190611ce4565b6001600160a01b03161461149c576001600160a01b0382166000908152600560209081526040808320848452909152812080546001600160a01b0319168155600181018290559061052460028301826119ca565b6114a78888886109cc565b6114b28888876114bc565b5050505050505050565b6114c4611836565b82826114d082826103d4565b6114ec5760405162461bcd60e51b815260040161043b90611cbb565b6001600160a01b038581166000818152600560209081526040808320898452909152908190205490516331a9108f60e11b8152600481018890528893889392169190636352211e90602401602060405180830381865afa158015611554573d6000803e3d6000fd5b505050506040513d601f19601f820116820180604052508101906115789190611ce4565b6001600160a01b0316146115cc576001600160a01b0382166000908152600560209081526040808320848452909152812080546001600160a01b0319168155600181018290559061052460028301826119ca565b6001600160a01b0387811660009081526005602090815260408083208a84529091529020541633146116105760405162461bcd60e51b815260040161043b90611d98565b846040516020016116219190611f4d565b60408051601f1981840301815282825280516020918201206001600160a01b038b166000908152600583528381208b82528352929092209192611668926002019101611f69565b604051602081830303815290604052805190602001200315610c13576001600160a01b0387166000908152600560209081526040808320898452909152812060020180546116b590611dc0565b80601f01602080910402602001604051908101604052809291908181526020018280546116e190611dc0565b801561172e5780601f106117035761010080835404028352916020019161172e565b820191906000526020600020905b81548152906001019060200180831161171157829003601f168201915b505050506001600160a01b038a1660009081526005602090815260408083208c84529091529020919250506002016117668782611e49565b507f67e561e938739efac72f1a4776bc0885832ed058baa55f3d3ff8d650e4352da288888389604051610c099493929190611fde565b6117a461188b565b6001600160a01b038116600081815260046020908152604091829020805460ff1916600117905590519182527f755f45c46c5c89e6073bb657c347f61611f48081ed85b850be902fcebb973b0d91016110a3565b61180061188b565b6001600160a01b03811661182a57604051631e4fbdf760e01b81526000600482015260240161043b565b6118338161190d565b50565b600054600160a01b900460ff1615610c2c5760405163d93c066560e01b815260040160405180910390fd5b60026001540361188457604051633ee5aeb560e01b815260040160405180910390fd5b6002600155565b6000546001600160a01b03163314610c2c5760405163118cdaa760e01b815233600482015260240161043b565b6118c06119a0565b6000805460ff60a01b191690557f5db9ee0a495bf2e6ff9c91a7834c1ba4fdd244a5e8aa4e537bd38aeae4b073aa335b6040516001600160a01b03909116815260200160405180910390a1565b600080546001600160a01b038381166001600160a01b0319831681178455604051919092169283917f8be0079c531659141344cd1fd0a4f28419497f9722a3daafe3b4186f6b6457e09190a35050565b611965611836565b6000805460ff60a01b1916600160a01b1790557f62e78cea01bee320cd4e420270b5ea74000d11b0c9f74754ebdbfc544b05a2586118f03390565b600054600160a01b900460ff16610c2c57604051638dfc202b60e01b815260040160405180910390fd5b5080546119d690611dc0565b6000825580601f106119e6575050565b601f01602090049060005260206000209081019061183391905b80821115611a145760008155600101611a00565b5090565b6001600160a01b038116811461183357600080fd5b60008060408385031215611a4057600080fd5b8235611a4b81611a18565b946020939093013593505050565b600080600060608486031215611a6e57600080fd5b8335611a7981611a18565b95602085013595506040909401359392505050565b600060208284031215611aa057600080fd5b8135611aab81611a18565b9392505050565b634e487b7160e01b600052604160045260246000fd5b600082601f830112611ad957600080fd5b813567ffffffffffffffff811115611af357611af3611ab2565b604051601f8201601f19908116603f0116810167ffffffffffffffff81118282101715611b2257611b22611ab2565b604052818152838201602001851015611b3a57600080fd5b816020850160208301376000918101602001919091529392505050565b60008060008060808587031215611b6d57600080fd5b8435611b7881611a18565b93506020850135925060408501359150606085013567ffffffffffffffff811115611ba257600080fd5b611bae87828801611ac8565b91505092959194509250565b600060208284031215611bcc57600080fd5b5035919050565b60005b83811015611bee578181015183820152602001611bd6565b50506000910152565b60008151808452611c0f816020860160208601611bd3565b601f01601f19169290920160200192915050565b6020815260018060a01b0382511660208201526020820151604082015260006040830151606080840152611c5a6080840182611bf7565b949350505050565b600080600060608486031215611c7757600080fd5b8335611c8281611a18565b925060208401359150604084013567ffffffffffffffff811115611ca557600080fd5b611cb186828701611ac8565b9150509250925092565b6020808252600f908201526e125d195b481b9bdd081b1a5cdd1959608a1b604082015260600190565b600060208284031215611cf657600080fd5b8151611aab81611a18565b600060208284031215611d1357600080fd5b81518015158114611aab57600080fd5b634e487b7160e01b600052601160045260246000fd5b80820281158282048414176103fd576103fd611d23565b600082611d6d57634e487b7160e01b600052601260045260246000fd5b500490565b818103818111156103fd576103fd611d23565b808201808211156103fd576103fd611d23565b6020808252600e908201526d2737ba103a34329039b2b63632b960911b604082015260600190565b600181811c90821680611dd457607f821691505b602082108103611df457634e487b7160e01b600052602260045260246000fd5b50919050565b601f821115611e4457806000526020600020601f840160051c81016020851015611e215750805b601f840160051c820191505b81811015611e415760008155600101611e2d565b50505b505050565b815167ffffffffffffffff811115611e6357611e63611ab2565b611e7781611e718454611dc0565b84611dfa565b6020601f821160018114611eab5760008315611e935750848201515b600019600385901b1c1916600184901b178455611e41565b600084815260208120601f198516915b82811015611edb5787850151825560209485019460019092019101611ebb565b5084821015611ef95786840151600019600387901b60f8161c191681555b50505050600190811b01905550565b6001600160a01b03868116825260208201869052841660408201526060810183905260a060808201819052600090611f4290830184611bf7565b979650505050505050565b60008251611f5f818460208701611bd3565b9190910192915050565b6000808354611f7781611dc0565b600182168015611f8e5760018114611fa357611fd3565b60ff1983168652811515820286019350611fd3565b86600052602060002060005b83811015611fcb57815488820152600190910190602001611faf565b505081860193505b509195945050505050565b60018060a01b03851681528360208201526080604082015260006120056080830185611bf7565b8281036060840152611f428185611bf756fea26469706673582212206bb8d8e27c4e15d8ac088976453b9c7764950c0a74037ca168a18e5d62f633f564736f6c634300081c0033",
  "devdoc": {
    "errors": {
      "EnforcedPause()": [
        {
          "details": "The operation failed because the contract is paused."
        }
      ],
      "ExpectedPause()": [
        {
          "details": "The operation failed because the contract is not paused."
        }
      ],
      "OwnableInvalidOwner(address)": [
        {
          "details": "The owner is not a valid owner account. (eg. `address(0)`)"
        }
      ],
      "OwnableUnauthorizedAccount(address)": [
        {
          "details": "The caller account is not authorized to perform an operation."
        }
      ],
      "ReentrancyGuardReentrantCall()": [
        {
          "details": "Unauthorized reentrant call."
        }
      ]
    },
    "events": {
      "Paused(address)": {
        "details": "Emitted when the pause is triggered by `account`."
      },
      "Unpaused(address)": {
        "details": "Emitted when the pause is lifted by `account`."
      }
    },
    "kind": "dev",
    "methods": {
      "owner()": {
        "details": "Returns the address of the current owner."
      },
      "paused()": {
        "details": "Returns true if the contract is paused, and false otherwise."
      },
      "renounceOwnership()": {
        "details": "Leaves the contract without owner. It will not be possible to call `onlyOwner` functions. Can only be called by the current owner. NOTE: Renouncing ownership will leave the contract without an owner, thereby disabling any functionality that is only available to the owner."
      },
      "transferOwnership(address)": {
        "details": "Transfers ownership of the contract to a new account (`newOwner`). Can only be called by the current owner."
      }
    },
    "version": 1
  },
  "userdoc": {
    "kind": "user",
    "methods": {},
    "version": 1
  },
  "storageLayout": {
    "storage": [
      {
        "astId": 8,
        "contract": "contracts/nft/NietzschessNFTMarketplace.sol:NietzschessNFTMarketplace",
        "label": "_owner",
        "offset": 0,
        "slot": "0",
        "type": "t_address"
      },
      {
        "astId": 303,
        "contract": "contracts/nft/NietzschessNFTMarketplace.sol:NietzschessNFTMarketplace",
        "label": "_paused",
        "offset": 20,
        "slot": "0",
        "type": "t_bool"
      },
      {
        "astId": 413,
        "contract": "contracts/nft/NietzschessNFTMarketplace.sol:NietzschessNFTMarketplace",
        "label": "_status",
        "offset": 0,
        "slot": "1",
        "type": "t_uint256"
      },
      {
        "astId": 502,
        "contract": "contracts/nft/NietzschessNFTMarketplace.sol:NietzschessNFTMarketplace",
        "label": "platformFee",
        "offset": 0,
        "slot": "2",
        "type": "t_uint256"
      },
      {
        "astId": 504,
        "contract": "contracts/nft/NietzschessNFTMarketplace.sol:NietzschessNFTMarketplace",
        "label": "feesCollected",
        "offset": 0,
        "slot": "3",
        "type": "t_uint256"
      },
      {
        "astId": 508,
        "contract": "contracts/nft/NietzschessNFTMarketplace.sol:NietzschessNFTMarketplace",
        "label": "approvedNFTs",
        "offset": 0,
        "slot": "4",
        "type": "t_mapping(t_address,t_bool)"
      },
      {
        "astId": 515,
        "contract": "contracts/nft/NietzschessNFTMarketplace.sol:NietzschessNFTMarketplace",
        "label": "listings",
        "offset": 0,
        "slot": "5",
        "type": "t_mapping(t_address,t_mapping(t_uint256,t_struct(Listing)522_storage))"
      }
    ],
    "types": {
      "t_address": {
        "encoding": "inplace",
        "label": "address",
        "numberOfBytes": "20"
      },
      "t_bool": {
        "encoding": "inplace",
        "label": "bool",
        "numberOfBytes": "1"
      },
      "t_mapping(t_address,t_bool)": {
        "encoding": "mapping",
        "key": "t_address",
        "label": "mapping(address => bool)",
        "numberOfBytes": "32",
        "value": "t_bool"
      },
      "t_mapping(t_address,t_mapping(t_uint256,t_struct(Listing)522_storage))": {
        "encoding": "mapping",
        "key": "t_address",
        "label": "mapping(address => mapping(uint256 => struct NietzschessNFTMarketplace.Listing))",
        "numberOfBytes": "32",
        "value": "t_mapping(t_uint256,t_struct(Listing)522_storage)"
      },
      "t_mapping(t_uint256,t_struct(Listing)522_storage)": {
        "encoding": "mapping",
        "key": "t_uint256",
        "label": "mapping(uint256 => struct NietzschessNFTMarketplace.Listing)",
        "numberOfBytes": "32",
        "value": "t_struct(Listing)522_storage"
      },
      "t_string_storage": {
        "encoding": "bytes",
        "label": "string",
        "numberOfBytes": "32"
      },
      "t_struct(Listing)522_storage": {
        "encoding": "inplace",
        "label": "struct NietzschessNFTMarketplace.Listing",
        "members": [
          {
            "astId": 517,
            "contract": "contracts/nft/NietzschessNFTMarketplace.sol:NietzschessNFTMarketplace",
            "label": "seller",
            "offset": 0,
            "slot": "0",
            "type": "t_address"
          },
          {
            "astId": 519,
            "contract": "contracts/nft/NietzschessNFTMarketplace.sol:NietzschessNFTMarketplace",
            "label": "price",
            "offset": 0,
            "slot": "1",
            "type": "t_uint256"
          },
          {
            "astId": 521,
            "contract": "contracts/nft/NietzschessNFTMarketplace.sol:NietzschessNFTMarketplace",
            "label": "metadata",
            "offset": 0,
            "slot": "2",
            "type": "t_string_storage"
          }
        ],
        "numberOfBytes": "96"
      },
      "t_uint256": {
        "encoding": "inplace",
        "label": "uint256",
        "numberOfBytes": "32"
      }
    }
  }
}