{
  "address": "0x590Fdd7b602964d77dd3038788F534bFFDa36A5c",
  "abi": [
    {
      "inputs": [],
      "stateMutability": "nonpayable",
      "type": "constructor"
    },
    {
      "inputs": [
        {
          "internalType": "address",
          "name": "owner",
          "type": "address"
        }
      ],
      "name": "OwnableInvalidOwner",
      "type": "error"
    },
    {
      "inputs": [
        {
          "internalType": "address",
          "name": "account",
          "type": "address"
        }
      ],
      "name": "OwnableUnauthorizedAccount",
      "type": "error"
    },
    {
      "anonymous": false,
      "inputs": [
        {
          "indexed": true,
          "internalType": "bytes32",
          "name": "gameId",
          "type": "bytes32"
        },
        {
          "indexed": false,
          "internalType": "enum ORTBet.GameResult",
          "name": "result",
          "type": "uint8"
        }
      ],
      "name": "GameResolved",
      "type": "event"
    },
    {
      "anonymous": false,
      "inputs": [
        {
          "indexed": true,
          "internalType": "bytes32",
          "name": "gameId",
          "type": "bytes32"
        },
        {
          "indexed": true,
          "internalType": "address",
          "name": "player1",
          "type": "address"
        },
        {
          "indexed": true,
          "internalType": "address",
          "name": "player2",
          "type": "address"
        },
        {
          "indexed": false,
          "internalType": "uint256",
          "name": "stakeAmount",
          "type": "uint256"
        }
      ],
      "name": "GameStarted",
      "type": "event"
    },
    {
      "anonymous": false,
      "inputs": [
        {
          "indexed": true,
          "internalType": "address",
          "name": "previousOwner",
          "type": "address"
        },
        {
          "indexed": true,
          "internalType": "address",
          "name": "newOwner",
          "type": "address"
        }
      ],
      "name": "OwnershipTransferred",
      "type": "event"
    },
    {
      "anonymous": false,
      "inputs": [
        {
          "indexed": true,
          "internalType": "address",
          "name": "player",
          "type": "address"
        },
        {
          "indexed": false,
          "internalType": "uint256",
          "name": "amount",
          "type": "uint256"
        }
      ],
      "name": "StakesDeposited",
      "type": "event"
    },
    {
      "anonymous": false,
      "inputs": [
        {
          "indexed": true,
          "internalType": "address",
          "name": "player",
          "type": "address"
        },
        {
          "indexed": false,
          "internalType": "uint256",
          "name": "amount",
          "type": "uint256"
        }
      ],
      "name": "StakesLocked",
      "type": "event"
    },
    {
      "anonymous": false,
      "inputs": [
        {
          "indexed": true,
          "internalType": "address",
          "name": "player",
          "type": "address"
        },
        {
          "indexed": false,
          "internalType": "uint256",
          "name": "amount",
          "type": "uint256"
        }
      ],
      "name": "StakesUnlocked",
      "type": "event"
    },
    {
      "anonymous": false,
      "inputs": [
        {
          "indexed": true,
          "internalType": "address",
          "name": "player",
          "type": "address"
        },
        {
          "indexed": false,
          "internalType": "uint256",
          "name": "amount",
          "type": "uint256"
        }
      ],
      "name": "StakesWithdrawn",
      "type": "event"
    },
    {
      "inputs": [
        {
          "internalType": "uint256",
          "name": "_amount",
          "type": "uint256"
        }
      ],
      "name": "calculateFee",
      "outputs": [
        {
          "internalType": "uint256",
          "name": "",
          "type": "uint256"
        }
      ],
      "stateMutability": "pure",
      "type": "function"
    },
    {
      "inputs": [],
      "name": "depositStakes",
      "outputs": [],
      "stateMutability": "payable",
      "type": "function"
    },
    {
      "inputs": [],
      "name": "feeRate",
      "outputs": [
        {
          "internalType": "uint256",
          "name": "",
          "type": "uint256"
        }
      ],
      "stateMutability": "view",
      "type": "function"
    },
    {
      "inputs": [],
      "name": "feesCollected",
      "outputs": [
        {
          "internalType": "uint256",
          "name": "",
          "type": "uint256"
        }
      ],
      "stateMutability": "view",
      "type": "function"
    },
    {
      "inputs": [
        {
          "internalType": "bytes32",
          "name": "",
          "type": "bytes32"
        }
      ],
      "name": "games",
      "outputs": [
        {
          "internalType": "address",
          "name": "player1",
          "type": "address"
        },
        {
          "internalType": "address",
          "name": "player2",
          "type": "address"
        },
        {
          "internalType": "uint256",
          "name": "stakeAmount",
          "type": "uint256"
        },
        {
          "internalType": "bool",
          "name": "active",
          "type": "bool"
        }
      ],
      "stateMutability": "view",
      "type": "function"
    },
    {
      "inputs": [
        {
          "internalType": "address",
          "name": "_userAddress",
          "type": "address"
        }
      ],
      "name": "getBalance",
      "outputs": [
        {
          "internalType": "uint256",
          "name": "",
          "type": "uint256"
        }
      ],
      "stateMutability": "view",
      "type": "function"
    },
    {
      "inputs": [
        {
          "internalType": "bytes32",
          "name": "_gameId",
          "type": "bytes32"
        }
      ],
      "name": "getGame",
      "outputs": [
        {
          "components": [
            {
              "internalType": "address",
              "name": "player1",
              "type": "address"
            },
            {
              "internalType": "address",
              "name": "player2",
              "type": "address"
            },
            {
              "internalType": "uint256",
              "name": "stakeAmount",
              "type": "uint256"
            },
            {
              "internalType": "bool",
              "name": "active",
              "type": "bool"
            }
          ],
          "internalType": "struct ORTBet.Game",
          "name": "",
          "type": "tuple"
        }
      ],
      "stateMutability": "view",
      "type": "function"
    },
    {
      "inputs": [
        {
          "internalType": "address",
          "name": "_userAddress",
          "type": "address"
        }
      ],
      "name": "getLockedStake",
      "outputs": [
        {
          "internalType": "uint256",
          "name": "",
          "type": "uint256"
        }
      ],
      "stateMutability": "view",
      "type": "function"
    },
    {
      "inputs": [
        {
          "internalType": "address",
          "name": "",
          "type": "address"
        }
      ],
      "name": "lockedStakes",
      "outputs": [
        {
          "internalType": "uint256",
          "name": "",
          "type": "uint256"
        }
      ],
      "stateMutability": "view",
      "type": "function"
    },
    {
      "inputs": [],
      "name": "owner",
      "outputs": [
        {
          "internalType": "address",
          "name": "",
          "type": "address"
        }
      ],
      "stateMutability": "view",
      "type": "function"
    },
    {
      "inputs": [],
      "name": "renounceOwnership",
      "outputs": [],
      "stateMutability": "nonpayable",
      "type": "function"
    },
    {
      "inputs": [
        {
          "internalType": "bytes32",
          "name": "_gameId",
          "type": "bytes32"
        },
        {
          "internalType": "enum ORTBet.GameResult",
          "name": "_result",
          "type": "uint8"
        }
      ],
      "name": "resolveGame",
      "outputs": [],
      "stateMutability": "nonpayable",
      "type": "function"
    },
    {
      "inputs": [
        {
          "internalType": "string",
          "name": "_gameId",
          "type": "string"
        },
        {
          "internalType": "address",
          "name": "_player1",
          "type": "address"
        },
        {
          "internalType": "address",
          "name": "_player2",
          "type": "address"
        },
        {
          "internalType": "uint256",
          "name": "_stakeAmount",
          "type": "uint256"
        }
      ],
      "name": "startGame",
      "outputs": [],
      "stateMutability": "nonpayable",
      "type": "function"
    },
    {
      "inputs": [
        {
          "internalType": "address",
          "name": "newOwner",
          "type": "address"
        }
      ],
      "name": "transferOwnership",
      "outputs": [],
      "stateMutability": "nonpayable",
      "type": "function"
    },
    {
      "inputs": [
        {
          "internalType": "address",
          "name": "",
          "type": "address"
        }
      ],
      "name": "userBalances",
      "outputs": [
        {
          "internalType": "uint256",
          "name": "",
          "type": "uint256"
        }
      ],
      "stateMutability": "view",
      "type": "function"
    },
    {
      "inputs": [
        {
          "internalType": "uint256",
          "name": "_amount",
          "type": "uint256"
        }
      ],
      "name": "withdrawFees",
      "outputs": [],
      "stateMutability": "nonpayable",
      "type": "function"
    },
    {
      "inputs": [
        {
          "internalType": "uint256",
          "name": "amount",
          "type": "uint256"
        }
      ],
      "name": "withdrawStakes",
      "outputs": [],
      "stateMutability": "nonpayable",
      "type": "function"
    },
    {
      "stateMutability": "payable",
      "type": "receive"
    }
  ],
  "transactionHash": "0x84e8b8a366ec5780d3083f74f3dfe968c65aa288bf50b5c1f41da6591814af1c",
  "args": [],
  "numDeployments": 2,
  "solcInputHash": "63f5421d9c95d5c52a52e66e4928dfee",
  "bytecode": "0x6080604052348015600f57600080fd5b503380603557604051631e4fbdf760e01b81526000600482015260240160405180910390fd5b603c816041565b506091565b600080546001600160a01b038381166001600160a01b0319831681178455604051919092169283917f8be0079c531659141344cd1fd0a4f28419497f9722a3daafe3b4186f6b6457e09190a35050565b6112a9806100a06000396000f3fe6080604052600436106101025760003560e01c806392417dc711610095578063e703dd5411610064578063e703dd54146103ad578063f071db5a146103cd578063f2fde38b146103e3578063f579f88214610403578063f8b2cb4f1461048457600080fd5b806392417dc714610315578063978bbdb91461034257806399a5d747146103575780639e2c63da1461037757600080fd5b80635e318e07116100d15780635e318e07146101e3578063715018a61461020357806373931bbf146102185780638da5cb5b146102ed57600080fd5b80632177457d1461015957806326224c64146101635780632f78808c146101a3578063410390ec146101c357600080fd5b366101545760405162461bcd60e51b815260206004820152601c60248201527f446972656374206465706f73697473206e6f7420616c6c6f7765642e0000000060448201526064015b60405180910390fd5b600080fd5b6101616104ba565b005b34801561016f57600080fd5b5061019061017e366004611085565b60016020526000908152604090205481565b6040519081526020015b60405180910390f35b3480156101af57600080fd5b506101616101be3660046110a7565b6105af565b3480156101cf57600080fd5b506101616101de366004611143565b610a37565b3480156101ef57600080fd5b506101616101fe366004611143565b610b7c565b34801561020f57600080fd5b50610161610c1e565b34801561022457600080fd5b506102aa610233366004611143565b60408051608081018252600080825260208201819052918101829052606081019190915250600090815260036020818152604092839020835160808101855281546001600160a01b0390811682526001830154169281019290925260028101549382019390935291015460ff161515606082015290565b60405161019a919081516001600160a01b039081168252602080840151909116908201526040808301519082015260609182015115159181019190915260800190565b3480156102f957600080fd5b506000546040516001600160a01b03909116815260200161019a565b34801561032157600080fd5b50610190610330366004611085565b60026020526000908152604090205481565b34801561034e57600080fd5b50610190600381565b34801561036357600080fd5b50610190610372366004611143565b610c32565b34801561038357600080fd5b50610190610392366004611085565b6001600160a01b031660009081526002602052604090205490565b3480156103b957600080fd5b506101616103c836600461115c565b610c52565b3480156103d957600080fd5b5061019060045481565b3480156103ef57600080fd5b506101616103fe366004611085565b610fae565b34801561040f57600080fd5b5061045761041e366004611143565b600360208190526000918252604090912080546001820154600283015492909301546001600160a01b0391821693909116919060ff1684565b604080516001600160a01b039586168152949093166020850152918301521515606082015260800161019a565b34801561049057600080fd5b5061019061049f366004611085565b6001600160a01b031660009081526001602052604090205490565b600034116105195760405162461bcd60e51b815260206004820152602660248201527f4465706f73697420616d6f756e74206d757374206265206772656174657220746044820152653430b710181760d11b606482015260840161014b565b600061052434610c32565b905061053081346111a6565b336000908152600160205260408120805490919061054f9084906111b9565b92505081905550806004600082825461056891906111b9565b909155503390507f8a84d5a52e90630e4ce7bdb59bd09c7f9345a27ba7c417b08682fae34ad142d561059a83346111a6565b6040519081526020015b60405180910390a250565b6105b7610fec565b600085856040516020016105cc9291906111cc565b60408051601f19818403018152918152815160209283012060008181526003909352912060020154909150156106445760405162461bcd60e51b815260206004820152601760248201527f47616d6520494420616c7265616479206578697374732e000000000000000000604482015260640161014b565b6001600160a01b0384161580159061066457506001600160a01b03831615155b6106b05760405162461bcd60e51b815260206004820152601760248201527f496e76616c696420706c6179657220616464726573732e000000000000000000604482015260640161014b565b6000821161070c5760405162461bcd60e51b8152602060048201526024808201527f5f7374616b65416d6f756e74206d7573742062652067726561746572207468616044820152633710181760e11b606482015260840161014b565b6001600160a01b0384166000908152600160205260409020548211156107745760405162461bcd60e51b815260206004820152601f60248201527f506c61796572312068617320696e73756666696369656e742066756e64732e00604482015260640161014b565b6001600160a01b0383166000908152600160205260409020548211156107dc5760405162461bcd60e51b815260206004820152601f60248201527f506c61796572322068617320696e73756666696369656e742066756e64732e00604482015260640161014b565b600060026107e984610c32565b6107f391906111dc565b9050600061080182856111a6565b6001600160a01b03871660009081526001602052604081208054929350839290919061082e9084906111a6565b90915550506001600160a01b0385166000908152600160205260408120805483929061085b9084906111a6565b90915550506001600160a01b038616600090815260026020526040812080548392906108889084906111b9565b90915550506001600160a01b038516600090815260026020526040812080548392906108b59084906111b9565b909155506108c690508260026111fe565b600460008282546108d791906111b9565b9091555050604080516080810182526001600160a01b03808916808352888216602080850191825284860187815260016060870181815260008c8152600394859052899020975188549088166001600160a01b031991821617895594519188018054929097169190941617909455925160028501555192909101805492151560ff199093169290921790915590517f41375446217eacab943f69f43e90965cbed73a9648b36f7c1276c8e76bb67bad906109949084815260200190565b60405180910390a2846001600160a01b03167f41375446217eacab943f69f43e90965cbed73a9648b36f7c1276c8e76bb67bad826040516109d791815260200190565b60405180910390a2846001600160a01b0316866001600160a01b0316847fca5be7d622fe97529270450062762f9bac7e27828ef7b8658af85234f44146cd87604051610a2591815260200190565b60405180910390a45050505050505050565b60008111610a995760405162461bcd60e51b815260206004820152602960248201527f5769746864726177616c20616d6f756e74206d7573742062652067726561746560448201526839103a3430b710181760b91b606482015260840161014b565b33600090815260016020526040902054811115610af85760405162461bcd60e51b815260206004820152601f60248201527f496e73756666696369656e742066756e647320746f2077697468647261772e00604482015260640161014b565b3360009081526001602052604081208054839290610b179084906111a6565b9091555050604051339082156108fc029083906000818181858888f19350505050158015610b49573d6000803e3d6000fd5b5060405181815233907f75ded28a7f8d2c34347ec4a9961ec6edff2da2e8a30f2988131f68b61d806b7b906020016105a4565b610b84610fec565b806004541015610bd65760405162461bcd60e51b815260206004820152601c60248201527f496e73756666696369656e74206665657320636f6c6c65637465642e00000000604482015260640161014b565b8060046000828254610be891906111a6565b9091555050604051339082156108fc029083906000818181858888f19350505050158015610c1a573d6000803e3d6000fd5b5050565b610c26610fec565b610c306000611019565b565b60006003610c42612710846111dc565b610c4c91906111fe565b92915050565b610c5a610fec565b6000828152600360208190526040909120015460ff16610cd45760405162461bcd60e51b815260206004820152602f60248201527f47616d6520656974686572206e6f742063726561746564206f7220697320616c60448201526e3932b0b23c903334b734b9b432b21760891b606482015260840161014b565b600082815260036020908152604080832060028082015482546001600160a01b031686529352908320805491939091610d0e9084906111a6565b909155505060028082015460018301546001600160a01b0316600090815260209290925260408220805491929091610d479084906111a6565b9091555060019050826002811115610d6157610d61611215565b03610de757600280820154610d75916111fe565b81546001600160a01b031660009081526001602052604081208054909190610d9e9084906111b9565b909155505080546002808301546001600160a01b039092169160008051602061125483398151915291610dd191906111fe565b60405190815260200160405180910390a2610f63565b6002826002811115610dfb57610dfb611215565b03610e7357600280820154610e0f916111fe565b6001828101546001600160a01b03166000908152602091909152604081208054909190610e3d9084906111b9565b909155505060018101546002808301546001600160a01b039092169160008051602061125483398151915291610dd191906111fe565b6000826002811115610e8757610e87611215565b03610f6357600281015481546001600160a01b031660009081526001602052604081208054909190610eba9084906111b9565b909155505060028101546001808301546001600160a01b03166000908152602091909152604081208054909190610ef29084906111b9565b9091555050805460028201546040519081526001600160a01b03909116906000805160206112548339815191529060200160405180910390a2600181015460028201546040519081526001600160a01b03909116906000805160206112548339815191529060200160405180910390a25b60038101805460ff1916905560405183907f84084530ad38987aaa9b1454bf4cbc496558210efbfe8ec98c3a6879f4e9a38a90610fa190859061122b565b60405180910390a2505050565b610fb6610fec565b6001600160a01b038116610fe057604051631e4fbdf760e01b81526000600482015260240161014b565b610fe981611019565b50565b6000546001600160a01b03163314610c305760405163118cdaa760e01b815233600482015260240161014b565b600080546001600160a01b038381166001600160a01b0319831681178455604051919092169283917f8be0079c531659141344cd1fd0a4f28419497f9722a3daafe3b4186f6b6457e09190a35050565b80356001600160a01b038116811461108057600080fd5b919050565b60006020828403121561109757600080fd5b6110a082611069565b9392505050565b6000806000806000608086880312156110bf57600080fd5b853567ffffffffffffffff8111156110d657600080fd5b8601601f810188136110e757600080fd5b803567ffffffffffffffff8111156110fe57600080fd5b88602082840101111561111057600080fd5b602091820196509450611124908701611069565b925061113260408701611069565b949793965091946060013592915050565b60006020828403121561115557600080fd5b5035919050565b6000806040838503121561116f57600080fd5b8235915060208301356003811061118557600080fd5b809150509250929050565b634e487b7160e01b600052601160045260246000fd5b81810381811115610c4c57610c4c611190565b80820180821115610c4c57610c4c611190565b8183823760009101908152919050565b6000826111f957634e487b7160e01b600052601260045260246000fd5b500490565b8082028115828204841417610c4c57610c4c611190565b634e487b7160e01b600052602160045260246000fd5b602081016003831061124d57634e487b7160e01b600052602160045260246000fd5b9190529056fe68510e4a026e1e6eb57d0691a8904192605ae5f5c8c1e0c878bcfd8299f56132a2646970667358221220c057af3ffe6462adf77339e645dac0163cd08514c0202e5f28b232e8df428dbf64736f6c634300081c0033",
  "devdoc": {
    "errors": {
      "OwnableInvalidOwner(address)": [
        {
          "details": "The owner is not a valid owner account. (eg. `address(0)`)"
        }
      ],
      "OwnableUnauthorizedAccount(address)": [
        {
          "details": "The caller account is not authorized to perform an operation."
        }
      ]
    },
    "kind": "dev",
    "methods": {
      "owner()": {
        "details": "Returns the address of the current owner."
      },
      "renounceOwnership()": {
        "details": "Leaves the contract without owner. It will not be possible to call `onlyOwner` functions. Can only be called by the current owner. NOTE: Renouncing ownership will leave the contract without an owner, thereby disabling any functionality that is only available to the owner."
      },
      "transferOwnership(address)": {
        "details": "Transfers ownership of the contract to a new account (`newOwner`). Can only be called by the current owner."
      }
    },
    "version": 1
  },
  "userdoc": {
    "kind": "user",
    "methods": {},
    "version": 1
  },
  "storageLayout": {
    "storage": [
      {
        "astId": 8,
        "contract": "contracts/ORTBet.sol:ORTBet",
        "label": "_owner",
        "offset": 0,
        "slot": "0",
        "type": "t_address"
      },
      {
        "astId": 186,
        "contract": "contracts/ORTBet.sol:ORTBet",
        "label": "userBalances",
        "offset": 0,
        "slot": "1",
        "type": "t_mapping(t_address,t_uint256)"
      },
      {
        "astId": 190,
        "contract": "contracts/ORTBet.sol:ORTBet",
        "label": "lockedStakes",
        "offset": 0,
        "slot": "2",
        "type": "t_mapping(t_address,t_uint256)"
      },
      {
        "astId": 195,
        "contract": "contracts/ORTBet.sol:ORTBet",
        "label": "games",
        "offset": 0,
        "slot": "3",
        "type": "t_mapping(t_bytes32,t_struct(Game)254_storage)"
      },
      {
        "astId": 200,
        "contract": "contracts/ORTBet.sol:ORTBet",
        "label": "feesCollected",
        "offset": 0,
        "slot": "4",
        "type": "t_uint256"
      }
    ],
    "types": {
      "t_address": {
        "encoding": "inplace",
        "label": "address",
        "numberOfBytes": "20"
      },
      "t_bool": {
        "encoding": "inplace",
        "label": "bool",
        "numberOfBytes": "1"
      },
      "t_bytes32": {
        "encoding": "inplace",
        "label": "bytes32",
        "numberOfBytes": "32"
      },
      "t_mapping(t_address,t_uint256)": {
        "encoding": "mapping",
        "key": "t_address",
        "label": "mapping(address => uint256)",
        "numberOfBytes": "32",
        "value": "t_uint256"
      },
      "t_mapping(t_bytes32,t_struct(Game)254_storage)": {
        "encoding": "mapping",
        "key": "t_bytes32",
        "label": "mapping(bytes32 => struct ORTBet.Game)",
        "numberOfBytes": "32",
        "value": "t_struct(Game)254_storage"
      },
      "t_struct(Game)254_storage": {
        "encoding": "inplace",
        "label": "struct ORTBet.Game",
        "members": [
          {
            "astId": 247,
            "contract": "contracts/ORTBet.sol:ORTBet",
            "label": "player1",
            "offset": 0,
            "slot": "0",
            "type": "t_address"
          },
          {
            "astId": 249,
            "contract": "contracts/ORTBet.sol:ORTBet",
            "label": "player2",
            "offset": 0,
            "slot": "1",
            "type": "t_address"
          },
          {
            "astId": 251,
            "contract": "contracts/ORTBet.sol:ORTBet",
            "label": "stakeAmount",
            "offset": 0,
            "slot": "2",
            "type": "t_uint256"
          },
          {
            "astId": 253,
            "contract": "contracts/ORTBet.sol:ORTBet",
            "label": "active",
            "offset": 0,
            "slot": "3",
            "type": "t_bool"
          }
        ],
        "numberOfBytes": "128"
      },
      "t_uint256": {
        "encoding": "inplace",
        "label": "uint256",
        "numberOfBytes": "32"
      }
    }
  }
}